:100000000C94C3020C943B0E0C940A030C940A0348
:100010000C940A030C940A030C940A030C940A032C
:100020000C940A030C940A030C94B5250C948726AF
:100030000C94251C0C940A030C940A030C940A03D8
:100040000C940A030C940A030C940A030C940A03FC
:100050000C940A030C948D1C0C940A030C940A0350
:100060000C940A030C940A030C940A030C940A03DC
:100070000C940A030C940A030C940A030C940A03CC
:100080000C940A030C940A030C940A030C940A03BC
:100090000C940A030C940A030C940A030C940A03AC
:1000A0000C940A030C940A030C940A031C121C12ED
:1000B0004E124E129B12BB121B141B14FD129A13EC
:1000C000AB13AB130B141B141B1414149D149D14AD
:1000D000AF14AF14A614AF14AF14AF149D149D1435
:1000E000AB14AF14AF14AB14F4261B270D281B2739
:1000F0000D2867278A270D28E027EF2729001E00F3
:100100001F0020002100220000002B0030003600DC
:1001100037001300170000002A0004001200080036
:1001200018000C0000003362340014000D000E00B3
:100130001B0000000000E000E300E20001512C0081
:1001400000002E00270026002500240023000000C8
:1001500038000F00150006000A00090000002D00FD
:100160001600110017000B000700000031721D007F
:1001700019001A001000050000003000E4006500BE
:10018000E60001512800000035003A003B003C0029
:100190003D003E0000002B00310031022502260206
:1001A000000000004C00251426142414271400001D
:1001B0000000E1000000000000000000000000005E
:1001C0000000E000E300E200010000000000440045
:1001D00043004200410040003F000000450046004F
:1001E0004E0052004B00000000002E0000004F00A7
:1001F000510050004A000000E5000000000000002F
:1002000000004D0000000000E4006500E600010071
:1002100000000000010001000100010001000100D8
:10022000010000000000F0000000F90000000100E3
:100230000000F200F100F300FA00000001000000ED
:1002400000000000000000000000010000000000AD
:1002500000000000F400F5000100010001000100B1
:10026000010001000100010000000000000000008A
:10027000000000000100000000004F00520051008B
:10028000500000000000000000000000000000001E
:10029000010000000000000000000000010001005B
:1002A00000003A003B003C003D003E00C55C000001
:1002B000005CCD5CC25CC35CC65C0000000000005A
:1002C000000000000000000001000000000000002D
:1002D000000000000000000000000000000000001E
:1002E0000000000000000000430042004100400008
:1002F0003F00C85C000000000000C95CCA5CC75C2D
:1003000000000000000000000000000000000100EC
:1003100000000000000000000000000000000000DD
:1003200000000000000000000000000000000000CD
:1003300000000000000001010101010101010102B2
:100340000202020202020203030303030303040482
:100350000404040505050505060606060607070745
:1003600007080808080909090A0A0A0B0B0B0C0CF4
:100370000C0D0D0D0E0E0E0F0F101010111112128C
:1003800013131414151516161717181819191A1A05
:100390001B1C1C1D1D1E1F1F202121222323242561
:1003A0002526272828292A2B2C2C2D2E2F30313199
:1003B00032333435363738393A3B3C3D3E3F4041A5
:1003C00042434445464748494B4C4D4E4F5052538B
:1003D00054555758595A5C5D5E606163646567683F
:1003E0006A6B6C6E6F7172747677797A7C7D7F81BF
:1003F00082848687898B8D8E9092949597999B9D08
:100400009FA1A2A4A6A8AAACAEB0B2B4B6B9BBBD17
:10041000BFC1C3C5C8CACCCED0D3D5D7DADCDEE1E4
:10042000E3E6E8EAEDEFF2F4F7F9FCFF040330004D
:10043000000026035400680065002000520065009B
:1004400064006F00780020004B00650079006200B6
:100450006F00610072006400000014034600610038
:100460006C006200610074006500630068000000B9
:100470000403090409023B00020100A0FA09040078
:1004800000010301010009211101000122400007C0
:1004900005810308000A09040100010300000009A6
:1004A00021110100012285000705820320000A12A4
:1004B00001100100000008EDFE0000000101020330
:1004C0000105010902A10185020901A1000509191F
:1004D0000129051500250195057501810295017514
:1004E0000381010501093009311581257F950275C8
:1004F00008810609381581257F9501750881060553
:100500000C0A38021581257F950175088106C0C047
:1005100005010980A10185031601002603001A8147
:10052000002A8300751095018100C0050C0901A106
:10053000018504160100269C021A01002A9C0275FE
:100540001095018100C005010906A101050719E008
:1005500029E71500250195087501810295017508A7
:10056000810105081901290595057501910295017B
:10057000750391010507190029FF150026FF009555
:100580000675088100C011241FBECFEFDAE0DEBF80
:10059000CDBF04B603FE27C080914D0290914E025C
:1005A000A0914F02B09150028730904BA740B04BC2
:1005B000D1F410924D0210924E0210924F021092FE
:1005C000500214BE84B7877F84BF0FB6F894A895F5
:1005D00080916000886180936000109260000FBE7F
:1005E000E0E0F8E3099511E0A0E0B1E0E2E7F1E531
:1005F00002C005900D92AC33B107D9F722E0ACE30D
:10060000B1E001C01D92AD34B207E1F70E94D922DA
:100610000C94B7280C9400000C946F0881E00895A6
:1006200081E008950C9410031F93CF93DF9300D0C3
:1006300000D01F92CDB7DEB749835A832091730152
:1006400089819A81211112C0662349F00E94C21942
:10065000182F682F89819A810E94671903C00E9410
:100660009619182F69817A81812F04C00E94C219BE
:1006700069817A810F900F900F900F900F90DF910A
:10068000CF911F910C94C905FC0140815181628179
:10069000738184810C9414030E94F21A811102C0A8
:1006A0000E94921B0C940C030C94710808950C94F6
:1006B00056030C94570308950E948D140E945B0307
:1006C0002FEF84E39CE0215080409040E1F700C090
:1006D00000000C94B31C0F931F93CF93DF938C01F6
:1006E0000E944403EC01B8010E941203882309F41C
:1006F00046C2B801CE010E94440D882309F43FC2CE
:10070000C83CFCE5DF0739F4F8018281811137C26A
:100710000E94020C34C2C93C8CE5D80708F0BCC169
:10072000C23CECE5DE0739F4F8018281811127C271
:100730000E94620C24C2C33CFCE5DF0708F067C1DD
:10074000C6318CE5D80708F038C1C230ECE5DE07C9
:1007500008F40FC1F8018281882309F411C10E94B5
:10076000F21A811102C00E94921B0E94051B9093F5
:100770003F0280933E02CF30FCE5DF0709F4CDC095
:1007800008F042C0C830ECE5DE0709F4A8C0F0F478
:10079000C4308CE5D80709F490C068F4C230FCE599
:1007A000DF0709F486C0C330DC4509F0D9C0809169
:1007B0003E028260D3C0C630ECE5DE0709F487C094
:1007C00008F089C080913E028860C8C0CB308CE5BB
:1007D000D80709F493C068F4C930FCE5DF0709F4D1
:1007E00082C0CA30DC4509F0BBC080913E028860FF
:1007F0007EC0CD30ECE5DE0709F484C008F085C08A
:1008000080913E028D7FAAC0C73F8CE5D80709F4CE
:1008100057C050F5C231FCE5DF0709F486C068F423
:10082000C031ECE5DE0709F47CC0C131DC4509F0DC
:1008300097C080913E028F7B91C0C4318CE5D80770
:1008400009F483C008F475C0C531DC4509F088C0DF
:1008500080913E0282FB222720F991E0922790FBB3
:1008600082F990FB83F97AC0CA3F8CE5D80709F476
:1008700050C058F4C83FFCE5DF0729F1C93FDC450B
:1008800009F06EC080913F025CC0CC3FECE5DE0712
:1008900009F454C070F1CD3FDC4509F061C080918E
:1008A0003F02982F909591708E7F892B90FB81F954
:1008B00049C080913E02816051C080913E0217C0C4
:1008C00080913F0219C080913F0282603BC08091BD
:1008D0003E02806143C080913E0280623FC08091B1
:1008E0003E0280643BC080913E02806837C08460D5
:1008F00035C080913F028260816024C080913E02B9
:100900008E7F2CC080913E0217C080913E02877F6F
:1009100025C080913F028D7F15C080913E028F7E61
:100920001DC080913E028F7D19C080913E028F775D
:1009300015C080913E02877F8B7F10C080913F025F
:100940008D7F8E7F80933F020BC080913E0287FB9C
:10095000222720F991E0922790FB87F980933E02AD
:1009600080913E0290913F020E94161B0E948D14BE
:1009700006C1C115FCE5DF0751F0C130DC4579F057
:10098000C801DF91CF911F910F910C940E03F801D4
:100990008281882309F4F3C00E945C03F0C0F8014F
:1009A0008281882309F4EBC08091EE01982F909505
:1009B00090FB80F98093EE01E2C0C631DC4501F77F
:1009C0000E94421A282FF801828140910B01509118
:1009D0000C01882379F02A7A91E009F490E0909351
:1009E0003C01911102C069E201C065E3CA010E94A5
:1009F000C61B0AC080913C01811102C069E201C09E
:100A000065E3CA010E94C81B0E948E1AB8C0C53C8B
:100A1000FCE5DF0739F4F80182818111B0C00E9442
:100A2000D70BADC0C63C8CE5D80700F5C33CECE560
:100A3000DE0761F4F8018281882309F4A0C00E94D6
:100A4000421A827281F00E94540C99C0C43CDC4569
:100A500009F096CFF8018281882309F490C00E94A2
:100A6000421A827281F30E94470C89C0C63C8CE511
:100A7000D80739F4F8018281811181C00E94E40B0A
:100A80007EC0C73CDC4509F07BCFF8018281811133
:100A900076C00E94F30B73C0C63DFCE5DF0708F08B
:100AA00042C0CE3C8CE5D80708F069C0CB3CECE5F1
:100AB000DE0741F4F8018281882309F460C00E94B6
:100AC000110B5DC0CC3CFCE5DF07B0F4C93C8CE504
:100AD000D80739F4F8018281811151C00E94110CAC
:100AE0004EC0CA3CDC4509F04BCFF8018281811130
:100AF00046C00E94200C43C0CC3CFCE5DF0739F423
:100B0000F80182818823D9F10E94220B38C0CD3CA4
:100B1000DC4509F035CFF8018281882381F181E03D
:100B20000E94570C2CC0CE3DECE5DE0739F4F801ED
:100B30008281882321F10E94921B21C0CF3DFCE5D8
:100B4000DF07B0F4CC3D8CE5D80731F4F8018281A1
:100B50008823A9F080E009C0CD3DDC4509F010CF25
:100B6000F8018281882359F082E00E94782307C02F
:100B7000CE01875F9C45079708F4ECCD01CF80E05C
:100B8000DF91CF911F910F91089580E090E008953B
:100B9000089597E0799FF001112496E4899FE00D74
:100BA000F11D1124E60FF11DEE0FFF1FE450FF4F62
:100BB000859194910895880F991FFC01E45DFC4F85
:100BC000859194910895CF93DF930E94C9050E9467
:100BD0009807EC01811520E59207F0F5811530E4C6
:100BE000930708F024C1883E910500F5803E9105E9
:100BF00008F09AC1883A910570F4853A910508F099
:100C00009FC08130910509F48FC108F440C1049759
:100C100008F08AC13CC18F3B910508F49CC0803C20
:100C2000910508F434C1805C9109F4C0811540E25B
:100C3000940758F4C11581E0D80708F075C1C03F8A
:100C4000D10508F424C1D0656FC1811520E3920756
:100C500008F0E4C09F70DEC0811535E5930708F009
:100C600044C0811544E5940708F0F8C0C11582E539
:100C7000D80708F5C11521E5D20708F0DBC08C2F95
:100C8000837021E030E002C0220F331F8A95E2F723
:100C90003C68CE0174E0969587957A95E1F783706C
:100CA000382BCF70C695C69580E2C89FE00111240D
:100CB000C22BD32B39C12C2F26952695CE018370BC
:100CC0009927C115D34508F0BAC040E2249F90018E
:100CD0001124C1E0D0E002C0CC0FDD1F8A95E2F7FD
:100CE0002C2B3D2BE901DC681FC1811549E59407D8
:100CF000A0F4C11588E5D80708F0B5C0C11526E5F0
:100D0000D20708F0C4C08C2F0E942C088F71C82F06
:100D1000D0E0DC2FCC27D06207C181153AE59307DC
:100D200008F4A6C090568115904208F0B0C08D2FEF
:100D30008F710E942C08DD27D0628F71D82BF4C0F0
:100D4000853A910509F4A6C0863A910509F0A5C037
:100D5000C2E8D0E4E9C0883A910509F4A1C0893A13
:100D6000910509F4A0C08A3A910509F49FC08B3A15
:100D7000910509F49EC08C3A910509F49DC08B3B06
:100D8000910509F49CC08C3B910509F49BC08D3AF8
:100D9000910509F49AC0803B910509F499C08E3AF7
:100DA000910509F498C08F3A910509F497C0813BE9
:100DB000910509F496C0823B910509F495C0833BE7
:100DC000910509F494C0843B910509F493C0853BD7
:100DD000910509F492C0863B910509F491C0873BC7
:100DE000910509F490C0883B910509F48FC0893BB7
:100DF000910509F48EC08D3B910509F48DC08E3BA1
:100E0000910509F48CC08A3B910509F48BC0C0E0C0
:100E1000D4E48AC00E94DB05EC0186C09927D3FF89
:100E200003C0EC01D86C80C0EC01D06C7DC0DF70D9
:100E3000D06A7AC0DC2FCC27C16FD06A75C040E27F
:100E4000249F90011124C1E0D0E002C0CC0FDD1F2F
:100E50008A95E2F7C22BD32BDA6866C0D82FCC274D
:100E6000C46FD06A61C0DC2FCC27C06FD06A5CC071
:100E70008F700E942C0894E0D695C7959A95E1F75B
:100E8000CF70D0E0DC2FCC27D069C82B4DC0C0E09C
:100E9000D0E04AC0C1E8D0E447C0C3E8D0E444C0D1
:100EA000C2EED4E441C0C9EED4E43EC0CAEED4E4FC
:100EB0003BC0C5EBD4E438C0C6EBD4E435C0C3EBCB
:100EC000D4E432C0C4EBD4E42FC0C7EBD4E42CC0CC
:100ED000CCECD4E429C0CDECD4E426C0C3E8D5E4FE
:100EE00023C0CAE8D5E420C0C2E9D5E41DC0C4E9E6
:100EF000D5E41AC0C1E2D6E417C0C3E2D6E414C0F8
:100F0000C4E2D6E411C0C5E2D6E40EC0C6E2D6E41F
:100F10000BC0C7E2D6E408C0CFE6D4E405C0C0E702
:100F2000D4E402C0CAE2D6E4CE01DF91CF910895A5
:100F30008238910569F1B0F48133910509F46DC0EF
:100F400048F48932910509F463C08A32910509F4A5
:100F500069C008958533910509F455C08933910519
:100F6000B9F00895833E910569F138F4803E91050A
:100F7000B1F0823E910509F10895863E9105A9F1EF
:100F8000873E9105B9F1843E910509F064C023C004
:100F900020913E0220FD4FC021FD4DC0089580915B
:100FA0003E0280FD44C080913F0280FF44C080919A
:100FB0003E0284FD42C083EE4DC080913E0282FF1E
:100FC00038C0F5CF80913E0282FD33C080913F0250
:100FD00080FD31C0ECCF80913F0281FF32C0809113
:100FE0003E0284FD2AC087EE35C080913E0283FF19
:100FF00026C0F5CF80913E0283FD21C080913F0243
:1010000081FD1FC0ECCF80913E0285FD1CC01DC03C
:1010100080913E0285FD19C016C080913E0286FD7A
:1010200016C017C080913E0286FD13C010C089E330
:1010300011C082EE0FC080EE0DC080E00BC086EEC6
:1010400009C084EE07C089E205C085E303C08AE2D7
:1010500001C081E390E0089590913E0292FF0DC09F
:10106000282F2871283019F4877F846006C0282F24
:101070002471243011F48B7F886093FF0DC0282FDA
:101080002871283119F4877E846106C0282F2471C5
:10109000243111F48B7E886120913F0220FF0DC026
:1010A000382F3871383019F4877F816006C0382FA7
:1010B0003171313011F48E7F886021FF0DC0282FEF
:1010C0002871283119F4877E816106C0282F21718B
:1010D000213111F48E7E886194FD877E08950895F4
:1010E00008950C9470080895E82FF0E0ED5BFE4F32
:1010F0008081089508958091EE01836088608093D7
:10110000EE018091000180910001811102C095E003
:1011100001C090E09093080285E0891B809307024C
:10112000A5E2B1E041E050E025E02A0F8D91E82FE3
:10113000E295EF70F0E031A18F70BA0102C0660F46
:10114000771F8A95E2F7CB01962F9095932391A371
:1011500092A1892B82A32A13E9CFAEE1B1E041E04D
:1011600050E027E02A0F8D91E82FE295EF70F0E034
:1011700031A18F70BA0102C0660F771F8A95E2F71E
:10118000CB01962F9095932391A392A1892B82A3B3
:101190002A13E9CFE3E4F1E08AE08E0F11928E1377
:1011A000FDCF85E00E9499090C944C037F928F92A9
:1011B0009F92AF92BF92CF92DF92EF92FF920F93E6
:1011C0001F93CF93DF9365E271E0AEE3B1E0812C32
:1011D00001E010E095E09A0F7D017C901C92EB01FC
:1011E0008991BE01E82FE295EF70F0E021A18F70A8
:1011F000A80101C0440F8A95EAF7822F842B81A3AE
:1012000022A1842F8095282322A3D0EADA95F1F732
:10121000CEE1AC2EC1E0BC2E20E030E0E50199909B
:101220005E01C92CC2945FE0C522D12CE601C8A0A2
:10123000D12CD92DDF7002C0D594C794DA95E2F78E
:10124000C0FC07C06801022E01C0CC0C0A94EAF76A
:1012500002C0C12CD12CDC90CD28CC922F5F3F4F07
:1012600027303105D9F621A1822381A382A1482B01
:1012700042A3119681E0F7012081721201C080E043
:10128000882A9A13A9CF6091080270E06D5B7E4FA7
:10129000282D45E08EE391E00E949A09882DDF9188
:1012A000CF911F910F91FF90EF90DF90CF90BF9063
:1012B000AF909F908F907F900895CF930E94D60813
:1012C000C82F0E94D009882339F120910702822F6C
:1012D00090E08D5B9E4F0E94060A811118C090918C
:1012E0003D019F5F90933D01963098F04091070239
:1012F00020E030E050E0F901E40FF51FED5BFE4F18
:1013000010822F5F3F4F25303105A9F702C01092A0
:101310003D010E9454030AC020910802822F90E0F0
:101320008D5B9E4F0E94210A0E9473088C2FCF91E3
:1013300008950895FF920F931F93CF93DF938C012D
:10134000F62ED72FC42F222349F081E080934F013E
:101350000E94571C90934E0180934D0180914F0144
:101360008823C1F080914D0190914E010E94631C31
:10137000069780F0EF2DFD2FD8014C2F50E0CD01C6
:10138000801B910B841795071CF48D918193F7CFE7
:1013900010924F01DF91CF911F910F91FF9008950F
:1013A00080915001811112C08091D800806180939A
:1013B000D8008AE18A95F1F700C08091D90080FDBC
:1013C00002C082E001C081E08093500181E09091F1
:1013D0005001913009F080E008950C94D0090E94EA
:1013E000ED09809300010E94D00981110C94FA0943
:1013F0000C94000A61E070E081E091E00C94E00D53
:1014000061E070E081E091E00C94E90DCF93DF930F
:10141000D82FC92F0E948C0E892B79F4ED2FFC2F29
:1014200080E090E0DC01AE5ABE4F2C9121930196F2
:1014300085309105B9F781E001C080E0DF91CF915F
:10144000089520E030E0FC014191CF01F901EE5A0E
:10145000FE4F40832F5F3F4F25303105A1F70895A0
:10146000CF92DF92EF92FF920F931F93CF93DF9370
:101470007B01282F382FE82FF0E0F11006C0E45D43
:10148000FC4F6491762F862F7BC00F2D10E046E035
:10149000649FC0011124CFEFD0E0BE010E9441281B
:1014A000AB016BEA6403C001659F900D11248E0DA2
:1014B000911D8E0D911D982F990F890FBE01601BF4
:1014C000710B6E9FD0016F9FB00D7E9FB00D1124E8
:1014D0009B2F8F9DB0011124672F77277E01E61A7D
:1014E000F70AEE9EB001EF9E700DFE9E700D112466
:1014F0006E01C81AD108C09E7001C19EF00CD09E2A
:10150000F00C11240F2D1127C01BD10BCE9F800191
:10151000CF9F100DDE9F100D1124812F42305105F9
:1015200091F04CF441155105E1F041305105B9F409
:10153000822F272F16C04430510569F044F0463001
:10154000510579F00CC0822F2B2F912F0AC02B2F21
:10155000932F872F06C08B2F922F212F02C08B2F06
:10156000972FE22FF0E0E45DFC4F7491E82FF0E05C
:10157000E45DFC4F6491E92FF0E0E45DFC4F849161
:10158000DF91CF911F910F91FF90EF90DF90CF905F
:101590000895CF93DF93762FE901682F842F0E945F
:1015A000300A798368838A83DF91CF91089580918F
:1015B0000902982F9695913021F081708260809376
:1015C0000902089588E090E00C947728CF93DF9388
:1015D00000D000D0CDB7DEB7AB01BC0149835A8340
:1015E0006B837C830E94D70A49815A816B817C81FD
:1015F00088E090E00F900F900F900F90DF91CF91C7
:101600000C949528E9E0F2E083E0808311828FEF6B
:1016100082838383148260817181828193810C949F
:10162000E60A80910D02833018F48F5F80930D02DB
:101630006091090270910A0280910B0290910C0254
:101640000C94E60A80910D02882319F08150809352
:101650000D026091090270910A0280910B02909133
:101660000C020C94E60A60910A0170E08091090274
:1016700080FF0AC08091580123E0829FC00111249D
:10168000825F9D4F0C94D40C809157019091090179
:10169000891780F7E82FF0E09F01220F331FE20F38
:1016A000F31FE25FFD4F1182108212828F5FF0CF35
:1016B000E9E0F2E080818E7F8083608171818281A8
:1016C00093810E94E60A2FEF80E792E0215080404C
:1016D0009040E1F700C000000C94330B9091090298
:1016E00090FF16C09091570120910901921770F454
:1016F000E92FF0E0DF01AA0FBB1FEA0FFB1FE25F3B
:10170000FD4F8183608342839F5FF0CF0C94330B46
:101710000895EF92FF920F931F93CF93DF9300D022
:101720001F92CDB7DEB79091090290FF2CC0E22E38
:10173000142F062FF82EE92FE695F0E0E15DFE4F1D
:10174000808180935A019E7F923059F49E012F5FD1
:101750003F4F8F2D0E94C90A4B8169818A810E9467
:101760006E0BF0920A0200930B0210930C02EE2013
:1017700051F06091090270910A0280910B029091E0
:101780000C020E94E60A0F900F900F90DF91CF910C
:101790001F910F91FF90EF900895E9E0F2E09181A1
:1017A000282F4381628188E0890F0C94890B81E0A6
:1017B0000C94CD0BE9E0F2E09181282F4381628106
:1017C00088EF890F0C94890B81E00C94DA0BE9E027
:1017D000F2E0628121E1620F08F46FEF282F43816C
:1017E00081810C94890B81E00C94E70BE9E0F2E035
:1017F000628121E1621B08F460E0282F438181812E
:101800000C94890B81E00C94F60BE9E0F2E0438143
:1018100021E1420F08F44FEF282F628181810C945F
:10182000890B81E00C94050CE9E0F2E0438121E1B1
:10183000421B08F440E0282F628181810C94890BBF
:1018400081E00C94140C20E00C94890B8091090227
:1018500080FF18C08170826080930902662351F076
:101860006091090270910A0280910B0290910C0222
:101870000E94E60A40910C0260910B0280910A02DC
:101880000C94230C0895682F81E00C94260C81E0C1
:101890000C94430C682F9091090296958FEF890F55
:1018A00009F481E00C94260C81E00C944A0C61E070
:1018B0000C94260CE9E0F2E08081816080838695BB
:1018C0000C94570C8091090280FD0C94580B0C94D9
:1018D0005A0C60E00C94260C80915901811131C0A2
:1018E0008091EE0181608093EE010E94F21A8111D5
:1018F00004C00E94921B0E94020B0E94E20A6093A5
:10190000090270930A0280930B0290930C026E7F7F
:1019100061F40E94020B0E94E20A60930902709334
:101920000A0280930B0290930C020E94D70A8091C6
:10193000090280FF03C086950E94690C81E08093B4
:10194000590108952BB1342F309523233BB1432BFC
:101950003FB7F894FC01680F791FE617F70789F085
:10196000819198E04BB9000000C087FF2BB9880F28
:10197000000000C000C000C02BB900C09A9591F7CC
:10198000ECCF3FBF08952AB1242B2AB99B01220F27
:10199000331F620F731F0E94A20C87EC90E0019727
:1019A000F1F700C00000089548E00C94C30C0F93B9
:1019B0001F93CF93DF93C62FD42F022FFC01828178
:1019C0008823C9F060935E010E94571C90935D01CB
:1019D00080935C0180E28C0F883008F050C0C770A3
:1019E00081E001C0880FCA95EAF7DF91CF911F917E
:1019F0000F910C94DC1110915E01161330C0809190
:101A00005C0190915D010E94631C883C910538F552
:101A1000C0E2CD0F1D17B9F080E2810F883040F48D
:101A2000177081E001C0880F1A95EAF70E94E31150
:101A3000C83048F481E09D2F977001C0880F9A95B7
:101A4000EAF70E94DC11802F0E94C911C830B8F457
:101A5000D77081E001C0880FDA95EAF70AC080E20A
:101A60008C0F883060F4C77081E001C0880FCA9580
:101A7000EAF7DF91CF911F910F910C94E311DF9161
:101A8000CF911F910F9108959C01CB01203F4CE510
:101A90003407F9F078F4283DFCE53F07B9F0293D1B
:101AA0004CE5340711F1273D3C4531F526E241EE86
:101AB00061EE1EC0223FFCE53F0799F070F0233F26
:101AC0003C45D1F427E245EE66EE12C027E245EE32
:101AD0000EC026E241EE60EE0BC027E245EE64EE5A
:101AE00007C026E241EE62EE03C028E241E065EE67
:101AF0000E94D70C80E00895FC018281882319F0B0
:101B000010925E01089581E008958EE1489B02C025
:101B10008150E1F7489BFECF0895589880E28A955E
:101B2000F1F7589A0895FC013AE03A95F1F798E0F8
:101B300020E080E031E040E14A95F1F7880F489BD2
:101B400002C08160232700C0000040E14A95F1F700
:101B5000915089F790E19A95F1F799B100C0000092
:101B600030E13A95F1F7917092272081920F90839E
:101B70000895FF920F931F93CF93DF9300D0CDB7BB
:101B8000DEB71982F82E8C01802F8F19861760F42A
:101B90006A830E94850DCE0101960E94930DF80183
:101BA00081938F016A81F0CF81E09981911180E06A
:101BB0000F900F90DF91CF911F910F91FF9008959B
:101BC000909361018093600160935F01509A589AED
:101BD0000895909361018093600160935F01509834
:101BE000589AE89AE9E6F0E080818C7F8083089536
:101BF000615091E001C0990F6A95EAF720E031E069
:101C0000992361F0492F482319F0589A232701C0DE
:101C1000589840E24A95F1F79695F2CF222311F0B9
:101C2000589A01C0589880E28A95F1F7589808951B
:101C3000EF92FF920F931F93CF93DF931F92CDB735
:101C4000DEB7162F082F7C018E2D801B811758F4CC
:101C5000F70181917F0189830E948D0D68E0898160
:101C60000E94F80DF1CF0F90DF91CF911F910F914E
:101C7000FF90EF9008951F920F920FB60F921124CC
:101C80002F933F934F935F936F937F938F939F9384
:101C9000AF93BF93CF93DF93EF93FF935898509AEE
:101CA000C0916001D09161016D81662321F08E8128
:101CB0009F810E94180E0E948D0D80E18A95F1F798
:101CC00058985098589A80E18A95F1F76A8166236E
:101CD00051F08B819C810E94B90DE881F9818111BD
:101CE00004C082E003C0E881F98188E080830E941B
:101CF000850DFF91EF91DF91CF91BF91AF919F91B2
:101D00008F917F916F915F914F913F912F910F90A4
:101D10000FBE0F901F901895CF93DF93C091600175
:101D2000D0916101F894509A589885E08A95F1F71E
:101D300000005098589A80E28A95F1F7489B0AC0B3
:101D4000509A589AE881F98181E08083789481E003
:101D500090E02CC06D81662381F08E819F810E946E
:101D6000B90D81110AC0509A589AE881F98182E030
:101D70008083789482E090E019C00E94850D80E213
:101D80008A95F1F75898509A80E18A95F1F76A811F
:101D9000662321F08B819C810E94180E0E948D0D7C
:101DA000E881F9811082789480E090E0DF91CF9112
:101DB000089590936701809366010895E09166010C
:101DC000F0916701309721F00190F081E02D0994A6
:101DD00080E00895E0916601F0916701309721F06D
:101DE0000280F381E02D09940895E0916601F0915D
:101DF0006701309739F022E0DC012C930480F581F3
:101E0000E02D0994089520916401309165018217B5
:101E1000930771F09093650180936401E0916601EE
:101E2000F0916701309721F00680F781E02D099449
:101E3000089520916201309163018217930771F038
:101E40009093630180936201E0916601F0916701D4
:101E5000309721F00084F185E02D0994089585B72D
:101E6000806885BF85B7806885BF089508950C9404
:101E7000360F08950C94390F0E942F0F0E94EF091E
:101E80000C94370F0E944E1C0E947B080E94D71CA6
:101E90000E946C0C0C943A0FCF92DF92EF92FF925B
:101EA0000F931F93CF93DF93CDB7DEB72B970FB66A
:101EB000F894DEBF0FBECDBF0E945D090E94D0091D
:101EC000811111C08FEF89838A831B820E94571C66
:101ED0008160782F9D838C8349815A816B818D81AC
:101EE0000E94F40F56C089E6C82E81E0D82E00E08B
:101EF00010E0E02E802F0E947408F60141916F01DE
:101F0000F42EF82631F40F5F1F4F0A30110589F7C0
:101F1000D9CF9091EE0191FF04C08B870E947A087F
:101F20008B8520E030E04F2D50E0922FBA01022E39
:101F300002C0759567950A94E2F760FF24C02E836E
:101F4000EF8221E030E0690102C0CC0CDD1C9A95E3
:101F5000E2F790E08C219D21892B09F420E028876D
:101F60000E94571C8160782F9A8789874E815F81F4
:101F700068858A850E94F40FF801E759FE4F808139
:101F8000C826C08206C02F5F3F4F2730310569F653
:101F9000BACF0E94691E109168010E94DE0E1817C8
:101FA000A1F00E94DE0E809368012B960FB6F89484
:101FB000DEBF0FBECDBFDF91CF911F910F91FF907C
:101FC000EF90DF90CF900C9459032B960FB6F894B6
:101FD000DEBF0FBECDBFDF91CF911F910F91FF905C
:101FE000EF90DF90CF900895CF93DF93CDB7DEB71A
:101FF0002B970FB6F894DEBF0FBECDBF4F83588727
:1020000069877A878B87DE01119686E0FD01119240
:102010008A95E9F785E0FE01379601900D928A9541
:10202000E1F749815A816B817C818D819E810E947B
:1020300037172B960FB6F894DEBF0FBECDBFDF91DA
:10204000CF910895FC01808191810E94031A089527
:10205000CF93DF931F92CDB7DEB7882309F42DC14C
:10206000682F8238C1F40E94DE0E81FD26C169E32B
:1020700080910B0190910C010E94C61B0E948E1A48
:102080002FEF81EE94E0215080409040E1F700C0B6
:10209000000069E319C0833811F50E94DE0E80FD4F
:1020A0000CC163E580910B0190910C010E94C61B4D
:1020B0000E948E1A2FEF81EE94E0215080409040D4
:1020C000E1F700C0000063E580910B0190910C01E5
:1020D0000E94C81B0F90DF91CF910C948E1A843808
:1020E000C1F40E94DE0E82FDE8C067E480910B011E
:1020F00090910C010E94C61B0E948E1A2FEF81EE58
:1021000094E0215080409040E1F700C0000067E477
:10211000DBCF8CEF860F813A70F4862F69830E94A3
:102120009A2069818111C9C080910B0190910C01A5
:102130000E94C61BCFCF80E2860F883048F46770BC
:1021400081E001C0880F6A95EAF70E94451AC2CF64
:102150008BE5860F833088F4653A29F0663A31F0D2
:1021600083E890E005C081E890E002C082E890E05A
:102170000F90DF91CF910C94030F88E5860F873184
:1021800008F091C0683A09F445C0693A09F445C0BD
:102190006A3A09F445C06B3A09F445C06C3A09F44F
:1021A00045C06B3B09F445C06C3B09F445C06D3A32
:1021B00009F445C0603B09F445C06E3A09F445C0D6
:1021C0006F3A09F445C0613B09F445C0623B09F42C
:1021D00045C0633B09F445C0643B09F445C0653B19
:1021E00009F445C0663B09F445C0673B09F445C0A6
:1021F000683B09F445C0693B09F445C06D3B09F4EF
:1022000045C06E3B09F445C06A3B09F445C080E017
:1022100090E044C082EE90E041C089EE90E03EC084
:102220008AEE90E03BC085EB90E038C086EB90E012
:1022300035C083EB90E032C084EB90E02FC087EB99
:1022400090E02CC08CEC90E029C08DEC90E026C092
:1022500083E891E023C08AE891E020C082E991E020
:102260001DC084E991E01AC081E292E017C083E2C8
:1022700092E014C084E292E011C085E292E00EC0C8
:1022800086E292E00BC087E292E008C08FE690E021
:1022900005C080E790E002C08AE292E00F90DF91F3
:1022A000CF910C94190F603F40F0862F0E94711D52
:1022B0000F90DF91CF910C945E1E0F90DF91CF9124
:1022C0000895882309F464C0823879F40E94DE0EF0
:1022D00081FF5EC069E380910B0190910C010E9427
:1022E000C61B0E948E1A69E310C08338B1F40E94A5
:1022F000DE0E80FF4DC063E580910B0190910C01D3
:102300000E94C61B0E948E1A63E580910B0190917A
:102310000C010E94C81B0C948E1A843879F40E9418
:10232000DE0E82FF35C067E480910B0190910C01B5
:102330000E94C61B0E948E1A67E4E7CF9CEF980F9D
:10234000913A10F4682FE1CF90E2980F983050F452
:10235000877091E001C0990F8A95EAF7892F0E9452
:102360004B1AD9CF9BE5980F933020F480E090E092
:102370000C94030F98E5980F973120F480E090E0DB
:102380000C94190F803F20F00E94D91D0C945E1E02
:102390000895CF93C82F0E942810C93349F42FEF16
:1023A00087EE93E0215080409040E1F700C00000AC
:1023B0008C2FCF910C946111882321F00E94451A33
:1023C0000C948E1A0895882321F00E944B1A0C94C5
:1023D0008E1A0895BF92CF92DF92EF92FF920F93E1
:1023E0001F93CF93DF937C01062FC72FFC0115812C
:1023F00012951F70D281D1110E94621A0E943B1A5D
:10240000882379F0DD2369F080E2800F883048F07E
:1024100082E00E94D91A0E943B1A91E0B82EB92698
:1024200001C0B12CCC2EC2948FE0C822D12CF60171
:10243000EA5AFF4F0C9469288C2F807FCF70882335
:1024400011F0C295C07FDD2399F0CC2309F4CEC1F1
:1024500080E2800F883010F0011104C08C2F0E94A0
:10246000451A03C08C2F0E94551A0E948E1ABEC1B5
:10247000802F0E946111CC2309F4DDC180E2800F1E
:10248000883010F0011104C08C2F0E944B1A03C039
:102490008C2F0E945B1A0E948E1ACDC18C2F807FD8
:1024A000CF70803211F0C295C07F002319F0013047
:1024B000C9F022C0DD2371F0112341F0113031F455
:1024C0000E94751A8C2B0E947B1AB5C10E94751A46
:1024D0008C2B1DC0112319F0113009F4ACC10E94DE
:1024E000841A25C0DD2321F0163008F0A4C10EC0E7
:1024F000153008F0A0C11BC0DD2361F0112331F0BD
:10250000F701858180FF72C18F7085838C2F0E94B7
:10251000DC1191C1112359F0093309F078C1FFEFA3
:1025200027EE83E0F15020408040E1F76EC18C2F10
:102530000E94E31180C18C2F86958695837090E070
:10254000009719F0019761F076C1DD2321F0802F0B
:102550009C2F937002C080E090E00E94030F76C130
:10256000DD2321F0802F9C2F937002C080E090E04B
:102570000E94190F6BC1DD23F9F0053F51F0063FB2
:1025800071F0043FA9F48091380290913902816082
:102590000BC08091380290913902826005C0809111
:1025A0003802909139028460909339028093380206
:1025B000802F0E94711D1EC0053F51F0063F71F033
:1025C000043FA9F480913802909139028E7F0BC0AC
:1025D00080913802909139028D7F05C08091380238
:1025E000909139028B7F9093390280933802802F2B
:1025F0000E94D91D0E945E1E29C18C2F837009F094
:1026000049C0D1111FC1402F429546954770440FD4
:10261000440F602F6F70862F90E0A0E0B0E0042E92
:1026200004C0880F991FAA1FBB1F0A94D2F704FF8A
:1026300010C00FE010E020E030E004C0000F111FD8
:10264000221F331F4A95D2F700951095209530959B
:1026500003C000E010E09801C695C695C370D0E0B5
:10266000BC01CD01602B712B822B932BC230D10585
:1026700059F0C330D10559F0219719F00E947C1808
:10268000E1C00E946A18DEC00E948E18DBC00E9462
:102690006818D8C0DD2319F08C2F817001C0869591
:1026A000882309F4CFC0402F429546954770440FC8
:1026B000440F602F6F70862F90E0A0E0B0E0042EF2
:1026C00004C0880F991FAA1FBB1F0A94D2F704FFEA
:1026D00010C00FE010E020E030E004C0000F111F38
:1026E000221F331F4A95D2F70095109520953095FB
:1026F00003C000E010E09801C695C695C370D0E015
:10270000BC01CD01602B712B822B932BC230D105E4
:1027100059F0C330D10559F0219719F00E944219A0
:1027200091C00E9430198EC00E9454198BC00E9423
:10273000A31888C0CF70DD2339F08C2F0E94C918F0
:10274000802F0E94DC117EC0802F0E94E3118C2F0D
:102750000E94EA1877C0023F01F128F4003F41F0DF
:10276000013FA1F03FC0033FF9F0043F39F13AC007
:10277000DD2341F0153008F05EC08C2F8F710E9470
:102780000F1959C0163008F056C0F7CFDD2339F0C5
:102790008C2F8F710E94C9184EC0DD23C9F38C2F76
:1027A0008F710E94EA1847C0DD2329F08C2F8F71AA
:1027B0000E94B41840C00E94AF183DC0DD2349F00C
:1027C000CF718C2F0E94C91863E08C2F0E94C41A0D
:1027D00032C081E00E94D91A123068F182E00E9472
:1027E000D91A29C0DD2331F0112391F2802F0E94E4
:1027F000281021C0112399F2093349F49FEFE7EE25
:10280000F3E09150E040F040E1F700C00000802F7D
:102810000E94611110C04C2F4F70602FC7010E94A1
:10282000C5050E94DB1712C04C2F4F70602FC701E7
:102830000E94C8050BC028E0C21AD10884E0C8165F
:10284000D10420F40E94DE0E0E945903BB20D1F077
:102850000E94371A80FD16C0F70112820E94311AB9
:102860000E94C918C7010E944C140E94311ADF91BE
:10287000CF911F910F91FF90EF90DF90CF90BF907D
:102880000C94EA18DF91CF911F910F91FF90EF9078
:10289000DF90CF90BF9008950F931F93CF93DF9356
:1028A000EC01888199812B813C81232BB9F09F3FDA
:1028B00011F48F3F99F0CE010E946B03882371F0D1
:1028C000688179818A810E940E1A8C010E946619A2
:1028D0000E946718B801CE010E94EA11DF91CF91E2
:1028E0001F910F9108950E94621A0E94721A0E940D
:1028F0008E1A0E94041F0E945E1E80E090E00E94DB
:10290000030F80E090E00C94190F80910B019091DF
:102910000C010E94CA1B0C9473140E94521A0C944E
:102920008514E92FE295EF70F0E03297EE30F10573
:10293000B0F4EA59FF4F0C946928803F91F018F4E5
:10294000883E68F40EC0843F51F40BC0883E48F0C6
:10295000813F29F406C093FB882780F9089580E021
:10296000089581E008950E94031A0E949114089529
:10297000CF93DF9300D000D01F92CDB7DEB70F907A
:102980000F900F900F900F90DF91CF910895CF93FC
:10299000DF9300D000D000D0CDB7DEB726960FB6BB
:1029A000F894DEBF0FBECDBFDF91CF9108951F9386
:1029B000CF93DF93C091740116E080917501C81721
:1029C00099F0D0E01C9FF0011D9FF00D1124EA58F2
:1029D000FE4F4081518162817381848195810E9483
:1029E000C7142196C770E9CFDF91CF911F91089549
:1029F0004091A6015091A7016091A8017091A90191
:102A00008091AA019091AB010C94C7148091AB0105
:102A100082958F7009F054C08091A801882309F431
:102A20004FC080917401A09175016091A6017091D1
:102A3000A7014091A9015091AA01B6E08A1709F4B3
:102A40003FC090E041155105C1F17F3F11F46F3F48
:102A5000A1F1B89FF001B99FF00D1124EA58FE4F83
:102A6000218172132AC02081621327C02281211183
:102A700024C0238134812417350710F421503109F3
:102A8000241B350B283C3105C0F42091AB012F707D
:102A900020612093AB0126E0289FF001299FF00DD3
:102AA0001124E558FE4F80818F708061808386EA13
:102AB00091E00E944C140C94D71401968770BECFFD
:102AC0000895CF92DF92EF92FF920F931F93CF93CF
:102AD000DF93CDB7DEB762970FB6F894DEBF0FBEB7
:102AE000CDBF8C0185E0F801DE011D9601900D92AD
:102AF0008A95E1F7D8014C9111965C911197129645
:102B00006C9112971396CD90DC9014973091A6019A
:102B10007091A7018091A9019091AA01009709F4F1
:102B20006BC17F3F19F43F3F09F466C1E090A801F3
:102B3000EE2009F4C0C02091AB01C816D90628F0D8
:102B4000F601E81BF90BCF0104C0809590958C0D20
:102B50009D1DFF24F394883C910578F0F12C207F93
:102B600009F0C6C07C2DD98AC88A89890E94B81408
:102B700086EA91E00E944C14B1C0822F807F09F058
:102B800046C0751314C0341312C0611110C02F70E9
:102B900020612093AB010E94F81486EA91E00E9424
:102BA0004C148091AB01D80115968C932EC0CD2882
:102BB00019F15F3F11F44F3FF9F0F62E61111CC07F
:102BC000809174012091750136E0821709F45AC092
:102BD00090E0389FF001399FF00D1124EA58FE4F24
:102BE0007181571306C07081471303C07281711140
:102BF00003C001968770E9CFF62E662309F427C13A
:102C00008091AB0181608093AB01F12C20C17513E1
:102C100008C0341306C0611104C08091AB01D80113
:102C2000C3C04D875E878D859E856A8B0E94B314D5
:102C30006A898823E1F16623D1F12091AB01822FCB
:102C400082958F7090E0029774F08091A601909128
:102C5000A70198878F831986DB86CA862C87CE01C9
:102C600007960E944C1486E0F801A6EAB1E00190B4
:102C70000D928A95E1F70E9406150E94F814FF2430
:102C8000F394E5C04D875E878D859E850E94031A6B
:102C9000292F22952F7030E0223031050CF0CBC067
:102CA0009F7009F0C5C0805E883008F4D0C0C801AC
:102CB0000E944C14E4CFC816D90608F453C0F6019C
:102CC000E81BF90BCF01883C910508F450C0F12CAA
:102CD0007C2DD98AC88A89890E94B814E6EAF1E075
:102CE00086E0DF011D928A95E9F70E94F814AFC0D3
:102CF000751314C0341312C0611110C08091AB0160
:102D0000F8018583C8010E944C1486E0E6EAF1E0F0
:102D1000DF011D928A95E9F7FE2C99C04D875E87E9
:102D20008D859E856A8B0E94B3146A89882309F475
:102D3000BECF662309F4BBCF2091AB01822F8295D1
:102D40008F7090E002970CF48ECF8091A601909145
:102D5000A7019A8389831B82DD82CC822E83CE01D8
:102D600001967FCF809590958C0D9D1DACCFF62E52
:102D7000662309F49CCF75132EC034132CC0209108
:102D8000AB0120FD1FC0822F82958F70D9F0D80132
:102D900015962C9315978F3049F08F5F982F929549
:102DA000907F822F8F70892B15968C93C8010E947B
:102DB0004C1486E0F801A6EAB1E001900D928A95E4
:102DC000E1F793CF86E0F801A6EAB1E001900D9219
:102DD0008A95E1F73CC04D875E878D859E850E9470
:102DE000B314811140CF8091AB0181608093AB011E
:102DF000C8010E944C142BC0662309F458CF4D879C
:102E00005E878D859E850E94B314F82E882309F471
:102E10004ECF86E0F801A6EAB1E001900D928A95C6
:102E2000E1F786EA91E00E9422100E9406155DCF2C
:102E3000811139CF0CC0243031050CF038CF9F7090
:102E400009F431CFF8019581907F09F02CCF8F2DB7
:102E500062960FB6F894DEBF0FBECDBFDF91CF9163
:102E60001F910F91FF90EF90DF90CF9008951F93E7
:102E7000CF93DF93CDB7DEB72C970FB6F894DEBFB4
:102E80000FBECDBF4F83588769877A878B879C8712
:102E9000CE0107960E946115882369F08F8198857D
:102EA0002A853B85232BF1F19F3F09F063C08F3FBB
:102EB00009F060C037C086E0FE013796DE0111964A
:102EC00001900D928A95E1F76F817885EA85FB85FF
:102ED000309741F17F3F11F46F3F21F1209175014F
:102EE00030E0C9010196877099274091740150E044
:102EF0008417950709F447C069837A83FD83EC83BF
:102F000096E0929FD001939FB00D1124AA58BE4F16
:102F1000FE01319601900D929A95E1F7809375012B
:102F20000E94D71416E08091740190917501891761
:102F3000C1F1189FC00111248A589E4F0E9461154B
:102F4000882379F1E09174011E9FF0011124EA5861
:102F5000FE4F4081518162817381848195810E94FD
:102F6000C7148091740190E001968770992780932F
:102F70007401D9CF4F81588569857A858B859C8569
:102F80000E94C714CFCF0E948D1410927501109229
:102F90007401E6EAF1E086E0DF011D928A95E9F727
:102FA000C1CF2C960FB6F894DEBF0FBECDBFDF9118
:102FB000CF911F910895EF92FF920F931F93CF939C
:102FC000DF938C01892B09F46CC0F12CEE24E3947F
:102FD000E8012196F8018491843740F4843008F0A8
:102FE00051C0813081F0823019F15BC0853709F41E
:102FF00044C0A8F19CE7980F903708F052C08F7733
:103000000E94611141C00E5F1F4FFE01C49180E21A
:103010008C0F883048F4C7708E2D01C0880FCA9578
:10302000EAF70E94651A14C08C2F0E9428102DC048
:103030000E5F1F4FFE01C49180E28C0F883058F460
:10304000C7708E2D01C0880FCA95EAF70E946B1ACF
:103050000E948E1A1AC08C2F0E94611116C00E5F3A
:103060001F4FFE01C491CC2381F08FE99FE00197AF
:10307000F1F700C00000C150F6CF0E5F1F4FFE01F8
:10308000F49003C00E9428108E018F2D882309F42C
:103090009FCFEFE9FFE03197F1F700C000008150CA
:1030A000F5CFDF91CF911F910F91FF90EF90089591
:1030B00008950C9458180E9459186093DD0170937C
:1030C000DE018093DF019093E0010C947314089566
:1030D0000C945B180F931F930091DD011091DE019A
:1030E0002091DF013091E001602B712B822B932B1B
:1030F0001F910F910C945B180F931F930091DD01AA
:103100001091DE012091DF013091E00160237123F5
:10311000822393231F910F910C945B180F931F939D
:103120000091DD011091DE012091DF013091E0017D
:1031300060277127822793271F910F910C945B18AA
:1031400008950C94A0180E94A1186093D90170935F
:10315000DA018093DB019093DC010C94731460E03E
:1031600070E0CB010C94A3180F931F9341E050E043
:1031700060E070E08A019B0104C0000F111F221F54
:10318000331F8A95D2F7C901B8011F910F910C9492
:10319000A3180F931F9341E050E060E070E004C07B
:1031A000440F551F661F771F8A95D2F78091D9016A
:1031B0009091DA01A091DB01B091DC018A019B01C1
:1031C000082B192B2A2B3B2BC901B8011F910F91FA
:1031D0000C94A3180F931F9341E050E060E070E05F
:1031E00004C0440F551F661F771F8A95D2F740957C
:1031F0005095609570958091D9019091DA01A091D8
:10320000DB01B091DC018A019B01082319232A23E9
:103210003B23C901B8011F910F910C94A3180F9380
:103220001F9341E050E060E070E004C0440F551F80
:10323000661F771F8A95D2F78091D9019091DA01A4
:10324000A091DB01B091DC018A019B0108271927BD
:103250002A273B27C901B8011F910F910C94A3188D
:103260000F931F930091D9011091DA012091DB0196
:103270003091DC01602B712B822B932B1F910F91CE
:103280000C94A3180F931F930091D9011091DA01A8
:103290002091DB013091DC01602371238223932391
:1032A0001F910F910C94A3180F931F930091D901B4
:1032B0001091DA012091DB013091DC016027712748
:1032C000822793271F910F910C94A318089527E04C
:1032D000929F800D1124A82FA695A695A69587707C
:1032E00051E001C0550F8A95EAF785E0A89FD0010B
:1032F000112420E030E070E0F901EA0FFB1FE455F3
:10330000FE4F4081CB01022E02C0969587950A940C
:10331000E2F781709927819584278523842780830C
:103320002F5F3F4F2530310539F7089527E0929FF1
:10333000800D1124682F669566956695982F977075
:1033400085E0689FB001112440E050E080E0FA0180
:10335000E60FF71FE455FE4F208130E0092E02C032
:10336000369527950A94E2F721703327042E01C081
:10337000220F0A94EAF7822B4F5F5F4F45305105C9
:1033800031F70895BF92CF92DF92EF92FF920F93A1
:103390001F93CF93DF938C01C090DD01D090DE01AD
:1033A000E090DF01F090E0018091D9019091DA0185
:1033B000A091DB01B091DC01C82AD92AEA2AFB2AB4
:1033C000CFE1D0E0D701C6010C2E04C0B695A79579
:1033D000979587950A94D2F780FF07C0BC2EB80155
:1033E0008C2F0E94E305019719F4219758F7B12C0F
:1033F0008B2DDF91CF911F910F91FF90EF90DF9078
:10340000CF90BF900895CF93DF93EC010E94C21933
:10341000BE010E94E305DF91CF9108951F93CF93E2
:10342000DF93EB0190917301992321F0CB010E946E
:10343000031A13C0882349F0CB010E94C219182F28
:10344000682FCE010E94671904C0CB010E94961913
:10345000182FBE01812F0E94E305DF91CF911F91AC
:1034600008958091E10185958595859508958091D0
:10347000E101877008959091E101977081E009F46E
:1034800080E008958091ED0108959091ED01892BE0
:103490008093ED01089580959091ED0189238093AB
:1034A000ED0108951092ED0108959091EC01892BA2
:1034B0008093EC01089580959091EC01892380938D
:1034C000EC0108951092EC0108959091EB01892B85
:1034D0008093EB01089580959091EB01892380936F
:1034E000EB0108951092EB0108958091E201089597
:1034F00008950C94781A9091E201981721F0809326
:10350000E2010C94791A08958091E201882329F050
:103510001092E20180E00C94791A0895E0910B0179
:10352000F0910C018091ED018083E0910B01F0910D
:103530000C0190818091EC01892B8083E0910B013B
:10354000F0910C0190818091EB01892B8083809117
:10355000E201882381F0E0910B01F0910C01908150
:10356000892B808380910B0190910C010E94941B08
:1035700081110E94841A80910B0190910C010C948E
:10358000EA0E08950C94C11A98E0899F90011124C5
:10359000262B2093E1010E94C9188091E1018595B5
:1035A000859585950C94C21A1092E10180E00C94E7
:1035B000C21A2091E101809582238093E101982F26
:1035C000977079F430E0482F082E000C550B241723
:1035D000350739F08595859585950E94EA180C94F4
:1035E000D41A089580E090E00E947D2821E08D3E6D
:1035F0009E4F09F020E0822F089582E090E00C9425
:103600006F2883E090E00C946F28CF9384E090E0E3
:103610000E946F28C82F81E290E00E946F282C2F13
:1036200030E0A901582BCA01CF910895CF93C92F3B
:10363000682F84E090E00E9483286C2F81E290E064
:10364000CF910C948328AB01BC018FE090E00C94E7
:103650009528AB01BC0183E190E00C94952860E0D3
:1036600070E0CB010C94291B60E070E0CB010E945C
:10367000231B0C942F1B6DEE7EEF80E090E00E94E8
:10368000A12860E082E090E00E94832860E083E06F
:1036900090E00E9483281092DD011092DE011092CA
:1036A000DF011092E00160E084E090E00E94832856
:1036B00060E081E290E00E94832860E085E090E095
:1036C0000E94832860E086E090E00E9483286FEFEC
:1036D00087E090E00E94832840E050E0BA0188E053
:1036E00090E00E94952860E08DE090E00E948328A1
:1036F00040E050E0BA0188E190E00E94952860E047
:1037000087E190E00E94832840E050E0BA018CE11C
:1037100090E00E94952860E080E290E00E9483287B
:103720000C94341B0C943B1BFC01329697E080E018
:10373000915029F021912223D9F38F5FF9CF089579
:103740009C01FC0132969FEF80E04191461789F081
:103750009F3F19F4411101C0982F8F5F8630A9F760
:103760009F3F39F0F901E90FF11D97FDFA9562834A
:1037700008950895FC01329608962081261301C011
:1037800010823196E817F907C1F708950C94A01B31
:103790000C94BA1B029626E0FC0111922A95E9F7D7
:1037A000089508950C94D11B0E94D21B809144026D
:1037B000843049F11092EF0120E488E190E00FB6E7
:1037C000F894A895809360000FBE2093600080E07D
:1037D0000E9459030E94D21B83B7817F846083BFFC
:1037E00083B7816083BF7894889583B78E7F83BFCA
:1037F0000FB6F894A895809160008861809360006E
:10380000109260000FBE089508950895CF930E940E
:10381000041C0E945D090E94051CC0E08C2F0E94C0
:103820007408811104C0CF5FCA30C1F701C081E0C4
:10383000CF91089508950C941A1C0E948D140E9433
:10384000DE0E0E9459030C941B1C1F920F920FB6A0
:103850000F9211248F939F93AF93BF938091EF01A9
:10386000811113C080913A0290913B02A0913C02D9
:10387000B0913D024196A11DB11D80933A029093F3
:103880003B02A0933C02B0933D02BF91AF919F9148
:103890008F910F900FBE0F901F90189582E084BDFE
:1038A00093E095BD9AEF97BD80936E0008952FB772
:1038B000F89480913A0290913B02A0913C02B09121
:1038C0003D022FBF0895CF92DF92EF92FF920F93A8
:1038D0001F932FB7F89440913A0250913B026091A8
:1038E0003C0270913D022FBF6A017B01EE24FF2450
:1038F0008C0120E030E0C016D106E206F30610F499
:10390000415051099A01281B390BC9011F910F9190
:10391000FF90EF90DF90CF90089578941F920F92D0
:103920000FB60F9211248F939F93AF93BF93809103
:103930003A0290913B02A0913C02B0913D02019667
:10394000A11DB11D80933A0290933B02A0933C02CB
:10395000B0933D02BF91AF919F918F910F900FBE99
:103960000F901F90189581E08093E00080E2809393
:10397000D8001092C9008FE19EE40197F1F700C0D2
:10398000000087E090EBDC0180934D0290934E02A3
:10399000A0934F02B09350029CE088E10FB6F894D8
:1039A000A895809360000FBE90936000FFCF0E94A7
:1039B000F21A811102C00E94921B0E94FD1A80938C
:1039C000EE010E94051B90933F0280933E020E94ED
:1039D000011B682F70E080E090E00C9468188091E3
:1039E000F30180FF0BC06091100185E0689FB0017A
:1039F000112475956795759567952BC081FF09C052
:103A00006091100185E0689FB0011124759567955C
:103A100020C082FF07C06091100185E0689FB0015F
:103A2000112417C09091F2019923D1F060910F01F8
:103A3000961788F72091100185E0289F90011124A6
:103A4000929FA001939F500D112470E0CA010E9423
:103A500055286038710540F46115710539F002C0D0
:103A600065E070E0862F08958FE7089581E008955E
:103A70008091F30180FF08C060910E0170E07595A0
:103A800067957595679521C081FF06C060910E010D
:103A900070E07595679519C082FF04C060910E01B2
:103AA00070E010C09091F2019923C1F060910D0176
:103AB0009617A0F780910E01899FC001112470E034
:103AC0000E9455286038710528F46115710521F0B0
:103AD000862F08958FE7089581E0089561E070E0F2
:103AE000F4CF803F21F40E94EF1C819504C0813FF8
:103AF00029F40E94EF1C8093F7010895823F21F47E
:103B00000E94EF1C819504C0833F29F40E94EF1CA2
:103B10008093F6010895893F19F40E94381D05C06D
:103B20008A3F31F40E94381D81958093F8010895F1
:103B30008B3F21F40E94381D819504C08C3F29F4ED
:103B40000E94381D8093F9010895843F21F48091EB
:103B5000F501816017C0853F21F48091F5018260F5
:103B600011C0863F21F48091F50184600BC0873F2E
:103B700021F48091F501886005C0883F31F480917F
:103B8000F50180618093F50108958D3F21F48091C6
:103B9000F30181600BC08E3F21F48091F3018260BC
:103BA00005C08F3F29F48091F30184608093F30175
:103BB0000895803F39F48091F70187FF6CC010921F
:103BC000F70169C0813F29F48091F7011816BCF311
:103BD00062C09091F601823F29F497FF5CC0109279
:103BE000F60159C0833F19F41916CCF354C0893F2C
:103BF00041F48091F80118160CF04DC01092F801B4
:103C00004AC08A3F29F48091F80187FF44C0F6CF6B
:103C10008B3F39F48091F90187FF3DC01092F90183
:103C20003AC08C3F29F48091F9011816BCF333C0D7
:103C3000843F21F48091F5018E7F17C0853F21F4E8
:103C40008091F5018D7F11C0863F21F48091F501AF
:103C50008B7F0BC0873F21F48091F501877F05C0E2
:103C6000883F31F48091F5018F7E8093F50113C078
:103C70008D3F21F48091F3018E7F0BC08E3F21F4A4
:103C80008091F3018D7F05C08F3F29F48091F3016E
:103C90008B7F8093F3018091F60181110EC080919A
:103CA000F70181110AC08091F801811106C080914D
:103CB000F901811102C01092F201089584EF91E0A0
:103CC0000E94F50E0E94571C9093F1018093F00121
:103CD00008951F93CF93DF938091F0019091F101AC
:103CE0000E94631CAC019091F201992321F0209174
:103CF000110130E006C0209112018AE0289F900156
:103D000011244217530708F47BC08091F601C0913B
:103D1000F701D091F8011091F901811107C0C1118B
:103D20006BC0D11169C0111167C06AC09F3F19F003
:103D30009F5F9093F201181624F40E94EF1C809369
:103D4000F6018091F60187FF05C00E94EF1C819566
:103D50008093F6011C1624F40E94EF1C8093F70157
:103D60008091F70187FF05C00E94EF1C8195809329
:103D7000F7013091F6013323E1F02091F70122237E
:103D8000C1F045EB3403C0011124892F990F990B21
:103D9000009709F481E08093F60135EB2303C0011D
:103DA0001124892F990F990B009709F481E08093D2
:103DB000F7011D1624F40E94381D8093F8018091AC
:103DC000F80187FF05C00E94381D81958093F80196
:103DD000111624F40E94381D8093F9018091F90195
:103DE00087FF05C00E94381D81958093F901DF91FE
:103DF000CF911F910C945E1E9F3F09F099CFA1CFE8
:103E0000DF91CF911F910895E4EFF1E086E0DF01AB
:103E10001D928A95E9F71092F2011092F30108952C
:103E2000833081F128F4813059F08230D1F0089547
:103E3000853009F449C0B8F1863009F456C00895B8
:103E400080911201262F30E0280F311D2F3F3105C0
:103E500024F4680F6093120108958FEF809312018C
:103E6000089580911101262F30E0280F311D2F3F3A
:103E7000310524F4680F6093110108958FEF80934A
:103E80001101089580911001262F30E0280F311D77
:103E90002F3F310524F4680F6093100108958FEFD0
:103EA00080931001089580910F01262F30E0280F94
:103EB000311D2F3F310524F4680F60930F010895E1
:103EC0008FEF80930F01089580910E01262F30E02F
:103ED000280F311D2F3F310524F4680F60930E0128
:103EE00008958FEF80930E01089580910D01262F84
:103EF00030E0280F311D2F3F310524F4680F609307
:103F00000D0108958FEF80930D010895833011F115
:103F100028F4813049F0823091F00895853081F1A4
:103F200020F18630C1F1089580911201681720F4C4
:103F3000861B8093120108951092120108958091BA
:103F40001101681720F4861B8093110108951092C7
:103F50001101089580911001681720F4861B809349
:103F60001001089510921001089580910F016817B3
:103F700020F4861B80930F01089510920F0108957D
:103F800080910E01681720F4861B80930E0108951E
:103F900010920E01089580910D01681720F4861B80
:103FA00080930D01089510920D0108950F931F93B2
:103FB0008B3109F474C058F58B3009F4A1C078F442
:103FC000863009F446C020F4853009F44CC09FC007
:103FD000873009F456C0883009F492C098C0803107
:103FE00009F470C068F48E3009F091C08091EE0140
:103FF00082FB222720F991E0922790FB82F958C09A
:10400000863109F47DC0893109F47AC080C08A32D2
:10401000E9F060F4873209F475C028F48E3108F4B1
:1040200076C08D515AC08932F1F071C0833450F49A
:104030008A3308F051C0853309F464C0883309F429
:104040005FC065C0833409F45DC061C00E94921BEB
:1040500057C08091EE01817F8E7F8093EE0181E0D9
:104060008093FB0155C00E948D140FEF13ED20E3E8
:10407000015010402040E1F700C000000E94B31C36
:104080003FC08091EE01982F9095917090FB80F940
:104090008093EE01911134C0897F877F10C0809199
:1040A000EE0181FB222720F991E0922790FB81F914
:1040B0008093EE01992321F18091EE01816080933C
:1040C000EE011EC08091EE0183FB222720F991E0D2
:1040D000922790FB83F9ECCF895341E050E060E0F8
:1040E00070E08A019B0104C0000F111F221F331FC3
:1040F0008A95D2F7C901B8010E9468180E948D14F0
:1041000081E006C061E070E080E090E0F5CF80E003
:104110001F910F91089580E0089580E008958E51D9
:104120008A3030F4E82FF0E0EF5CFE4F8081089594
:1041300080E00895CF93C82F8091FB01813051F02A
:1041400018F0823099F17DC00E94421A823209F043
:104150007AC004C00E94421A823261F48C2F0E94FD
:104160008B20811104C08C2F0E94D61F1DC081E0BE
:1041700090E01AC08C2F0E948D20811114C0C43190
:1041800079F048F4CB3079F0C03109F060C082E0BA
:104190008093FB0108C0C93219F0C83321F057C021
:1041A0001092FB0154C081E0817053C0C93289F183
:1041B00018F5C43171F1B0F4C73009F046C08EE192
:1041C0008093120182E3809311018AE080931001B1
:1041D00084E180930F0188E080930E0188E2809350
:1041E0000D0133C082EE8C0F863078F58C2F0E9443
:1041F0008F208093FA0129C0CE34E9F020F4CB342B
:1042000021F56AE013C0C13579F0C235F1F461E0FF
:104210000DC08091FA01882319F01092FA0115C09F
:1042200081E08093FB0115C061E006C08091FA0136
:104230000E94101F0AC06AE08091FA010E94861F46
:1042400004C01092FB0180E004C081E002C080E065
:10425000ABCFCF9108958091040208950F931F93DF
:10426000CF93DF9300D01F92CDB7DEB78C010E94B1
:104270008823823011F0843021F584E089831B8308
:104280000A8382E08093E9008FEF9091E8008150EB
:1042900095FD06C095ED9A95F1F700008111F5CFD7
:1042A0008091E80085FF0DC040E050E063E070E0E1
:1042B000CE0101960E94A5238091E8008E7780931D
:1042C000E8000F900F900F90DF91CF911F910F9109
:1042D0000895CF93DF9300D01F92CDB7DEB7209122
:1042E0004402243031F523E02983805891099B83CF
:1042F0008A8382E08093E9008FEF9091E8008150FB
:1043000095FD06C095ED9A95F1F700008111F5CF66
:104310008091E80085FF0DC040E050E063E070E070
:10432000CE0101960E94A5238091E8008E778093AC
:10433000E8000F900F900F90DF91CF910895CF93E9
:10434000DF93EC010E948823823011F08430F9F46D
:1043500082E08093E9009FEF8091E800915085FD15
:1043600006C085ED8A95F1F700009111F5CF809197
:10437000E80085FF0CC040E050E066E070E0CE0150
:104380000E94A5238091E8008E778093E800DF915A
:10439000CF910895CF93DF93EC010E948823823060
:1043A00011F0843039F581E08093E9008FEF90912E
:1043B000E800815095FD06C095ED9A95F1F7000053
:1043C0008111F5CF8091E80085FF14C040E050E0F6
:1043D00068E070E0CE010E94A5238091E8008E770E
:1043E0008093E80088E0FE01ACEFB1E001900D920F
:1043F0008A95E1F7DF91CF91089580914302811171
:1044000009C00E943A250E9497258091E2008460AD
:104410008093E2000895109243020895089508954C
:104420000C941D1C42E061EC81E00E94B42442E245
:1044300061EC82E00C94B42480914602833009F44C
:1044400060C030F4813071F0823009F499C0089571
:104450008A3009F485C08B3009F46BC0893009F0CB
:10446000A7C020C080914502813A09F0A1C0809187
:10447000E800877F8093E8008091490290914A028A
:10448000892B21F468E08CEF91E003C060E080E0CC
:1044900090E070E00E94F0238091E8008B77809399
:1044A000E800089580914502813209F081C0809131
:1044B000490290914A02029708F07AC08091E80080
:1044C000877F8093E8008091E80082FD05C080919D
:1044D00044028111F8CF6CC02091F3008091F2006A
:1044E00090E0922B029729F48091F1008B7F81302C
:1044F00021F48091F100809304028091E8008B7791
:1045000053C080914502813A09F052C0809149021E
:1045100090914A02892B09F04BC08091E800877F77
:104520008093E8008091E80080FFFCCF80911D011E
:1045300036C0809145028132D9F58091490290912F
:104540004A02892BA9F58091E800877F8093E800D3
:104550000E94E9248091470280931D010C948D14E0
:1045600080914502813221F58091E800877F809318
:10457000E8000E94E9248091480280930502089592
:1045800080914502813AA1F48091E800877F809371
:10459000E8008091E80080FFFCCF809105028093C5
:1045A000F1008091E8008E778093E8000C94E92474
:1045B000089584B7877F84BF0FB6F894A89580913B
:1045C0006000886180936000109260000FBE80E8F8
:1045D00080936100109261000E943C0F0E943A2576
:1045E0000E9497258091E20084608093E200789495
:1045F0000E9426280E94420F83E191E00E94D90E7A
:1046000080914402853069F40E94D41B809142025B
:104610008823B1F30E94061C882391F30E948F2304
:10462000EFCF0E944C0FECCF0C941623292F332789
:1046300023303105C9F064F42130310581F0223096
:10464000310509F04CC08BE390E024E734E04BC027
:104650002132310521F12232310589F140C082E158
:1046600090E02FEA34E03FC099278130910571F046
:104670002CF4892BA1F5E0E7F4E00DC08230910520
:1046800041F0039761F5ECE2F4E005C0EAE5F4E0FF
:1046900002C0E2E3F4E0849190E09F0124C0611540
:1046A000710541F061307105D1F489E090E02FE9A6
:1046B00034E019C089E090E026E834E014C06115C8
:1046C000710541F06130710551F485E890E021EC0D
:1046D00034E009C080E490E026E435E004C080E0E6
:1046E00090E020E030E0FA013183208308950895BE
:1046F000CF93C82F0E947723C0930602CF910895CD
:1047000080914402843011F081E0089582E00895A0
:1047100080910602811102C00C948023089580E1EB
:1047200089BD82E189BD09B400FEFDCF8091D8002A
:104730008F7D8093D8008091E00082608093E000BC
:104740008091E00081FDFCCF0895CF92DF92EF923F
:10475000FF920F931F93CF93DF93EC018B016A01BC
:104760000E940825811133C0C114D10439F0F6012B
:1047700080819181081B190BC80FD91FE12CF12CE6
:104780000115110519F18091E80085FD16C0809191
:10479000E8008E778093E800C114D10449F0F60157
:1047A00080819181E80EF91EF182E08285E00FC0E0
:1047B0000E940825882321F30AC089918093F10083
:1047C00001501109FFEFEF1AFF0ADACF80E0DF9105
:1047D000CF911F910F91FF90EF90DF90CF900895B0
:1047E00020914B0230914C022617370748F0611593
:1047F000710539F42091E8002E772093E80001C07C
:10480000B90140E061157105A9F12091440222230C
:1048100009F443C0253009F442C02091E80023FD8B
:1048200040C02091E80022FD32C02091E80020FF26
:10483000E9CF4091F3002091F20030E0342BFC01ED
:10484000CF016115710559F02830310540F481918F
:104850008093F100615071092F5F3F4FF1CF41E02C
:104860002830310509F040E02091E8002E772093B0
:10487000E800C8CF4111C9CF0AC080914402882303
:1048800061F0853061F08091E80083FD0AC080917D
:10489000E80082FFF2CF80E0089582E0089583E08F
:1048A000089581E0089520914B0230914C02261723
:1048B000370748F06115710539F42091E8002E772B
:1048C0002093E80001C0B901FC0120E061157105E9
:1048D00091F180914402882309F440C0853009F4A5
:1048E0003FC08091E80083FD3DC08091E80082FDDB
:1048F0002FC08091E80080FFE9CF2091F3008091E4
:10490000F20090E0922B6115710559F08830910505
:1049100040F424912093F100319661507109019681
:10492000F2CF21E0089709F020E08091E8008E772F
:104930008093E800CBCF2111CCCF0AC080914402F4
:10494000882361F0853061F08091E80083FD0AC022
:104950008091E80082FFF2CF80E0089582E0089520
:1049600083E0089581E00895982F973058F590934B
:10497000E900981739F07091EC002091ED0050910A
:10498000F00003C0242F762F50E021FF19C0309192
:10499000EB003E7F3093EB003091ED003D7F309394
:1049A000ED003091EB0031603093EB007093EC0040
:1049B0002093ED005093F0002091EE0027FF07C0F8
:1049C0009F5FD3CF8F708093E90081E0089580E0EE
:1049D00008958091450287FF11C08091E80082FD13
:1049E00005C0809144028111F8CF11C08091E80088
:1049F0008B770BC080914402882349F08091E800B6
:104A000080FFF8CF8091E8008E778093E8000895CA
:104A10002091E4003091E50095E64091EC00842F70
:104A2000817040FF22C08091E80080FD1CC0809111
:104A30004402882391F0853091F08091EB0085FD50
:104A400010C04091E4005091E5004217530729F34C
:104A50009A01915011F784E0089582E0089583E06F
:104A6000089581E0089580E008954091E80042FFB4
:104A7000DECF08950E94A8250E94B025E0EEF0E068
:104A8000808181608083E8EDF0E080818F77808392
:104A900019BCA7EDB0E08C918E7F8C9380818F7EC6
:104AA00080831092430208950F931F93CF93DF9357
:104AB0000E94A8250E94B025C8EDD0E088818F779C
:104AC000888388818068888388818F7D888319BCEA
:104AD000109244021092400210924202109241023F
:104AE00000EE10E0F80180818B7F808388818160F7
:104AF000888342E060E080E00E94B424E1EEF0E0D0
:104B000080818E7F8083E2EEF0E08081816080830F
:104B1000808188608083F80180818E7F8083888196
:104B200080618883DF91CF911F910F910895E8ED07
:104B3000F0E080818F7E8083E7EDF0E0808181600E
:104B4000808384E082BF81E0809343020C945425EB
:104B5000E8EDF0E080818E7F80831092E20008957E
:104B60001092DA001092E10008951F920F920FB692
:104B70000F9211242F933F934F935F936F937F93E3
:104B80008F939F93AF93BF93EF93FF938091E10037
:104B900082FF0BC08091E20082FF07C08091E1009C
:104BA0008B7F8093E1000E9425288091DA0080FFAE
:104BB0001FC08091D80080FF1BC08091DA008E7FDB
:104BC0008093DA008091D90080FF0DC080E189BD1B
:104BD00082E189BD09B400FEFDCF81E080934402EB
:104BE0000E94FD2105C019BC109244020E940B22B4
:104BF0008091E10080FF19C08091E20080FF15C024
:104C00008091E2008E7F8093E2008091E2008061DB
:104C10008093E2008091D80080628093D80019BC14
:104C200085E0809344020E940F228091E10084FF7E
:104C300030C08091E20084FF2CC080E189BD82E118
:104C400089BD09B400FEFDCF8091D8008F7D80938F
:104C5000D8008091E1008F7E8093E1008091E20096
:104C60008F7E8093E2008091E20081608093E20079
:104C700080914002882311F084E007C08091E30016
:104C800087FD02C081E001C083E0809344020E945E
:104C900010228091E10083FF29C08091E20083FF10
:104CA00025C08091E100877F8093E10082E08093BE
:104CB0004402109240028091E1008E7F8093E100D7
:104CC0008091E2008E7F8093E2008091E20080611B
:104CD0008093E20042E060E080E00E94B424809192
:104CE000F00088608093F0000E940E22FF91EF9107
:104CF000BF91AF919F918F917F916F915F914F91F4
:104D00003F912F910F900FBE0F901F9018951F92FB
:104D10000F920FB60F9211242F933F934F935F93EF
:104D20006F937F938F939F93AF93BF93CF93DF93B3
:104D3000EF93FF93C091E900CF708091EC00D82FE2
:104D4000D17080FDD0E81092E9008091F000877F5B
:104D50008093F00078940E94CB261092E900809115
:104D6000F00088608093F000CD2BCF70C093E900F5
:104D7000FF91EF91DF91CF91BF91AF919F918F9173
:104D80007F916F915F914F913F912F910F900FBE47
:104D90000F901F9018951F93CF93DF93CDB7DEB779
:104DA000AA970FB6F894DEBF0FBECDBFE5E4F2E0E0
:104DB00088E08E0F9091F10091938E13FBCF0E94AB
:104DC0001C228091E80083FF28C1809145029091C8
:104DD0004602492F50E04A30510508F01EC1FA0141
:104DE000EC58FF4F0C946928803821F0823809F084
:104DF00014C108C08091410290914202992389F028
:104E000082600FC0809149028F70873008F005C121
:104E10008093E9008091EB0085FB882780F9109250
:104E2000E9009091E800977F9093E8008093F1006B
:104E30001092F100D0C0282F2D7F09F0EEC08823FA
:104E400019F0823061F0E9C080914702813009F0A9
:104E5000E4C0933009F080E0809342022EC080913C
:104E6000470281112AC0809149028F702FEF280FCD
:104E7000263008F0D2C08093E9002091EB0020FF9B
:104E80001CC0933021F48091EB00806214C090919B
:104E9000EB0090619093EB0021E030E0A90102C0AB
:104EA000440F551F8A95E2F74093EA001092EA00FA
:104EB0008091EB0088608093EB001092E900809174
:104EC000E800877F8093E8000E94E924A6C0811152
:104ED000A4C0109147021F778091E3008078812B56
:104EE0008093E3008091E800877F8093E8000E9430
:104EF000E9248091E80080FFFCCF8091E300806886
:104F00008093E300111102C082E001C083E080932E
:104F1000440283C08058823008F07FC080914702ED
:104F2000909148028C3D53E0950779F583E08A83A0
:104F30008AE289834FB7F894DE01139620E03EE0C1
:104F400051E2E32FF0E050935700E49120FF03C0BB
:104F5000E295EF703F5FEF708E2F90E0EA3010F037
:104F6000C79601C0C0968D939D932F5F243149F75A
:104F70004FBF8091E800877F8093E8006AE270E08D
:104F8000CE0101960E94F02315C0609149027091F4
:104F90004A02AE014F5F5F4F0E941423BC01892B70
:104FA000E1F19091E800977F9093E80089819A81E0
:104FB0000E9453248091E8008B778093E8002DC0F5
:104FC000803859F58091E800877F8093E8008091D0
:104FD00040028093F1008091E8008E7773CF8111B9
:104FE0001CC0909147029230C0F48091E800877F06
:104FF0008093E800909340020E94E924809140024F
:10500000811106C08091E30087FD02C081E001C0EC
:1050100084E0809344020E9412228091E80083FF82
:105020000AC08091E800877F8093E8008091EB00C0
:1050300080628093EB00AA960FB6F894DEBF0FBE95
:10504000CDBFDF91CF911F9108950895CF938091A7
:1050500044028823A1F0C091E900CF709091EC0048
:10506000892F817090FD80E8C82B1092E900809113
:10507000E80083FD0E94CB26CF70C093E900CF915A
:105080000895AA1BBB1B51E107C0AA1FBB1FA6178F
:10509000B70710F0A61BB70B881F991F5A95A9F7E1
:1050A00080959095BC01CD01089597FB072E16F4CD
:1050B000009407D077FD09D00E94412807FC05D055
:1050C0003EF4909581959F4F0895709561957F4F1F
:1050D0000895EE0FFF1F0590F491E02D0994F999C2
:1050E000FECF92BD81BDF89A992780B50895A6E1BB
:1050F000B0E044E050E00C94A928A8E1B0E042E020
:1051000050E00C94A928262FF999FECF92BD81BDBD
:10511000F89A019700B4021639F01FBA20BD0FB6F5
:10512000F894FA9AF99A0FBE08950396272F0E94D1
:1051300084280E948328252F0E948428242F0C94E1
:1051400084280196272F0E9484280C948328DC0150
:10515000CB01FC01F999FECF06C0F2BDE1BDF89A82
:10516000319600B40D9241505040B8F70895F8942C
:02517000FFCF6F
:105172000151010052010552010E0EE301280814EB
:105182000A321E2B21CA219F2169212E2101F5F607
:10519200F7313332369497C63435000000000000F0
:0C51A200010102030405060708090000D3
:00000001FF
