:100000000C947B070C94C2070C94C2070C94C20793
:100010000C94C2070C94C2070C94C2070C94C2073C
:100020000C94C2070C94C2070C9469290C943B2AC7
:100030000C94AE1B0C94C2070C94C2070C94C2071C
:100040000C94C2070C94C2070C94C2070C94C2070C
:100050000C94C2070C94221C0C94C2070C94C20787
:100060000C94C2070C94C2070C94C2070C94C207EC
:100070000C94C2070C94C2070C94C2070C94C207DC
:100080000C94C2070C94C2070C94C2070C94C207CC
:100090000C94C2070C94C2070C94C2070C94C207BC
:1000A0000C94C2070C94C2070C94C207140A160AD7
:1000B000210A180A1A0A1C0A1E0A200A230A250AFB
:1000C000270A320A290A2B0A2D0A2F0A310A340A72
:1000D0009A109A10CC10CC100A112A119A129A1266
:1000E0006C119A12191219128A129A129A129312F8
:1000F0002612261226122612261226122612261240
:10010000261226122612261226122612261226122F
:10011000371245124C1253125D12291329133B1347
:100120003B1332133B133B133B1329132913371390
:100130003B133B133713B921A721CB216D20A422F8
:10014000A422A421A422A422F821A4220C228422E5
:10015000A422A422A422A4224022A422A42229224E
:10016000A422E421A422A4229E229E229E229E2238
:100170009E229E229E229E229E22A022A422B9215D
:100180009C21A422A422A422A422A422A422A42248
:10019000A422A422A422A022A422A422A421A42234
:1001A0009C229C229C229C229C229C229C229C225F
:1001B0009C22A022A82ACF2AC12BCF2AC12B1B2BDD
:1001C0003E2BC12B942BA32B0A0025303136620025
:1001D0003A200025303258000A722F632030313225
:1001E000333435363738394142434445460A0029CD
:1001F000001E001F0020002100220000000000233C
:100200000024002500260027002D002B002F00369B
:1002100000370013001C000000000009000A00065F
:100220000015000F0032002A000400120008001818
:10023000000C000000260807000B00170011001634
:100240000038003362340014000D000E001B000063
:10025000004600050010001A0019001D006400008F
:1002600000E000E300E20001512C00000000002843
:10027000000151E6006500E400300035003A003B23
:10028000003C003D003E00000000003F00400041F7
:10029000004200430044002B006400640225022653
:1002A0000200000000000000004B0052004E00461B
:1002B0000045004C002514261424142714000000C7
:1002C0000000004A00500051004F0049000000E1CA
:1002D0000000000000000000000000000000004DD1
:1002E00000000000000000000000000000E000E34B
:1002F00000E20001002C00000000002800010000C6
:1003000000000000000000000000000000000000ED
:1003100000000000000000000000000000000000DD
:1003200000000000000000000000000000000000CD
:1003300000000000000000000000000000000000BD
:1003400000000000000000000000000000000000AD
:10035000000000000000000000000000000000009D
:10036000000000000000000000000000000000008D
:10037000000000000000000000000000000000007D
:10038000000000000000000000000000000000006D
:1003900000000044454255473A20656E61626C6535
:1003A000642E0A000A002530325820006B657962FD
:1003B0006F6172645F7265706F72743A20000A0038
:1003C00025303258006B6579626F6172645F7365C6
:1003D000745F6C65643A20004F6E6573686F743AA1
:1003E0002074696D656F75740A0064656C5F6B6578
:1003F000795F6269743A2063616E27742064656C6A
:100400003A20253032580A006164645F6B65795F79
:100410006269743A2063616E2774206164643A20D3
:10042000253032580A00290A002575002F0025754D
:10043000005D28002564002000256400200025645C
:100440000020002564007C0025303258006D6F7557
:1004500073656B6579205B62746E7C782079207699
:1004600020685D287265702F61636C293A205B00FB
:100470006D6B5F776865656C5F74696D655F746FE0
:100480005F6D6178203D2025640A006D6B5F7768A1
:1004900065656C5F6D61785F7370656564203D2094
:1004A00025640A006D6B5F74696D655F746F5F6DC5
:1004B0006178203D2025640A006D6B5F6D61785F77
:1004C0007370656564203D2025640A006D6B5F696B
:1004D0006E74657276616C203D2025640A006D6B38
:1004E0005F64656C6179203D2025640A006D6B5F57
:1004F000776865656C5F74696D655F746F5F6D616A
:1005000078203D2025640A006D6B5F776865656C17
:100510005F6D61785F7370656564203D2025640AB6
:10052000006D6B5F74696D655F746F5F6D617820DE
:100530003D2025640A006D6B5F6D61785F737065A7
:100540006564203D2025640A006D6B5F696E7465EB
:100550007276616C203D2025640A006D6B5F6465D6
:100560006C6179203D2025640A000A00257500365B
:100570003A20776865656C5F74696D655F746F5F5D
:100580006D61783A20000A00257500353A207768B9
:1005900065656C5F6D61785F73706565643A2000B6
:1005A0000A00257500343A2074696D655F746F5FC9
:1005B0006D61783A20000A00257500333A206D619C
:1005C000785F73706565643A20000A002575003213
:1005D0003A20696E74657276616C286D73293A20D1
:1005E000000A00257500313A2064656C6179282A7B
:1005F00031306D73293A20000A092D2056616C753F
:100600006573202D0A004D3E004D25643E20003FBD
:10061000007365742064656661756C740A00433EFE
:10062000200077686572652064656C74613A2063A8
:100630007572736F723D25642C20776865656C3D1B
:1006400025640A53656520687474703A2F2F656EAF
:100650002E77696B6970656469612E6F72672F7799
:10066000696B692F4D6F7573655F6B6579730A00F0
:100670000A092D204D6F7573656B6579202D0A452C
:1006800053432F713A09717569740A313A096465E7
:100690006C6179282A31306D73290A323A09696E02
:1006A00074657276616C286D73290A333A096D613D
:1006B000785F73706565640A343A0974696D655FC3
:1006C000746F5F6D61780A353A09776865656C5FAC
:1006D0006D61785F73706565640A363A097768659D
:1006E000656C5F74696D655F746F5F6D61780A0A30
:1006F000703A097072696E742076616C7565730A60
:10070000643A097365742064656661756C74730A74
:1007100075703A092B310A646F776E3A092D310AE8
:10072000706775703A092B31300A7067646F776EA5
:100730003A092D31300A0A7370656564203D2064E2
:10074000656C7461202A206D61785F7370656564E3
:10075000202A2028726570656174202F2074696DCD
:10076000655F746F5F6D6178290A003F004D3E2020
:1007700000433E20004C25640A0074696D65725F79
:1007800072656164333228293A202530346C580A66
:10079000006B65796D61705F636F6E6669672E6E61
:1007A0006B726F3A2025580A006B6579626F61722F
:1007B000645F69646C653A2025580A006B6579624C
:1007C0006F6172645F70726F746F636F6C3A202533
:1007D000580A00686F73745F6B6579626F61726449
:1007E0005F6C65647328293A2025580A000A092D90
:1007F00020537461747573202D0A004743433A20D7
:10080000342E392E32204156522D4C4942433A2043
:10081000312E382E3073766E204156525F4152434E
:10082000483A20617672350A004F5054494F4E5372
:100830003A204C554641204D4F5553454B45592084
:1008400045585452414B455920434F4E534F4C4508
:1008500020434F4D4D414E44204E4B524F2034309B
:1008600039360A004255494C443A2022302E362E61
:100870003332362D322D67333635346430662220DC
:100880002831383A33303A3139204D6172203331D2
:100890002032303139290A005649443A203078460E
:1008A000454544284D61747469612044616C20425F
:1008B000656E29205049443A203078363036302849
:1008C0005265646F785F776972656C657373292010
:1008D0005645523A203078303030310A0044455382
:1008E000433A20712E6D2E6B2E206B6579626F61FD
:1008F0007264206669726D7761726520666F72201E
:100900005265646F782D770A000A092D20566572AA
:1009100073696F6E202D0A000A092D20436F6E73D4
:100920006F6C65202D0A4553432F713A0971756923
:10093000740A6D3A096D6F7573656B65790A000A03
:10094000092D204D61676963202D0A443A094465E9
:10095000627567204D65737361676520546F6767C3
:100960006C650A583A094D61747269782044656271
:100970007567204D6F646520546F67676C65202D27
:100980002053686F77206B65797072657373657338
:1009900020696E206D617472697820677269640ADB
:1009A0004B3A094B6579626F6172642044656275E8
:1009B0006720546F67676C65202D2053686F772020
:1009C0006B65797072657373207265706F72740AEB
:1009D0004D3A094465627567204D6F757365205403
:1009E0006F67676C650A563A0956657273696F6E70
:1009F0000A533A095374617475730A433A0941639F
:100A000074697661746520436F6E736F6C65204DF9
:100A10006F64650A46312D4631303A09537769745F
:100A2000636820746F204C6179657220302D392005
:100A300028463130203D204C30290A302D393A09E2
:100A400053776974636820746F204C6179657220F4
:100A5000302D390A47524156453A09537769746334
:100A60006820746F204C6179657220302028616C99
:100A70007465726E617465290A423A094A756D702F
:100A800020746F20426F6F746C6F616465720A45E9
:100A900053433A094A756D7020746F20426F6F742A
:100AA0006C6F616465722028616C7465726E61742C
:100AB00065290A453A095072696E742045455052BD
:100AC0004F4D2053657474696E67730A42535041E9
:100AD00043453A09436C65617220454550524F4D7C
:100AE0000A4E3A094E4B524F20546F67676C650AA5
:100AF000000A002575002E6E6B726F3A20000A0006
:100B00002575002E737761705F6261636B736C6132
:100B100073685F6261636B73706163653A20000A9A
:100B2000002575002E737761705F67726176655F6F
:100B30006573633A20000A002575002E6E6F5F67AB
:100B400075693A20000A002575002E737761705F81
:100B500072616C745F726775693A20000A002575CE
:100B6000002E737761705F6C616C745F6C67756980
:100B70003A20000A002575002E636170736C6F6364
:100B80006B5F746F5F636F6E74726F6C3A20000AF4
:100B9000002575002E737761705F636F6E74726FDE
:100BA0006C5F636170736C6F636B3A20000A0025A1
:100BB000303258006B65796D61705F636F6E666986
:100BC000672E7261773A20000A002575002E6D6F3E
:100BD0007573653A20000A002575002E6B657962F1
:100BE0006F6172643A20000A002575002E6D6174F1
:100BF0007269783A20000A002575002E656E6162E0
:100C00006C653A20000A0025303258006465627530
:100C1000675F636F6E6669672E7261773A20000ABC
:100C20000025750064656661756C745F6C6179653B
:100C3000723A20003F004E4B524F3A206F66660AD0
:100C4000004E4B524F3A206F6E0A000A6D6F75735B
:100C5000653A206F66660A000A6D6F7573653A2003
:100C60006F6E0A000A6B6579626F6172643A206F79
:100C700066660A000A6B6579626F6172643A206F7A
:100C80006E0A000A6D61747269783A206F66660AAE
:100C9000000A6D61747269783A206F6E0A000A6406
:100CA000656275673A206F66660A000A6465627558
:100CB000673A206F6E0A000A0A4A756D70696E679E
:100CC00020746F20626F6F746C6F616465722E2E7A
:100CD0002E2000433E2000436C656172696E6720E0
:100CE000454550524F4D0A006565636F6E666967F2
:100CF0003A0A005B735D004B6579626F6172642034
:100D000073746172742E0A005B575D005B535D0063
:100D10005B525D005B445D005B435D00040330009B
:100D200000001E035200650064006F0078005F0041
:100D300077006900720065006C0065007300730045
:100D400000001E034D006100740074006900610022
:100D50002000440061006C002000420065006E002D
:100D600000000403090409025B00030100A0FA0962
:100D700004000001030101000921110100012240CA
:100D8000000705810308000A0904010001030000AF
:100D90000009211101000122C00007058203200083
:100DA0000A090402000203000000092111010001E8
:100DB000222200070583032000010705030320000A
:100DC000011201100100000008EDFE606001000149
:100DD0000203010631FF0974A1010975150026FF00
:100DE000009520750881020976150026FF009520E0
:100DF00075089102C005010902A10185020901A13E
:100E000000050919012905150025019505750181C0
:100E1000029501750381010501093009311581250C
:100E20007F95027508810609381581257F95017522
:100E3000088106050C0A38021581257F9501750881
:100E40008106C0C005010980A101850316010026A5
:100E500003001A81002A8300751095018100C005E6
:100E60000C0901A1018504160100269C021A01004B
:100E70002A9C02751095018100C005010906A10197
:100E80008505050719E029E7150025019508750175
:100E90008102050819012905950575019102950141
:100EA000750391010507190029EF1500250195F03B
:100EB00075018102C005010906A101050719E02994
:100EC000E7150025019508750181029501750881D6
:100ED000010508190129059505750191029501750E
:100EE0000391010507190029FF150026FF0095064B
:100EF00075088100C00011241FBECFEFDAE0DEBF0D
:100F0000CDBF04B603FE27C080913002909131021C
:100F1000A0913202B09133028730904BA740B04B82
:100F2000D1F41092300210923102109232021092DB
:100F3000330214BE84B7877F84BF0FB6F894A89598
:100F400080916000886180936000109260000FBE05
:100F5000E0E0F8E3099511E0A0E0B1E0E4EEF8E5A7
:100F600002C005900D92AC32B107D9F722E0ACE295
:100F7000B1E001C01D92A033B207E1F70E948426C0
:100F80000C94702C0C940000FF93EF93E0912C01D3
:100F9000F0912D01309709F00995EF91FF91089597
:100FA000FC018591803011F0EFDFFBCF0895FF2722
:100FB000E0E230E247FF0CC0419597FF09C0EDE247
:100FC0006095709580959095611D711D811D911D95
:100FD00027FF02C0219530E350E2AA27660F771F52
:100FE000881F991FAA1FA41710F0A41B63955A9578
:100FF000A9F7AA3008F0A95FA05DAF93F39561153A
:1010000071058105910541F7ED3211F4EF93F395E8
:10101000F21718F43F93F395FBCF8F91B5DFFA9554
:10102000E1F70895E991F9918591803021F08532B9
:1010300019F0AADFF9CF089520E0E89455915532D0
:10104000C1F3503311F4689455915A3348F4505316
:1010500090F3220F022E220F220F200D250FF4CF26
:101060000EF4219589919991533619F3533729F14B
:10107000533559F1BC0188279927E8945C3621F44F
:101080008991999168945591543639F446EF7EF0E0
:1010900077FF0DC08FEF9FEF0AC055374AE039F058
:1010A000583540E121F0523642E009F00895FF93AF
:1010B000EF937DDFEF91FF91B7CFFF93EF93FC01AB
:1010C00081918030B9F360DFFBCFFF93EF9368DF4E
:1010D000F1CFDF93CF93CDB7DEB72596A3DFCF91C6
:1010E000DF910895089508950C944109CF93DF93FB
:1010F000CDB7DEB72B970FB6F894DEBF0FBECDBFCE
:101100001092CC001092CD0088E18093C90086E057
:101110008093CA0083E78093CE00FE0131968BE076
:10112000DF011D928A95E9F7DF0140E050E0BA0146
:101130008BE08E0F9091C80097FD0AC04F5F5F4F04
:101140006F4F7F4F413197E259076105710590F369
:101150009091CE009D938A13EDCF8B85803E91F4C4
:10116000AEE2B1E09E01255F3F4F818140E8849F60
:10117000C00111244081842B8D939D933296E217F8
:10118000F30799F70E94490981E02B960FB6F8946E
:10119000DEBF0FBECDBFDF91CF910895E82FF0E005
:1011A000EE0FFF1FE25DFE4F808191810895CF9287
:1011B000DF92EF92FF920F931F93CF93DF9388ED0F
:1011C00091E00E94D0078EE2E82E81E0F82EC0E088
:1011D000D0E093EDC92E91E0D92E0AEC11E0DF9317
:1011E000CF93DF92CF920E94690880ED91E00E9438
:1011F000D007F701819191917F010E94141A9F936A
:101200008F931F930F930E94690888EC91E00E94CE
:10121000D00721968DB79EB708960FB6F8949EBF5B
:101220000FBE8DBFC530D105D1F6DF91CF911F9193
:101230000F91FF90EF90DF90CF9008951092CC0027
:101240001092CD0088E18093C90086E08093CA00A7
:101250000895519A599A80B3806380BB81B38063AB
:1012600081BB08950E9472080E941E090C942909EE
:101270000C947308089581E0089581E008950C941A
:101280003D090E942E1A811102C00E94A81A0C94D6
:1012900032090C9438090C943A0908950E941913E4
:1012A0000E944D092FEF84E39CE021508040904044
:1012B000E1F700C0000087E797E79093010880936B
:1012C00000080C94481CFF920F931F93CF93DF9359
:1012D0008C01FC01C081D18180915001811113C02A
:1012E0008281882349F0CE010E944E18F82E682F83
:1012F000CE010E94F31704C0CE010E942218F82EDE
:10130000BE018F2D04C0CE010E944E18BE010E9466
:10131000E80AEC01B8010E943F09882309F44DC195
:10132000C73DFCE5DF0709F4AFC0B0F4C531ECE51B
:10133000DE0768F4C230FCE5DF0708F053C0C115D2
:101340008CE5D80701F1C130DC4529F129C1C6314E
:10135000DC4509F4FEC024C1CC3D8CE5D80791F1F1
:1013600050F4C83DFCE5DF0709F4B1C0C93DDC45D8
:1013700009F4D4C015C1CD3DECE5DE0751F1CE3DF9
:10138000DC45C1F00DC1F8018281882309F415C143
:101390000E944E0912C1F8018281882309F40DC10F
:1013A0008091E70181608093E70183E993E00E94E7
:1013B000D00703C1F8018281882309F4FEC00E948E
:1013C000A81AFBC0F8018281882309F4F6C080E0E6
:1013D00006C0F8018281882309F4EFC082E00E94F0
:1013E0002C27EBC0F8018281882309F4DEC00E941B
:1013F0002E1A811102C00E94A81A0E94411A90E080
:101400009093220280932102FE01E350FC45E231D9
:10141000F10530F4EA5AFF4F809121020C94142C0C
:1014200080912102816027C0826025C0846023C032
:10143000806121C080621FC080641DC080681BC0A5
:101440008460886018C08E7F16C08D7F14C08B7F2B
:1014500012C08F7E10C08F7D0EC08F7B0CC08F7727
:101460000AC08B7F877F07C087FB222720F991E086
:10147000922790FB87F980932102809121020E949C
:10148000451A0E94191399C0F8018281882351F0EE
:1014900010923D010E94E01B90933A018093390124
:1014A00082E022C080913D0181110FC080913901FD
:1014B00090913A010E94F81B883C910530F486E235
:1014C0000E943D0F86E20E94221082E024C0F801B3
:1014D0008281882361F010923E010E94E01B90936C
:1014E0003C0180933B0180E20E94561066C08091CF
:1014F0003E0181110FC080913B0190913C010E94FF
:10150000F81B883C910530F487E20E943D0F87E28A
:101510000E94221080E20E945D104FC0F80182817B
:101520008111D9CF80913E018111F4CF80913B018F
:1015300090913C010E94F81B883C910558F780E28D
:101540000E945D1088E20E943D0F88E20E942210F6
:1015500034C00E941C19282FF8018281409100019B
:1015600050910101882379F02A7A91E009F490E002
:1015700090933801911102C069E201C065E3CA018C
:101580000E94311B0AC080913801811102C069E2BA
:1015900001C065E3CA010E943C1B0E9477190DC07F
:1015A00081E080933D0180933E01C801DF91CF919E
:1015B0001F910F91FF900C943B0980E0DF91CF9138
:1015C0001F910F91FF90089580E090E00895089595
:1015D0009EE0799FF001112496E4899FE00DF11DB2
:1015E0001124E60FF11DEE0FFF1FE151FE4F859113
:1015F00094910895880F991FFC01EC55FC4F85913B
:1016000094910895CF93DF930E94E80A0E94B90C49
:10161000EC01811520E59207F0F5811530E4930780
:1016200008F024C1883E910500F5803E910508F040
:101630009CC1883A910570F4853A910508F09FC0E5
:101640008130910509F491C108F442C1049708F072
:101650008CC13EC18F3B910508F49CC0803C910534
:1016600008F436C1805C9109F4C0811540E294070A
:1016700058F4C11581E0D80708F077C1C03FD10503
:1016800008F426C1D06571C1811520E3920708F0E6
:10169000E4C09F70DEC0811535E5930708F044C0B3
:1016A000811544E5940708F0F8C0C11582E5D80714
:1016B00008F5C11521E5D20708F0DBC08C2F837037
:1016C00021E030E002C0220F331F8A95E2F73C6828
:1016D000CE0174E0969587957A95E1F78370382B63
:1016E000CF70C695C69580E2C89FE0011124C22B39
:1016F000D32B3BC12C2F26952695CE01837099279D
:10170000C115D34508F0BAC040E2249F90011124CE
:10171000C1E0D0E002C0CC0FDD1F8A95E2F72C2B90
:101720003D2BE901DC6821C1811549E59407A0F44E
:10173000C11588E5D80708F0B5C0C11526E5D20760
:1017400008F0C6C08C2F0E94360D8F71C82FD0E0D4
:10175000DC2FCC27D06209C181153AE5930708F444
:10176000A6C090568115904208F0B2C08D2F8F719F
:101770000E94360DDD27D0628F71D82BF6C0853AD6
:10178000910509F4A8C0863A910509F0A7C0C2E8FE
:10179000D0E4EBC0883A910509F4A3C0893A9105D9
:1017A00009F4A2C08A3A910509F4A1C08B3A9105C7
:1017B00009F4A0C08C3A910509F49FC08B3B9105B8
:1017C00009F49EC08C3B910509F49DC08D3A9105AA
:1017D00009F49CC0803B910509F49BC08E3A9105A9
:1017E00009F49AC08F3A910509F499C0813B91059B
:1017F00009F498C0823B910509F497C0833B910599
:1018000009F496C0843B910509F495C0853B910588
:1018100009F494C0863B910509F493C0873B910578
:1018200009F492C0883B910509F491C0893B910568
:1018300009F490C08D3B910509F48FC08E3B910552
:1018400009F48EC08A3B910509F48DC0C0E0D4E450
:101850008CC00E94FA0AEC0188C09927D3FF03C00C
:10186000EC01D86C82C0EC01D06C7FC0DF70D06A14
:101870007CC0DC2FCC27C16FD06A77C040E2249FA8
:1018800090011124C1E0D0E002C0CC0FDD1F8A9589
:10189000E2F7C22BD32BDA6868C0D82FCC27C46FED
:1018A000D06A63C0DC2FCC27C06FD06A5EC08F7057
:1018B0000E94360D94E0D695C7959A95E1F7CF70C2
:1018C000D0E0DC2FCC27D06A8F70806EC82B4DC043
:1018D000C0E0D0E04AC0C1E8D0E447C0C3E8D0E4EB
:1018E00044C0C2EED4E441C0C9EED4E43EC0CAEE66
:1018F000D4E43BC0C5EBD4E438C0C6EBD4E435C077
:10190000C3EBD4E432C0C4EBD4E42FC0C7EBD4E4BF
:101910002CC0CCECD4E429C0CDECD4E426C0C3E880
:10192000D5E423C0CAE8D5E420C0C2E9D5E41DC08F
:10193000C4E9D5E41AC0C1E2D6E417C0C3E2D6E4D4
:1019400014C0C4E2D6E411C0C5E2D6E40EC0C6E2BB
:10195000D6E40BC0C7E2D6E408C0CFE6D4E405C0A5
:10196000C0E7D4E402C0CAE2D6E4CE01DF91CF9151
:1019700008958238910549F1B0F48133910509F455
:1019800058C048F48932910509F44EC08A32910555
:1019900009F454C008958533910509F440C0893392
:1019A000910599F00895833E910529F138F4803E20
:1019B000910591F0823E9105A1F00895863E910532
:1019C000F9F0873E910531F108952091210220FD23
:1019D0003AC021FD38C008958091210280FD35C0B4
:1019E00032C08091210282FF32C08091210284FDA9
:1019F00030C083EE39C08091210282FD28C0F5CF2E
:101A00008091210283FF27C08091210284FD21C0A3
:101A100087EE2AC08091210283FD1DC0F5CF809101
:101A2000210285FD1AC01BC08091210285FD17C0CF
:101A300014C08091210286FD14C015C0809121023E
:101A400086FD11C00EC080EE0FC089E30DC082EE8E
:101A50000BC080E009C086EE07C089E205C085E3BF
:101A600003C08AE201C081E390E0089590912102D1
:101A700092FF0DC0282F2871283019F4877F8460C9
:101A800006C0282F2471243011F48B7F886093FFC7
:101A90000DC0282F2871283119F4877E846106C073
:101AA000282F2471243111F48B7E886194FD877E68
:101AB000089590934401809343010895E091430178
:101AC000F0914401309721F00190F081E02D0994CC
:101AD00080E00895EF92FF921F93CF93DF93FC0174
:101AE000A0914301B0914401109709F442C0809144
:101AF0001201882341F08091210287FF04C0808178
:101B0000818385E08083EF011296ED91FC9113971C
:101B1000CE0109958091E70182FF2BC080FF04C0B0
:101B20008CEA93E00E94D00718E086EAE82E83E072
:101B3000F82E8091E70180FF0BC088811F928F9360
:101B4000FF92EF920E9469080F900F900F900F90F4
:101B5000115021961111EDCF8091E70180FF09C04E
:101B600084EA93E0DF91CF911F91FF90EF900C9466
:101B7000D007DF91CF911F91FF90EF900895E091F2
:101B80004301F0914401309739F022E0DC012C93BD
:101B90000480F581E02D0994089520914101309150
:101BA00042018217930771F09093420180934101A3
:101BB000E0914301F0914401309721F00680F781D4
:101BC000E02D0994089520913F0130914001821742
:101BD000930771F09093400180933F01E09143019E
:101BE000F0914401309721F00084F185E02D0994B3
:101BF000089585B7806885BF85B7806885BF0895DB
:101C0000089508950C94010E08950C94040E0E94FA
:101C1000F90D0E94000E0C94020E81E008950E94BE
:101C2000D71B0E9474080E94591C0C94050ECF9378
:101C3000C82F8091E70182FF1EC080FF04C085ECA1
:101C400093E00E94D0078091E70180FF0CC01F92B3
:101C5000CF9380EC93E09F938F930E9469080F903D
:101C60000F900F900F908091E70180FF04C08EEBE2
:101C700093E00E94D0078C2FCF910C944B094F9288
:101C80005F927F928F929F92AF92BF92CF92DF929C
:101C9000EF92FF920F931F93CF93DF93CDB7DEB7F1
:101CA0002A970FB6F894DEBF0FBECDBF0E9476080C
:101CB0000E940D0E811111C08FEF89838A831B82D0
:101CC0000E94E01B8160782F9D838C8349815A811B
:101CD0006B818D810E94FD0E57C096E4C92E91E064
:101CE000D92E00E010E0AA24A394B12C702E802FEE
:101CF0000E94CE084C01F601419051906F01482698
:101D000059264114510431F40F5F1F4F053011055E
:101D100069F7D2CF8091E70181FD0E94D70820E0CA
:101D200030E07501022E02C0EE0CFF1C0A94E2F7AF
:101D3000C70184219521892B09F12E837F828E2072
:101D40009F2091E0892809F490E098870E94E01B89
:101D50008160782F9A8789874E815F8168858A851F
:101D60000E94FD0E000F111FF801EA5BFE4F8081FB
:101D70009181E826F926F182E08206C02F5F3F4F6D
:101D80002E30310571F6C0CF0E946E1E10914501B4
:101D90000E945E0D1817D9F00E945E0D80934501D8
:101DA0002A960FB6F894DEBF0FBECDBFDF91CF915C
:101DB0001F910F91FF90EF90DF90CF90BF90AF9069
:101DC0009F908F907F905F904F900C94170E2A9663
:101DD0000FB6F894DEBF0FBECDBFDF91CF911F913C
:101DE0000F91FF90EF90DF90CF90BF90AF909F90BA
:101DF0008F907F905F904F900895CF93DF93CDB7F2
:101E0000DEB72B970FB6F894DEBF0FBECDBF4F8362
:101E1000588769877A878B87DE01119686E0FD01F6
:101E200011928A95E9F785E0FE01379601900D92AF
:101E30008A95E1F70E94EA18882319F082E00E944F
:101E4000E0190E94BD1881110E94691949815A81C7
:101E50006B817C818D819E810E94C3152B960FB66C
:101E6000F894DEBF0FBECDBFDF91CF910895FC0186
:101E7000808191810E948F180895CF93DF931F92E4
:101E8000CDB7DEB7882309F4D9C0682F8CEF860F51
:101E9000813A70F4862F69830E94BB226981811187
:101EA000CDC080910001909101010E94311B0CC0B6
:101EB00080E2860F883068F4677081E001C0880F87
:101EC0006A95EAF70E941F190F90DF91CF910C9449
:101ED00077198BE5860F833088F4653A29F0663AE6
:101EE00031F083E890E005C081E890E002C082E82C
:101EF00090E00F90DF91CF910C94CD0D88E5860F87
:101F0000873108F091C0683A09F445C0693A09F48C
:101F100045C06A3A09F445C06B3A09F445C06C3AC9
:101F200009F445C06B3B09F445C06C3B09F445C05E
:101F30006D3A09F445C0603B09F445C06E3A09F4B6
:101F400045C06F3A09F445C0613B09F445C0623BA6
:101F500009F445C0633B09F445C0643B09F445C03E
:101F6000653B09F445C0663B09F445C0673B09F48D
:101F700045C0683B09F445C0693B09F445C06D3B69
:101F800009F445C06E3B09F445C06A3B09F445C0FD
:101F900080E090E044C082EE90E041C089EE90E0A5
:101FA0003EC08AEE90E03BC085EB90E038C086EB07
:101FB00090E035C083EB90E032C084EB90E02FC01E
:101FC00087EB90E02CC08CEC90E029C08DEC90E089
:101FD00026C083E891E023C08AE891E020C082E92E
:101FE00091E01DC084E991E01AC081E292E017C03F
:101FF00083E292E014C084E292E011C085E292E0B4
:102000000EC086E292E00BC087E292E008C08FE645
:1020100090E005C080E790E002C08AE292E00F9075
:10202000DF91CF910C94E30D603F40F0862F0E942A
:10203000F41C0F90DF91CF910C94E11D0F90DF9174
:10204000CF910895882389F19CEF980F913A40F43D
:10205000682F80910001909101010E943C1B0DC0EE
:1020600090E2980F983058F4877091E001C0990F72
:102070008A95EAF7892F0E9425190C9477199BE518
:10208000980F933020F480E090E00C94CD0D98E50B
:10209000980F973120F480E090E00C94E30D803F9E
:1020A00020F00E945C1D0C94E11D0895882321F00E
:1020B0000E941F190C9477190895882321F00E941B
:1020C00025190C94771908954F925F926F927F9221
:1020D000BF92CF92DF92EF92FF920F931F93CF9315
:1020E000DF937C01D62FC72FFC01058102950F706D
:1020F000128111110E943C190E941519882379F050
:10210000112369F080E28D0F883048F082E00E9450
:10211000E0190E94151991E0B82EB92601C0B12C22
:10212000CC2EC2948FE0C822D12CF601E859FF4F83
:102130000C94142C8C2F807FCF70882311F0C295C3
:10214000C07F112399F0CC2309F4CFC180E28D0F19
:10215000883010F0D11104C08C2F0E941F1903C0C9
:102160008C2F0E942F190E947719BFC18D2F0E94BA
:102170002210CC2309F4DEC180E28D0F883010F0EC
:10218000D11104C08C2F0E94251903C08C2F0E94EE
:1021900035190E947719CEC18C2F807FCF70803285
:1021A00011F0C295C07FDD2319F0D130C9F022C0F3
:1021B000112371F0002341F0013031F40E944F19D6
:1021C0008C2B0E945519B6C10E944F198C2B46C109
:1021D000002319F0013009F4ADC10E94691918C03B
:1021E000112321F0063008F0A5C10EC0053008F01B
:1021F000A1C10EC0112351F0002331F0F7018581F8
:1022000080FF73C18F7085838C2F28C101117EC11F
:102210008C2F2AC18C2F86958695837090E000972D
:1022200019F0019761F086C1112321F08D2F9C2FA9
:10223000937002C080E090E00E94CD0D8BC111230D
:1022400021F08D2F9C2F937002C080E090E00E94BF
:10225000E30D80C11123F9F0D53F51F0D63F71F065
:10226000D43FA9F480911B0290911C0281600BC0A5
:1022700080911B0290911C02826005C080911B021C
:1022800090911C02846090931C0280931B028D2FFE
:102290000E94F41C1EC0D53F51F0D63F71F0D43FD0
:1022A000A9F480911B0290911C028E7F0BC080913B
:1022B0001B0290911C028D7F05C080911B029091A2
:1022C0001C028B7F90931C0280931B028D2F0E9417
:1022D0005C1D0E94E11D3EC18C2F837009F050C02F
:1022E000111134C18D2F829586958770880F880FC4
:1022F0009D2F9F70492E512C612C712C082E04C0EB
:10230000440C551C661C771C0A94D2F7D4FF14C0E9
:102310000FE010E020E030E0B901A80104C0440F54
:10232000551F661F771F8A95D2F7CB01BA016095BA
:1023300070958095909503C060E070E0CB01C695E4
:10234000C695C370D0E0C230D10561F0C330D1056D
:1023500081F06429752986299729219771F00E94B7
:102360000817F4C064297529862997290E941A172D
:10237000EDC00E940817C301B2010E94F616E6C024
:10238000112319F08C2F817001C08695882309F4E0
:10239000DDC08D2F829586958770880F880F9D2FC1
:1023A0009F70492E512C612C712C082E04C0440CB6
:1023B000551C661C771C0A94D2F7D4FF14C00FE09A
:1023C00010E020E030E0B901A80104C0440F551F1F
:1023D000661F771F8A95D2F7CB01BA016095709579
:1023E0008095909503C060E070E0CB01C695C695DE
:1023F000C3704C2F50E04230510569F04330510515
:1024000089F064297529862997294130510571F091
:102410000E94CE179BC064297529862997290E949E
:10242000E01794C00E94CE17C301B2010E94BC17EE
:102430008DC08D2F90E0FC01E05EF109E531F105E2
:1024400008F04FC0E858FF4F0C94142CDF708C2F0D
:102450008F71112331F00E9455178D2F0E94561055
:1024600069C00E9476178D2F0E945D1063C01123F2
:1024700041F0053008F05EC08C2F8F710E949B17D1
:1024800059C0063008F056C0F7CF112339F08C2F11
:102490008F710E9455174EC01123C9F38C2F8F7175
:1024A0000E94761747C0112329F08C2F8F710E944C
:1024B000401740C00E943B173DC0112349F0CF7127
:1024C0008C2F0E94551763E08C2F0E94C11932C0D7
:1024D00081E00E94E019023068F182E00E94E01978
:1024E00029C0112331F0002391F28D2F0E943D0F5E
:1024F00021C0002399F2D93349F45FEF67EE73E00E
:10250000515060407040E1F700C000008D2F0E94E4
:10251000221010C04C2F4F706D2FC7010E94E40A8B
:102520000E94671617C04C2F4F706D2FC7010E9475
:10253000E70A10C088E0C816D10441F05CF0EAE078
:10254000CE1AD108F2E0CF16D10420F40E945E0D1D
:102550000E944B09BB20F1F00E94E61880FD1AC0D2
:10256000F70112820E94E0180E945517C7010E94CD
:10257000D8120E94E018DF91CF911F910F91FF9028
:10258000EF90DF90CF90BF907F906F905F904F90D3
:102590000C947617DF91CF911F910F91FF90EF90E0
:1025A000DF90CF90BF907F906F905F904F90089595
:1025B0000F931F93CF93DF93EC01888199812B8137
:1025C0003C81232BB9F09F3F11F48F3F99F0CE014E
:1025D0000E946309882371F0688179818A810E9451
:1025E0009A188C010E94F2170E94F316B801CE01CE
:1025F0000E946410DF91CF911F910F9108950E9466
:102600003C190E944C190E9477190E94FC1E0E94DE
:10261000E11D80E090E00E94CD0D80E090E00C9400
:10262000E30D80910001909101010E94471B0C94E1
:10263000FF120E942C190C941113E92FE295EF70F0
:10264000F0E03297EE30F105B0F4E357FF4F0C9411
:10265000142C803F91F018F4803E68F40EC0843F43
:1026600051F40BC0803E48F0813F29F406C093FB33
:10267000882780F9089580E0089581E008950E94F8
:102680008F180E941D130895CF93DF9300D000D0C0
:102690001F92CDB7DEB70F900F900F900F900F9055
:1026A000DF91CF910895CF93DF9300D000D000D079
:1026B000CDB7DEB726960FB6F894DEBF0FBECDBFFE
:1026C000DF91CF9108951F93CF93DF93C091510174
:1026D00016E080915201C81799F0D0E01C9FF001DC
:1026E0001D9FF00D1124ED5AFE4F408151816281F2
:1026F0007381848195810E9453132196C770E9CF1D
:10270000DF91CF911F9108954091830150918401F1
:102710006091850170918601809187019091880177
:102720000C9453138091880182958F7009F054C0E6
:1027300080918501882309F44FC080915101A091B7
:102740005201609183017091840140918601509102
:102750008701B6E08A1709F43FC090E041155105A2
:10276000C1F17F3F11F46F3FA1F1B89FF001B99F14
:10277000F00D1124ED5AFE4F218172132AC02081E1
:10278000621327C02281211124C0238134812417A0
:10279000350710F421503109241B350B283C310535
:1027A000C0F4209188012F7020612093880126E0D9
:1027B000289FF001299FF00D1124E85AFE4F8081D7
:1027C0008F708061808383E891E00E94D8120C941E
:1027D000631301968770BECF0895CF92DF92EF9278
:1027E000FF920F931F93CF93DF93CDB7DEB762971E
:1027F0000FB6F894DEBF0FBECDBF8C0185E0F801A7
:10280000DE011D9601900D928A95E1F7D8014C9159
:1028100011965C91119712966C9112971396CD9028
:10282000DC9014973091830170918401809186012E
:1028300090918701009709F46BC17F3F19F43F3FE6
:1028400009F466C1E0908501EE2009F4C0C0209132
:102850008801C816D90628F0F601E81BF90BCF014C
:1028600004C0809590958C0D9D1DFF24F394883CA9
:10287000910578F0F12C207F09F0C6C07C2DD98A13
:10288000C88A89890E94441383E891E00E94D81283
:10289000B1C0822F807F09F046C0751314C0341375
:1028A00012C0611110C02F702061209388010E9416
:1028B000841383E891E00E94D81280918801D801A6
:1028C00015968C932EC0CD2819F15F3F11F44F3F20
:1028D000F9F0F62E61111CC0809151012091520136
:1028E00036E0821709F45AC090E0389FF001399F12
:1028F000F00D1124ED5AFE4F7181571306C07081FF
:10290000471303C07281711103C001968770E9CF2C
:10291000F62E662309F427C1809188018160809397
:102920008801F12C20C1751308C0341306C0611151
:1029300004C080918801D801C3C04D875E878D8512
:102940009E856A8B0E943F136A898823E1F1662382
:10295000D1F120918801822F82958F7090E00297AB
:1029600074F0809183019091840198878F831986F8
:10297000DB86CA862C87CE0107960E94D81286E095
:10298000F801A3E8B1E001900D928A95E1F70E9469
:1029900092130E948413FF24F394E5C04D875E8751
:1029A0008D859E850E948F18292F22952F7030E0EB
:1029B000223031050CF0CBC09F7009F0C5C0805E9D
:1029C000883008F4D0C0C8010E94D812E4CFC816DD
:1029D000D90608F453C0F601E81BF90BCF01883C77
:1029E000910508F450C0F12C7C2DD98AC88A8989B8
:1029F0000E944413E3E8F1E086E0DF011D928A952E
:102A0000E9F70E948413AFC0751314C0341312C0C9
:102A1000611110C080918801F8018583C8010E946E
:102A2000D81286E0E3E8F1E0DF011D928A95E9F72C
:102A3000FE2C99C04D875E878D859E856A8B0E948E
:102A40003F136A89882309F4BECF662309F4BBCFFC
:102A500020918801822F82958F7090E002970CF46C
:102A60008ECF80918301909184019A8389831B8208
:102A7000DD82CC822E83CE0101967FCF809590950A
:102A80008C0D9D1DACCFF62E662309F49CCF7513DB
:102A90002EC034132CC02091880120FD1FC0822F2E
:102AA00082958F70D9F0D80115962C9315978F3099
:102AB00049F08F5F982F9295907F822F8F70892B8E
:102AC00015968C93C8010E94D81286E0F801A3E8FD
:102AD000B1E001900D928A95E1F793CF86E0F8017D
:102AE000A3E8B1E001900D928A95E1F73CC04D87D3
:102AF0005E878D859E850E943F13811140CF809116
:102B00008801816080938801C8010E94D8122BC07F
:102B1000662309F458CF4D875E878D859E850E9478
:102B20003F13F82E882309F44ECF86E0F801A3E87E
:102B3000B1E001900D928A95E1F783E891E00E945F
:102B4000370F0E9492135DCF811139CF0CC0243012
:102B500031050CF038CF9F7009F431CFF801958121
:102B6000907F09F02CCF8F2D62960FB6F894DEBFC0
:102B70000FBECDBFDF91CF911F910F91FF90EF90CE
:102B8000DF90CF9008951F93CF93DF93CDB7DEB73B
:102B90002C970FB6F894DEBF0FBECDBF4F8358877A
:102BA00069877A878B879C87CE0107960E94ED13F1
:102BB000882369F08F8198852A853B85232BF1F145
:102BC0009F3F09F063C08F3F09F060C037C086E0C7
:102BD000FE013796DE01119601900D928A95E1F77C
:102BE0006F817885EA85FB85309741F17F3F11F44D
:102BF0006F3F21F12091520130E0C90101968770A9
:102C000099274091510150E08417950709F447C076
:102C100069837A83FD83EC8396E0929FD001939F32
:102C2000B00D1124AD5ABE4FFE01319601900D92A8
:102C30009A95E1F7809352010E94631316E0809108
:102C40005101909152018917C1F1189FC0011124BF
:102C50008D5A9E4F0E94ED13882379F1E091510126
:102C60001E9FF0011124ED5AFE4F40815181628177
:102C70007381848195810E9453138091510190E06A
:102C800001968770992780935101D9CF4F8158853C
:102C900069857A858B859C850E945313CFCF0E94CE
:102CA00019131092520110925101E3E8F1E086E00D
:102CB000DF011D928A95E9F7C1CF2C960FB6F894E3
:102CC000DEBF0FBECDBFDF91CF911F910895EF9270
:102CD000FF920F931F93CF93DF938C01892B09F4FD
:102CE0006CC0F12CEE24E394E8012196F801849164
:102CF000843740F4843008F051C0813081F0823054
:102D000019F15BC0853709F444C0A8F19CE7980F1E
:102D1000903708F052C08F770E94221041C00E5F9A
:102D20001F4FFE01C49180E28C0F883048F4C770B9
:102D30008E2D01C0880FCA95EAF70E943F1914C072
:102D40008C2F0E943D0F2DC00E5F1F4FFE01C491BE
:102D500080E28C0F883058F4C7708E2D01C0880F28
:102D6000CA95EAF70E9445190E9477191AC08C2F5C
:102D70000E94221016C00E5F1F4FFE01C491CC238B
:102D800081F08FE99FE00197F1F700C00000C1508A
:102D9000F6CF0E5F1F4FFE01F49003C00E943D0F5F
:102DA0008E018F2D882309F49FCFEFE9FFE0319743
:102DB000F1F700C000008150F5CFDF91CF911F9156
:102DC0000F91FF90EF90089508950C94E4160E94DF
:102DD000E5166093BA017093BB018093BC01909398
:102DE000BD010C94FF1208950C94E7160F931F93E6
:102DF0000091BA011091BB012091BC013091BD013D
:102E0000602B712B822B932B1F910F910C94E71643
:102E10000F931F930091BA011091BB012091BC0147
:102E20003091BD0160237123822393231F910F9161
:102E30000C94E7160F931F930091BA011091BB01F8
:102E40002091BC013091BD01602771278227932713
:102E50001F910F910C94E71608950C942C170E9463
:102E60002D176093B6017093B7018093B8019093CA
:102E7000B9010C94FF1260E070E0CB010C942F17A5
:102E80000F931F9341E050E060E070E08A019B01E6
:102E900004C0000F111F221F331F8A95D2F7C901EA
:102EA000B8011F910F910C942F170F931F9341E0BE
:102EB00050E060E070E004C0440F551F661F771FAC
:102EC0008A95D2F78091B6019091B701A091B8018F
:102ED000B091B9018A019B01082B192B2A2B3B2B9E
:102EE000C901B8011F910F910C942F170F931F93D5
:102EF00041E050E060E070E004C0440F551F661FE1
:102F0000771F8A95D2F7409550956095709580917E
:102F1000B6019091B701A091B801B091B9018A01B1
:102F20009B01082319232A233B23C901B8011F91C0
:102F30000F910C942F170F931F9341E050E060E026
:102F400070E004C0440F551F661F771F8A95D2F7A3
:102F50008091B6019091B701A091B801B091B901EB
:102F60008A019B01082719272A273B27C901B80195
:102F70001F910F910C942F170F931F930091B6017F
:102F80001091B7012091B8013091B901602B712BDC
:102F9000822B932B1F910F910C942F170F931F933C
:102FA0000091B6011091B7012091B8013091B9019B
:102FB00060237123822393231F910F910C942F1769
:102FC0000F931F930091B6011091B7012091B801A2
:102FD0003091B90160277127822793271F910F91A4
:102FE0000C942F1708952EE0929F800D1124A82F86
:102FF000A695A695A695877051E001C0550F8A95B4
:10300000EAF785E0A89FD001112420E030E070E0CD
:10301000F901EA0FFB1FE757FE4F4081CB01022E5B
:1030200002C0969587950A94E2F781709927819559
:1030300084278523842780832F5F3F4F25303105E8
:1030400039F708952EE0929F800D1124682F669520
:1030500066956695982F977085E0689FB00111245A
:1030600040E050E080E0FA01E60FF71FE757FE4F1F
:10307000208130E0092E02C0369527950A94E2F7A8
:1030800021703327042E01C0220F0A94EAF7822B05
:103090004F5F5F4F4530510531F70895BF92CF9292
:1030A000DF92EF92FF920F931F93CF93DF938C01E8
:1030B000C090BA01D090BB01E090BC01F090BD017E
:1030C0008091B6019091B701A091B801B091B9017A
:1030D000C82AD92AEA2AFB2ACFE1D0E0D701C601C3
:1030E0000C2E04C0B695A795979587950A94D2F7AC
:1030F00080FF07C0BC2EB8018C2F0E94020B0197E5
:1031000019F4219758F7B12C8B2DDF91CF911F9196
:103110000F91FF90EF90DF90CF90BF900895CF93E5
:10312000DF93EC010E944E18BE010E94020BDF915A
:10313000CF9108951F93CF93DF93EB0190915001AE
:10314000992321F0CB010E948F1813C0882349F0E6
:10315000CB010E944E18182F682FCE010E94F31742
:1031600004C0CB010E942218182FBE01812F0E949B
:10317000020BDF91CF911F9108950E94E01B2091D7
:10318000C1013091C2018217930750F00E94E01BE9
:103190002091C1013091C201821B930B9C010AC096
:1031A0000E94E01B2091C1013091C2012095309511
:1031B000280F391F81E0243F314008F480E0089552
:1031C0008091C00185958595859508958091C00170
:1031D000877008950E94E01B2091BE013091BF01CD
:1031E00082179307A8F00E94E01B2091BE01309146
:1031F000BF01821B930B843F914010F480E013C009
:103200008091C00182FB882780F991E089270BC05B
:103210000E94E01B2091BE013091BF0120953095A6
:10322000820F931FE8CF817008959091C00197702D
:1032300081E009F480E008958091E601089590917D
:10324000E601892B8093E601089580959091E6012F
:1032500089238093E60108951092E60108959091E4
:10326000E501892B8093E501089580959091E50112
:1032700089238093E50108951092E50108959091C6
:10328000E401892B8093E401089580959091E401F5
:1032900089238093E40108951092E40108958091B8
:1032A000C301089508950C945219CF939091C301CE
:1032B000981769F0C82F0E94E01B9093C201809379
:1032C000C101C093C3018C2FCF910C945319CF919E
:1032D00008958091C301882349F01092C301109290
:1032E000C2011092C10180E00C9453190895E0913D
:1032F0000001F09101018091E6018083E0910001DD
:10330000F091010190818091E501892B8083E0910A
:103310000001F091010190818091E401892B80836B
:103320008091C301882321F10E94BD18882371F088
:103330008091E70180FF08C088ED93E09F938F9311
:103340000E9469080F900F900E946919E091000196
:10335000F091010190818091C301892B808380913C
:103360000001909101010E94AA1A81110E9469191D
:1033700080910001909101010C946A0D08950C94C4
:10338000BE1998E0899F90011124262B2093C0013B
:103390000E9455170E94E01B9093BF018093BE01CD
:1033A0008091C0018595859585950C94BF191092E3
:1033B000C0011092BF011092BE0180E00C94BF19B1
:1033C0002091C001809582238093C001982F97702F
:1033D00079F430E0482F082E000C550B24173507E0
:1033E00039F08595859585950E9476170C94D719A7
:1033F000089590932D0180932C0108958295982F24
:103400009C7C392F36953695282F237344E0249FD2
:10341000C0011124932F982B292F2A7A2695892FC2
:103420008575880F822B08951F93CF93DF931F928A
:10343000CDB7DEB799830E94FE19182F9981892F85
:103440000E94FE19212F30E0322F2227A901482B9C
:10345000CA010F90DF91CF911F91089580E090E015
:103460000E94362C21E08D3E9E4F09F020E0822FF5
:10347000089582E090E00C942E2C83E090E00C9470
:103480002E2C84E090E00C942E2C682F84E090E0A9
:103490000C943C2CAB01BC018FE090E00C944E2CC2
:1034A000AB01BC0183E190E00C944E2C60E070E035
:1034B000CB010C94501A60E070E0CB010E944A1AD4
:1034C0000C94561A6DEE7EEF80E090E00E945A2C2C
:1034D00060E082E090E00E943C2C60E083E090E0BD
:1034E0000E943C2C1092BA011092BB011092BC01B8
:1034F0001092BD0160E084E090E00E943C2C60E00E
:1035000085E090E00E943C2C60E086E090E00E9424
:103510003C2C6FEF87E090E00E943C2C40E050E0B4
:10352000BA0188E090E00E944E2C60E08DE090E0CF
:103530000E943C2C40E050E0BA0188E190E00E94FB
:103540004E2C60E087E190E00E943C2C0C945B1ACA
:103550000C94621AFC01329680911201882331F09A
:103560008091210287FF02C09EE101C096E080E0C9
:10357000915028F021912223D9F38F5FF9CF08953C
:103580009C01FC0132969FEF80E04191461789F043
:103590009F3F19F4411101C0982F8F5F8630A9F722
:1035A0009F3F39F0F901E90FF11D97FDFA9562830C
:1035B00008950895FC01329608962081261301C0D3
:1035C00010823196E817F907C1F70895262F26953E
:1035D000269526952E3170F4FC01E20FF11D6770DF
:1035E00021E030E001C0220F6A95EAF78281282BA2
:1035F000228308958091E70180FF0CC01F926F9392
:1036000088E094E09F938F930E9469080F900F9039
:103610000F900F900895262F2695269526952E31EA
:1036200078F4FC01E20FF11D677021E030E001C089
:10363000220F6A95EAF72095828128232283089534
:103640008091E70180FF0CC01F926F938AEE93E098
:103650009F938F930E9469080F900F900F900F9087
:10366000089520911201222329F02091210227FDA3
:103670000C94E61A0C94C01A20911201222329F00E
:103680002091210227FD0C940B1B0C94DA1A209137
:103690001201FC013296222331F08091210287FF32
:1036A00002C08EE101C086E0DF011D928A95E9F734
:1036B000089508950C94591B0E945A1B809127026B
:1036C000843049F11092E80120E488E190E00FB6DF
:1036D000F894A895809360000FBE2093600080E06E
:1036E0000E944B090E945A1B83B7817F846083BF6D
:1036F00083B7816083BF7894889583B78E7F83BFBB
:103700000FB6F894A895809160008861809360005E
:10371000109260000FBE089508950895CF930E94FF
:103720008C1B0E9476080E948D1BC0E08C2F0E948B
:10373000CE08892B29F4CF5FC530C1F780E001C0E6
:1037400081E0CF91089508950C94A31B0E94191352
:103750000E945E0D0E944B090C94A41B1F920F92B5
:103760000FB60F9211248F939F93AF93BF938091C5
:10377000E801811113C080911D0290911E02A09159
:103780001F02B09120024196A11DB11D80931D0220
:1037900090931E02A0931F02B0932002BF91AF919D
:1037A0009F918F910F900FBE0F901F90189582E000
:1037B00084BD93E095BD9AEF97BD80936E00089508
:1037C0002FB7F89480911D0290911E02A0911F02C4
:1037D000B09120022FBF08952FB7F89460911D0279
:1037E00070911E0280911F02909120022FBF0895B8
:1037F000CF92DF92EF92FF920F931F932FB7F8941F
:1038000040911D0250911E0260911F027091200292
:103810002FBF6A017B01EE24FF248C0120E030E001
:10382000C016D106E206F30610F4415051099A0180
:10383000281B390BC9011F910F91FF90EF90DF906A
:10384000CF90089578941F920F920FB60F92112483
:103850008F939F93AF93BF9380911D0290911E020F
:10386000A0911F02B09120020196A11DB11D80936D
:103870001D0290931E02A0931F02B0932002BF91DD
:10388000AF919F918F910F900FBE0F901F90189541
:1038900087E797E790930108809300089AE088E112
:1038A0000FB6F894A895809360000FBE90936000C7
:1038B000FFCF0E942E1A811102C00E94A81A0E94F6
:1038C000391A8093E7010E94411A90E090932202F6
:1038D000809321020E943D1A682F70E080E090E002
:1038E0000C94F4168091EC0180FF0BC060910501EF
:1038F00085E0689FB001112475956795759567956A
:103900002BC081FF09C06091050185E0689FB0016F
:1039100011247595679520C082FF07C0609105014D
:1039200085E0689FB001112417C09091EB019923A5
:10393000D1F060910401961788F72091050185E088
:10394000289F90011124929FA001939F500D112454
:1039500070E0CA010E94002C6038710540F46115C6
:10396000710539F002C065E070E0862F08958FE799
:10397000089581E008958091EC0180FF08C0609176
:10398000030170E0759567957595679521C081FF76
:1039900006C06091030170E07595679519C082FFBC
:1039A00004C06091030170E010C09091EB01992375
:1039B000C1F0609102019617A0F780910301899FE1
:1039C000C001112470E00E94002C6038710528F4B9
:1039D0006115710521F0862F08958FE7089581E024
:1039E000089561E070E0F4CF803F21F40E94721CE2
:1039F000819504C0813F29F40E94721C8093F001DC
:103A00000895823F21F40E94721C819504C0833F77
:103A100029F40E94721C8093EF010895893F19F4E4
:103A20000E94BB1C05C08A3F31F40E94BB1C8195DB
:103A30008093F10108958B3F21F40E94BB1C819576
:103A400004C08C3F29F40E94BB1C8093F2010895AE
:103A5000843F21F48091EE01816017C0853F21F4FD
:103A60008091EE01826011C0863F21F48091EE01C9
:103A700084600BC0873F21F48091EE01886005C00F
:103A8000883F31F48091EE0180618093EE010895CA
:103A90008D3F21F48091EC0181600BC08E3F21F4B9
:103AA0008091EC01826005C08F3F29F48091EC0188
:103AB00084608093EC010895803F39F48091F00197
:103AC00087FF6CC01092F00169C0813F29F480919A
:103AD000F0011816BCF362C09091EF01823F29F407
:103AE00097FF5CC01092EF0159C0833F19F419167B
:103AF000CCF354C0893F41F48091F10118160CF0C9
:103B00004DC01092F1014AC08A3F29F48091F10121
:103B100087FF44C0F6CF8B3F39F48091F20187FFD5
:103B20003DC01092F2013AC08C3F29F48091F2011D
:103B30001816BCF333C0843F21F48091EE018E7FD0
:103B400017C0853F21F48091EE018D7F11C0863F23
:103B500021F48091EE018B7F0BC0873F21F480918F
:103B6000EE01877F05C0883F31F48091EE018F7EA2
:103B70008093EE0113C08D3F21F48091EC018E7F84
:103B80000BC08E3F21F48091EC018D7F05C08F3FEB
:103B900029F48091EC018B7F8093EC018091EF01FF
:103BA00081110EC08091F00181110AC08091F10154
:103BB000811106C08091F201811102C01092EB01C7
:103BC00008958091E70183FF7EC08DE494E00E9418
:103BD000D0078091EE011F928F9388E494E09F9329
:103BE0008F930E94690886E494E00E94D007809138
:103BF000EF01282F082E000C330B3F938F9383E4A3
:103C000094E09F938F930E94690881E494E00E945E
:103C1000D0078091F001282F082E000C330B3F9322
:103C20008F938EE394E09F938F930E9469088CE3B7
:103C300094E00E94D0078091F101282F082E000CFB
:103C4000330B3F938F9389E394E09F938F930E946C
:103C5000690887E394E00E94D0078091F201282F41
:103C6000082E000C330B3F938F9384E394E09F93D3
:103C70008F930E94690881E394E00E94D0078091AD
:103C8000EB011F928F938EE294E09F938F930E949B
:103C900069088CE294E00E94D0078091EC011F92A9
:103CA0008F9389E294E09F938F930E94690886E244
:103CB00094E00E94D0078DB79EB74C960FB6F8944B
:103CC0009EBF0FBE8DBF8DEE91E00E94BF0D0E9482
:103CD000E01B9093EA018093E90108951F93CF932D
:103CE000DF938091E9019091EA010E94F81BAC01F9
:103CF0009091EB01992321F02091060130E006C05C
:103D0000209107018AE0289F900111244217530750
:103D100008F46EC08091EF01C091F001D091F101E3
:103D20001091F201811107C0C1115EC0D1115CC0B8
:103D300011115AC05DC09F3F19F09F5F9093EB0136
:103D4000181624F40E94721C8093EF018091EF01F9
:103D500087FF05C00E94721C81958093EF011C169D
:103D600024F40E94721C8093F0018091F00187FF7F
:103D700005C00E94721C81958093F0014091EF0173
:103D8000442379F03091F001332359F025EB4203BD
:103D9000A00111245093EF013203C001112490932C
:103DA000F0011D1624F40E94BB1C8093F101809148
:103DB000F10187FF05C00E94BB1C81958093F10132
:103DC000111624F40E94BB1C8093F2018091F20131
:103DD00087FF05C00E94BB1C81958093F201DF9193
:103DE000CF911F910C94E11D9F3F09F0A6CFAECF5C
:103DF000DF91CF911F910895EDEEF1E086E0DF01B4
:103E00001D928A95E9F71092EB011092EC0108954A
:103E100080E796E00E94D0071F9281E08F931F9267
:103E200085E08F9382E296E09F938F930E946908CA
:103E30000F900F900F900F900F900F900895833078
:103E4000E9F128F4813061F0823009F1089585307C
:103E500009F462C008F449C0863009F474C00895BA
:103E600080910701262F30E0280F311D2F3F3105AB
:103E700024F4680F6093070103C08FEF809307015C
:103E8000809107011F928F938BE595E072C080911E
:103E90000601262F30E0280F311D2F3F310524F475
:103EA000680F6093060103C08FEF80930601809135
:103EB00006011F928F9389E495E05BC08091050114
:103EC000262F30E0280F311D2F3F310524F4680FD5
:103ED0006093050103C08FEF809305018091050178
:103EE0001F928F9386E395E044C080910401262FB2
:103EF00030E0280F311D2F3F310524F4680F609307
:103F0000040103C08FEF80930401809104011F928C
:103F10008F9381E295E02DC080910301262F30E040
:103F2000280F311D2F3F310524F4680F60930301E2
:103F300003C08FEF80930301809103011F928F9341
:103F400088E095E016C080910201262F30E0280F0E
:103F5000311D2F3F310524F4680F6093020103C027
:103F60008FEF80930201809102011F928F938DEE5B
:103F700094E09F938F930E9469080F900F900F9089
:103F80000F900895833081F128F4813059F0823008
:103F9000D1F00895853009F449C0B8F1863009F4AC
:103FA00056C0089580910701681720F4861B8093FE
:103FB000070102C010920701809107011F928F93A1
:103FC0008EED94E054C080910601681720F4861BA2
:103FD0008093060102C010920601809106011F9293
:103FE0008F938CEC94E043C080910501681720F416
:103FF000861B8093050102C0109205018091050186
:104000001F928F9389EB94E032C08091040168176E
:1040100020F4861B8093040102C010920401809159
:1040200004011F928F9384EA94E021C080910301E0
:10403000681720F4861B8093030102C010920301CD
:10404000809103011F928F938BE894E010C08091C0
:104050000201681720F4861B8093020102C01092AF
:104060000201809102011F928F9380E794E09F9359
:104070008F930E9469080F900F900F900F900895F2
:10408000CF93C82F1F928F9385E797E09F938F93CD
:104090000E94690881E090E0A0E0B0E0BC01CD01A1
:1040A00004C0660F771F881F991FCA95D2F70E9418
:1040B000F4160F900F900F900F90CF910C9419134E
:1040C000CF93482F50E0FA013597EF33F10508F010
:1040D0003BC2E556FF4F0C94142C88EE9CE00E94E6
:1040E000D00784E29CE00E94D0070E943D1A1F92F4
:1040F0008F9381E29CE09F938F930E9469088FE1E8
:104100009CE00E94D0070E94391AC82F8CE09CE0E6
:104110000E94D0071F92CF9387E09CE09F938F93DC
:104120000E94690885E09CE00E94D0078BEF9BE02D
:104130000E94D0078C2F81701F928F9388EF9BE095
:104140009F938F930E94690886EF9BE00E94D0079F
:104150008CEE9BE00E94D007C1FB882780F91F925C
:104160008F9389EE9BE09F938F930E94690887EE5F
:104170009BE00E94D0078BED9BE00E94D007C2FB22
:10418000882780F91F928F9388ED9BE09F938F93F0
:104190000E94690886ED9BE00E94D0078DEC9BE0B1
:1041A0000E94D007C3FBCC27C0F91F92CF938AECA3
:1041B0009BE09F938F930E94690888EC9BE00E948C
:1041C000D0070E94411AC82F84EB9BE00E94D007C1
:1041D0001F92CF938FEA9BE09F938F930E94690871
:1041E0008DEA9BE00E94D00784E99BE00E94D00703
:1041F0008C2F81701F928F9381E99BE09F938F9307
:104200000E9469088DB79EB780960FB6F8949EBF3E
:104210000FBE8DBF8FE89BE00E94D00788E79BE030
:104220000E94D007C1FB882780F91F928F9385E7F2
:104230009BE09F938F930E94690883E79BE00E9415
:10424000D00781E69BE00E94D007C2FB882780F957
:104250001F928F938EE59BE09F938F930E94690836
:104260008CE59BE00E94D0078AE49BE00E94D00787
:10427000C3FB882780F91F928F9387E49BE09F936D
:104280008F930E94690885E49BE00E94D0078BE32E
:104290009BE00E94D007C4FB882780F91F928F9370
:1042A00088E39BE09F938F930E94690886E39BE0DD
:1042B0000E94D00784E29BE00E94D007C5FB8827BC
:1042C00080F91F928F9381E29BE09F938F930E94CE
:1042D00069088FE19BE00E94D00783E09BE00E9489
:1042E000D007C6FB882780F91F928F9380E09BE060
:1042F0009F938F930E9469088EEF9AE00E94D007E7
:1043000086EF9AE00E94D007C7FBCC27C0F91F9226
:10431000CF9383EF9AE09F938F930E94690881EF78
:104320009AE00E94D0078DB79EB74C960FB6F894CE
:104330009EBF0FBE8DBF06C087ED9CE00E94D007D8
:104340000E94A81AC1E005C18FE399E07FC0809167
:10435000E701817F8E7F8093E70188E199E00E94E9
:10436000D00783ED9CE00E94D00781E08093F401A8
:10437000E9CF0E94191387EB9CE00E94D0079FEFC2
:1043800023ED80E3915020408040E1F700C0000021
:104390000E94481CD7CF8091E701C82FC095C170FB
:1043A000C0FB80F98093E701CC2319F08BEA9CE0F5
:1043B000BDC08EE99CE00E94D0078091E701897F13
:1043C000877F8093E701BECF9091E70191FBCC27D7
:1043D000C0F981E0C827892FC0FB81F98093E701EC
:1043E000CC2319F081E99CE027C083E89CE02EC033
:1043F0009091E70192FBCC27C0F981E0C827892F73
:10440000C0FB82F98093E701CC2319F084E79CE09C
:1044100013C084E69CE01AC09091E70193FBCC277F
:10442000C0F981E0C827892FC0FB83F98093E70199
:10443000CC2351F088E59CE00E94D0078091E701F1
:1044400081608093E70185C08BE49CE00E94D007E7
:1044500079CF89E099E00E94D0078DED98E00E9425
:10446000D00788E998E00E94D00784E698E00E948F
:10447000D00789E298E00E94D0078BEF97E0E6CF63
:104480008DEE97E00E94D0070E945E0D1F928F93E1
:1044900083ED97E09F938F930E94690880911201AA
:1044A0001F928F938CEB97E09F938F930E946908E4
:1044B000809119021F928F9389EA97E09F938F93BF
:1044C0000E9469088091210287FB882780F91F924A
:1044D0008F9381E997E09F938F930E9469080E94D0
:1044E000EC1B9F938F937F936F938AE797E09F9343
:1044F0008F930E9469088DB79EB746960FB6F894C1
:104500009EBF0FBE8DBF1ECF0E9419139091210236
:1045100097FBCC27C0F981E0C827892FC0FB87F91A
:1045200080932102CC2329F081E49CE00E94D007F3
:1045300010C086E39CE08ACF895303C08D5101C02F
:1045400080E00E944020FECE84E39CE00E94D007E1
:10455000C0E08C2FCF91089580E0089580E0089509
:104560008E518A3030F4E82FF0E0ED5EFE4F80810E
:10457000089580E00895CF93C82F8091F401813091
:1045800059F020F0823009F445C039C10E941C194D
:10459000823209F036C104C00E941C19823261F4D3
:1045A0008C2F0E94AC22811104C08C2F0E946020AD
:1045B0002FC081E090E02CC08C2F0E94AE22811190
:1045C00026C0C431E1F070F4CB3081F0C031D1F4B9
:1045D0000E94081F8DE697E00E94D00782E080933A
:1045E000F40115C0C93259F0C83361F488E199E08B
:1045F0000E94D00781E797E00E94D00708C0109280
:10460000F40101C18BE697E00E94D007FCC081E075
:104610008170FBC0C43228F5CE3108F0C1C0CB3068
:10462000A1F1D0F4C73009F0D0C08EE1809307012A
:1046300082E3809306018AE08093050184E1809300
:10464000040188E08093030188E28093020181E104
:1046500096E00E94D007BCC0C33149F1C431C1F01B
:10466000B4C0CB3409F4A6C028F4C93289F0C833E9
:1046700061F0ABC0C13509F49BC0C23509F496C0E6
:10468000CE3409F0A2C06AE09BC00E94081FA0C0FF
:104690008091F301882319F01092F30199C08EE103
:1046A00096E00E94D00781E08093F401AEC088EFCD
:1046B00095E00E94D00786EE95E00E94D007809199
:1046C00007011F928F9383EE95E09F938F930E9433
:1046D000690881EE95E00E94D0078FEC95E00E947A
:1046E000D007809106011F928F938CEC95E09F93E9
:1046F0008F930E9469088AEC95E00E94D0078BEBAB
:1047000095E00E94D007809105011F928F9388EB5E
:1047100095E09F938F930E94690886EB95E00E9435
:10472000D00785EA95E00E94D007809104011F928E
:104730008F9382EA95E09F938F930E94690880EAA5
:1047400095E00E94D0078BE895E00E94D007809109
:1047500003011F928F9388E895E09F938F930E94A7
:10476000690886E895E00E94D0078FE695E00E94F0
:10477000D007809102011F928F938CE695E09F9362
:104780008F930E9469088AE695E00E94D0078DB752
:104790009EB748960FB6F8949EBF0FBE8DBF18C047
:1047A0008C2F0E94B0228093F30112C061E003C0FD
:1047B00061E006C06AE08091F3010E941F1F08C0FB
:1047C0008091F3010E94C21F03C08FE096E013C0E6
:1047D0008091F301882369F01F928F9389E096E01E
:1047E0009F938F930E9469080F900F900F900F90E6
:1047F00004C086E096E00E94D00781E006C01092D7
:10480000F40180E002C080E003CFCF910895809151
:10481000180208959FB7F8941092F7019FBF9091E6
:104820002702943009F057C09091E9009F703091B1
:10483000EC00232F217030FD20E8922B23E0209301
:10484000E9002091EB0020FF43C02091EE0027FFFC
:104850003FC02091F501222321F02091E80025FF9F
:1048600037C01092F50126E03091E80035FD15C003
:1048700030912702343061F53091EB0035FD28C0CE
:10488000215021F481E08093F50122C0EFE9FFE09F
:104890003197F1F700C00000E7CF8093F1008091DD
:1048A000E80085FD0AC08091E80080FFFCCF809180
:1048B000E8008E778093E80006C08FB7F89421E077
:1048C0002093F7018FBF9F709093E90080E00895D7
:1048D0009F709093E9008FEF08950F931F93CF93EC
:1048E000DF9300D01F92CDB7DEB78C010E943C272A
:1048F000823011F0843021F584E089831B830A83A0
:1049000082E08093E9008FEF9091E800815095FD5F
:1049100006C095ED9A95F1F700008111F5CF8091D1
:10492000E80085FF0DC040E050E063E070E0CE019C
:1049300001960E9459278091E8008E778093E800C5
:104940000F900F900F90DF91CF911F910F910895CD
:10495000CF93DF9300D01F92CDB7DEB7209127020F
:10496000243031F523E02983805891099B838A8381
:1049700082E08093E9008FEF9091E800815095FDEF
:1049800006C095ED9A95F1F700008111F5CF809161
:10499000E80085FF0DC040E050E063E070E0CE012C
:1049A00001960E9459278091E8008E778093E80055
:1049B0000F900F900F90DF91CF910895CF93DF93D9
:1049C000EC010E943C27823011F08430F9F482E03F
:1049D0008093E9009FEF8091E800915085FD06C02B
:1049E00085ED8A95F1F700009111F5CF8091E800EF
:1049F00085FF0CC040E050E066E070E0CE010E9410
:104A000059278091E8008E778093E800DF91CF915D
:104A10000895CF93DF93EC010E943C27823011F080
:104A20008430D9F580911201882339F080912102D8
:104A300087FF03C060E282E002C068E081E080930B
:104A4000E9008FEF9091E800815095FD06C095ED4B
:104A50009A95F1F700008111F5CF8091E80085FF6C
:104A60001CC080911201811105C040E050E068E057
:104A700070E003C070E040E050E0CE010E94592792
:104A80008091E8008E778093E80080E2FE01A8EF35
:104A9000B1E001900D928A95E1F7DF91CF910895F1
:104AA00088E19DE00E94D00780912602811109C013
:104AB0000E94EE280E944B298091E200846080933E
:104AC000E200089584E19DE00E94D0071092260242
:104AD000089580E19DE00C94D0078CE09DE00C945B
:104AE000D00788E09DE00E94D0070C94A61B20917F
:104AF000F6012F5F822F62E30E94F42B992319F0B5
:104B00002093F60108951092F6018091F701882311
:104B100071F180912702843041F58091E9008F7016
:104B20002091EC00922F917020FD90E8892B93E06A
:104B30009093E9009091EB0090FF14C09091EE00EB
:104B400097FF10C09091E80095FF03C01092F1000C
:104B5000F9CF9091E80090FF05C09091E8009E7712
:104B60009093E8008F708093E9001092F701089508
:104B700042E061EC81E00E94682842E261EC82E060
:104B80000E94682842E261EC83E00C9468288091DE
:104B90002902833009F460C030F4813071F0823032
:104BA00009F499C008958A3009F485C08B3009F45E
:104BB0006BC0893009F0A7C020C080912802813ADB
:104BC00009F0A1C08091E800877F8093E800809180
:104BD0002C0290912D02892B21F460E288EF91E064
:104BE00003C060E080E090E070E00E94A427809124
:104BF000E8008B778093E800089580912802813245
:104C000009F081C080912C0290912D02029708F04A
:104C10007AC08091E800877F8093E8008091E80067
:104C200082FD05C0809127028111F8CF6CC02091D0
:104C3000F3008091F20090E0922B029729F480918A
:104C4000F1008B7F813021F48091F1008093180274
:104C50008091E8008B7753C080912802813A09F057
:104C600052C080912C0290912D02892B09F04BC0EB
:104C70008091E800877F8093E8008091E80080FFC2
:104C8000FCCF8091120136C0809128028132D9F583
:104C900080912C0290912D02892BA9F58091E8003A
:104CA000877F8093E8000E949D2880912A0280934C
:104CB00012010C94191380912802813221F5809100
:104CC000E800877F8093E8000E949D2880912B0256
:104CD00080931902089580912802813AA1F480916D
:104CE000E800877F8093E8008091E80080FFFCCF98
:104CF000809119028093F1008091E8008E77809373
:104D0000E8000C949D28089584B7877F84BF0FB670
:104D1000F894A8958091600088618093600010925B
:104D200060000FBE80E880936100109261000E94D5
:104D3000070E0E94EE280E944B298091E2008460B9
:104D40008093E2008AE094E20E94F91978940E942C
:104D5000D92B0E940F0E88E091E00E94590D87EF39
:104D60009CE00E94D00780912702853089F483EF70
:104D70009CE00E94D0070E945C1B80912502882342
:104D800091F30E948E1B882371F30E944327EBCF7F
:104D90000E943F0EE8CF0C94CD26292F33272330D5
:104DA0003105C9F064F42130310581F0223031053C
:104DB00009F049C08BE590E026E63DE048C021328D
:104DC000310521F12232310571F13DC082E190E0DF
:104DD00021EC3DE03CC099278130910571F02CF425
:104DE000892B89F5E2E6FDE00DC08230910541F0A6
:104DF000039749F5ECE1FDE005C0E2E4FDE002C007
:104E0000E2E2FDE0849190E09F0121C063307105F2
:104E1000D0F4660F771FFB01EA5DFE4F20813181E0
:104E200089E090E014C06330710568F4FB01EE0F77
:104E3000FF1FE05EFE4F20813181FB01E35EFE4FEC
:104E4000808190E004C080E090E020E030E0FA0152
:104E50003183208308950895CF93C82F0E942B2774
:104E6000C0931A02CF91089580912702843011F0E7
:104E700081E0089582E0089580911A02811102C0B4
:104E80000C943427089580E189BD82E189BD09B47D
:104E900000FEFDCF8091D8008F7D8093D800809157
:104EA000E00082608093E0008091E00081FDFCCF13
:104EB0000895CF92DF92EF92FF920F931F93CF93BB
:104EC000DF93EC018B016A010E94BC28811133C081
:104ED000C114D10439F0F60180819181081B190BAE
:104EE000C80FD91FE12CF12C0115110519F1809182
:104EF000E80085FD16C08091E8008E778093E80079
:104F0000C114D10449F0F60180819181E80EF91EA7
:104F1000F182E08285E00FC00E94BC28882321F343
:104F20000AC089918093F10001501109FFEFEF1A37
:104F3000FF0ADACF80E0DF91CF911F910F91FF90B0
:104F4000EF90DF90CF90089520912E0230912F02A4
:104F50002617370748F06115710539F42091E800EC
:104F60002E772093E80001C0B90140E0611571057A
:104F7000A9F120912702222309F443C0253009F426
:104F800042C02091E80023FD40C02091E80022FDAE
:104F900032C02091E80020FFE9CF4091F30020913A
:104FA000F20030E0342BFC01CF016115710559F09E
:104FB0002830310540F481918093F10061507109EE
:104FC0002F5F3F4FF1CF41E02830310509F040E03D
:104FD0002091E8002E772093E800C8CF4111C9CF77
:104FE0000AC080912702882361F0853061F08091AA
:104FF000E80083FD0AC08091E80082FFF2CF80E0E4
:10500000089582E0089583E0089581E00895209155
:105010002E0230912F022617370748F061157105CF
:1050200039F42091E8002E772093E80001C0B901FF
:10503000FC0120E06115710591F180912702882320
:1050400009F440C0853009F43FC08091E80083FD39
:105050003DC08091E80082FD2FC08091E80080FF74
:10506000E9CF2091F3008091F20090E0922B61153E
:10507000710559F08830910540F424912093F10096
:105080003196615071090196F2CF21E0089709F03D
:1050900020E08091E8008E778093E800CBCF21114B
:1050A000CCCF0AC080912702882361F0853061F05F
:1050B0008091E80083FD0AC08091E80082FFF2CF72
:1050C00080E0089582E0089583E0089581E00895E6
:1050D000982F973058F59093E900981739F0709110
:1050E000EC002091ED005091F00003C0242F762FAA
:1050F00050E021FF19C03091EB003E7F3093EB0070
:105100003091ED003D7F3093ED003091EB00316048
:105110003093EB007093EC002093ED005093F0007F
:105120002091EE0027FF07C09F5FD3CF8F70809341
:10513000E90081E0089580E008958091280287FFCA
:1051400011C08091E80082FD05C080912702811185
:10515000F8CF11C08091E8008B770BC080912702B7
:10516000882349F08091E80080FFF8CF8091E80023
:105170008E778093E80008952091E4003091E50057
:1051800095E64091EC00842F817040FF22C0809111
:10519000E80080FD1CC080912702882391F08530B3
:1051A00091F08091EB0085FD10C04091E40050919A
:1051B000E5004217530729F39A01915011F784E053
:1051C000089582E0089583E0089581E0089580E0E5
:1051D00008954091E80042FFDECF08950E945C29C7
:1051E0000E946429E0EEF0E0808181608083E8ED38
:1051F000F0E080818F77808319BCA7EDB0E08C91BF
:105200008E7F8C9380818F7E8083109226020895FA
:105210000F931F93CF93DF930E945C290E94642910
:10522000C8EDD0E088818F77888388818068888303
:1052300088818F7D888319BC1092270210922302E7
:10524000109225021092240200EE10E0F8018081F5
:105250008B7F808388818160888342E060E080E08A
:105260000E946828E1EEF0E080818E7F8083E2EE8C
:10527000F0E0808181608083808188608083F80194
:1052800080818E7F8083888180618883DF91CF9148
:105290001F910F910895E8EDF0E080818F7E80836B
:1052A000E7EDF0E080818160808384E082BF81E06F
:1052B000809326020C940829E8EDF0E080818E7F2F
:1052C00080831092E20008951092DA001092E100BB
:1052D00008951F920F920FB60F9211242F933F93B0
:1052E0004F935F936F937F938F939F93AF93BF93EE
:1052F000EF93FF938091E10082FF0BC08091E20069
:1053000082FF07C08091E1008B7F8093E1000E94C3
:1053100077258091DA0080FF1FC08091D80080FF40
:105320001BC08091DA008E7F8093DA008091D900D3
:1053300080FF0DC080E189BD82E189BD09B400FE16
:10534000FDCF81E0809327020E94502505C019BC43
:10535000109227020E9462258091E10080FF19C00F
:105360008091E20080FF15C08091E2008E7F8093E3
:10537000E2008091E20080618093E2008091D80099
:1053800080628093D80019BC85E0809327020E9438
:105390006D258091E10084FF30C08091E20084FFA0
:1053A0002CC080E189BD82E189BD09B400FEFDCF3A
:1053B0008091D8008F7D8093D8008091E1008F7E0E
:1053C0008093E1008091E2008F7E8093E2008091E3
:1053D000E20081608093E20080912302882311F033
:1053E00084E007C08091E30087FD02C081E001C036
:1053F00083E0809327020E9471258091E10083FF62
:1054000029C08091E20083FF25C08091E100877F61
:105410008093E10082E08093270210922302809122
:10542000E1008E7F8093E1008091E2008E7F809387
:10543000E2008091E20080618093E20042E060E05F
:1054400080E00E9468288091F00088608093F000DE
:105450000E946925FF91EF91BF91AF919F918F912C
:105460007F916F915F914F913F912F910F900FBE60
:105470000F901F9018951F920F920FB60F92112444
:105480002F933F934F935F936F937F938F939F934C
:10549000AF93BF93CF93DF93EF93FF93C091E90056
:1054A000CF708091EC00D82FD17080FDD0E81092A1
:1054B000E9008091F000877F8093F00078940E944B
:1054C0007F2A1092E9008091F00088608093F000BC
:1054D000CD2BCF70C093E900FF91EF91DF91CF9179
:1054E000BF91AF919F918F917F916F915F914F91FC
:1054F0003F912F910F900FBE0F901F9018951F9303
:10550000CF93DF93CDB7DEB7AA970FB6F894DEBF7F
:105510000FBECDBFE8E2F2E088E08E0F9091F1007F
:1055200091938E13FBCF0E94C7258091E80083FFE3
:1055300028C18091280290912902492F50E04A30D9
:10554000510508F01EC1FA01E652FF4F0C94142CCD
:10555000803821F0823809F014C108C080912402FB
:1055600090912502992389F082600FC080912C02CE
:105570008F70873008F005C18093E9008091EB00BF
:1055800085FB882780F91092E9009091E800977FC9
:105590009093E8008093F1001092F100D0C0282F82
:1055A0002D7F09F0EEC0882319F0823061F0E9C048
:1055B00080912A02813009F0E4C0933009F080E044
:1055C000809325022EC080912A0281112AC08091E9
:1055D0002C028F702FEF280F263008F0D2C0809356
:1055E000E9002091EB0020FF1CC0933021F4809152
:1055F000EB00806214C09091EB0090619093EB00FF
:1056000021E030E0A90102C0440F551F8A95E2F75E
:105610004093EA001092EA008091EB00886080934A
:10562000EB001092E9008091E800877F8093E8000A
:105630000E949D28A6C08111A4C010912A021F7744
:105640008091E3008078812B8093E3008091E800D3
:10565000877F8093E8000E949D288091E80080FF6A
:10566000FCCF8091E30080688093E300111102C0B9
:1056700082E001C083E08093270283C0805882309B
:1056800008F07FC080912A0290912B028C3D53E05C
:10569000950779F583E08A838AE289834FB7F89486
:1056A000DE01139620E03EE051E2E32FF0E050935C
:1056B0005700E49120FF03C0E295EF703F5FEF7069
:1056C0008E2F90E0EA3010F0C79601C0C0968D93FF
:1056D0009D932F5F243149F74FBF8091E800877F6A
:1056E0008093E8006AE270E0CE0101960E94A42750
:1056F00015C060912C0270912D02AE014F5F5F4F7B
:105700000E94CB26BC01892BE1F19091E800977FA4
:105710009093E80089819A810E9407288091E8008F
:105720008B778093E8002DC0803859F58091E80090
:10573000877F8093E800809123028093F10080911D
:10574000E8008E7773CF81111CC090912A029230AD
:10575000C0F48091E800877F8093E8009093230253
:105760000E949D2880912302811106C08091E30050
:1057700087FD02C081E001C084E0809327020E947F
:10578000B8258091E80083FF0AC08091E800877FF8
:105790008093E8008091EB0080628093EB00AA96F2
:1057A0000FB6F894DEBF0FBECDBFDF91CF911F9132
:1057B0000895CF93809127028823A1F0C091E9003A
:1057C000CF709091EC00892F817090FD80E8C82BFC
:1057D0001092E9008091E80083FD0E947F2ACF703B
:1057E000C093E900CF910895991B79E004C0991FF7
:1057F000961708F0961B881F7A95C9F7809508952B
:1058000097FB072E16F4009407D077FD09D00E946D
:105810001A2C07FC05D03EF4909581959F4F089572
:10582000709561957F4F0895EE0FFF1F0590F491DD
:10583000E02D0994AA1BBB1B51E107C0AA1FBB1F87
:10584000A617B70710F0A61BB70B881F991F5A950C
:10585000A9F780959095BC01CD010895F999FECFE7
:1058600092BD81BDF89A992780B50895A8E1B0E06E
:1058700042E050E00C94622C262FF999FECF92BDA5
:1058800081BDF89A019700B4021639F01FBA20BD05
:105890000FB6F894FA9AF99A0FBE08950396272F37
:1058A0000E943D2C0E943C2C252F0E943D2C242F31
:1058B0000C943D2C0196272F0E943D2C0C943C2CDF
:1058C000DC01CB01FC01F999FECF06C0F2BDE1BDC0
:1058D000F89A319600B40D9241505040B8F70895AF
:0458E000F894FFCF6A
:1058E400C4012808140A321E07240925DE24A8242A
:1058F4006D24010102030405060708090040C022C3
:0C590400B50EF50DD30D780D910DAA0D18
:00000001FF
