:100000000C9434070C947B070C947B070C947B07AF
:100010000C947B070C947B070C947B070C947B0758
:100020000C947B070C947B070C9422290C94F429E4
:100030000C94671B0C947B070C947B070C947B0738
:100040000C947B070C947B070C947B070C947B0728
:100050000C947B070C94DB1B0C947B070C947B07A4
:100060000C947B070C947B070C947B070C947B0708
:100070000C947B070C947B070C947B070C947B07F8
:100080000C947B070C947B070C947B070C947B07E8
:100090000C947B070C947B070C947B070C947B07D8
:1000A0000C947B070C947B070C947B07CD09CF093C
:1000B000DA09D109D309D509D709D909DC09DE093B
:1000C000E009EB09E209E409E609E809EA09ED09B2
:1000D0005310531085108510C310E31053125312A0
:1000E00025115312D211D2114312531253124C1232
:1000F000DF11DF11DF11DF11DF11DF11DF11DF1180
:10010000DF11DF11DF11DF11DF11DF11DF11DF116F
:10011000F011FE1105120C121612E212E212F41284
:10012000F412EB12F412F412F412E212E212F012D0
:10013000F412F412F01272216021842126205D2233
:100140005D225D215D225D22B1215D22C5213D221E
:100150005D225D225D225D22F9215D225D22E22188
:100160005D229D215D225D22572257225722572270
:100170005722572257225722572259225D22722195
:1001800055215D225D225D225D225D225D225D2280
:100190005D225D225D2259225D225D225D215D226C
:1001A0005522552255225522552255225522552297
:1001B00055225922612A882A7A2B882A7A2BD42A16
:1001C000F72A7A2B4D2B5C2B0A0025303136620042
:1001D0003A200025303258000A722F632030313225
:1001E000333435363738394142434445460A0029CD
:1001F000001E001F002000210022002F000000230D
:100200000024002500260027002E002B002F00369A
:1002100000370013001C000000000009000A00065F
:100220000015000F0038002A000400120008001812
:10023000000C000000260807000B00170011001634
:10024000002D003362340014000D000E001B00006E
:10025000004600050010001A0019001D003200E0E1
:10026000000000E200E300E0002C000000E10028B4
:10027000000151E600E0006500E40000003A003BA8
:10028000003C003D003E00000000003F00400041F7
:100290000042004300440000000000000000000095
:1002A0000000000000000000004B0052004E00461D
:1002B0000045000000260227022F02300200000045
:1002C0000000004A00500051004F004900000000AB
:1002D0000000000000000000000000000000004DD1
:1002E000000000000000000000000000000000000E
:1002F00000000000000000000000000000010000FD
:100300000000000000000044454255473A20656E59
:1003100061626C65642E0A000A00253032582000A4
:100320006B6579626F6172645F7265706F72743A47
:1003300020000A0025303258006B6579626F6172C7
:10034000645F7365745F6C65643A20004F6E65731B
:10035000686F743A2074696D656F75740A0064651E
:100360006C5F6B65795F6269743A2063616E2774B4
:100370002064656C3A20253032580A006164645F5D
:100380006B65795F6269743A2063616E27742061DE
:1003900064643A20253032580A00290A0025750085
:1003A0002F002575005D28002564002000256400CD
:1003B000200025640020002564007C002530325890
:1003C000006D6F7573656B6579205B62746E7C7808
:1003D0002079207620685D287265702F61636C2912
:1003E0003A205B006D6B5F776865656C5F74696D63
:1003F000655F746F5F6D6178203D2025640A006D34
:100400006B5F776865656C5F6D61785F737065655C
:1004100064203D2025640A006D6B5F74696D655F23
:10042000746F5F6D6178203D2025640A006D6B5FFD
:100430006D61785F7370656564203D2025640A00F6
:100440006D6B5F696E74657276616C203D2025640A
:100450000A006D6B5F64656C6179203D2025640A3C
:10046000006D6B5F776865656C5F74696D655F745F
:100470006F5F6D6178203D2025640A006D6B5F77AA
:100480006865656C5F6D61785F7370656564203D5C
:100490002025640A006D6B5F74696D655F746F5F22
:1004A0006D6178203D2025640A006D6B5F6D617879
:1004B0005F7370656564203D2025640A006D6B5F85
:1004C000696E74657276616C203D2025640A006D4A
:1004D0006B5F64656C6179203D2025640A000A0029
:1004E000257500363A20776865656C5F74696D65BF
:1004F0005F746F5F6D61783A20000A0025750035E2
:100500003A20776865656C5F6D61785F73706565CB
:10051000643A20000A00257500343A2074696D653C
:100520005F746F5F6D61783A20000A0025750033B3
:100530003A206D61785F73706565643A20000A0047
:10054000257500323A20696E74657276616C286D8B
:1005500073293A20000A00257500313A2064656C41
:100560006179282A31306D73293A20000A092D203B
:1005700056616C756573202D0A004D3E004D256453
:100580003E20003F007365742064656661756C747D
:100590000A00433E200077686572652064656C74CC
:1005A000613A20637572736F723D25642C20776801
:1005B00065656C3D25640A53656520687474703AFE
:1005C0002F2F656E2E77696B6970656469612E6F78
:1005D00072672F77696B692F4D6F7573655F6B65F8
:1005E00079730A000A092D204D6F7573656B657963
:1005F000202D0A4553432F713A09717569740A31E8
:100600003A0964656C6179282A31306D73290A32A0
:100610003A09696E74657276616C286D73290A33C4
:100620003A096D61785F73706565640A343A0974DC
:10063000696D655F746F5F6D61780A353A09776837
:1006400065656C5F6D61785F73706565640A363AE5
:1006500009776865656C5F74696D655F746F5F6D60
:1006600061780A0A703A097072696E742076616C5A
:100670007565730A643A097365742064656661750B
:100680006C74730A75703A092B310A646F776E3A8D
:10069000092D310A706775703A092B31300A70677D
:1006A000646F776E3A092D31300A0A73706565649C
:1006B000203D2064656C7461202A206D61785F7331
:1006C00070656564202A2028726570656174202F2A
:1006D0002074696D655F746F5F6D6178290A003FF2
:1006E000004D3E2000433E20004C25640A00746902
:1006F0006D65725F72656164333228293A20253056
:10070000346C580A006B65796D61705F636F6E665B
:1007100069672E6E6B726F3A2025580A006B6579F7
:10072000626F6172645F69646C653A2025580A00E3
:100730006B6579626F6172645F70726F746F636F03
:100740006C3A2025580A00686F73745F6B65796294
:100750006F6172645F6C65647328293A2025580ABA
:10076000000A092D20537461747573202D0A004707
:1007700043433A20342E392E32204156522D4C49D3
:1007800042433A20312E382E3073766E2041565235
:100790005F415243483A20617672350A004F505407
:1007A000494F4E533A204C554641204D4F555345E5
:1007B0004B45592045585452414B455920434F4EC3
:1007C000534F4C4520434F4D4D414E44204E4B52CC
:1007D0004F20343039360A004255494C443A2022E1
:1007E000302E362E3332352D322D67336639643252
:1007F0003022202832303A34353A3237204D617277
:100800002032392032303139290A005649443A2001
:10081000307846454544284D6174746961204461CF
:100820006C2042656E29205049443A203078363099
:100830003630285265646F785F776972656C6573CE
:100840007329205645523A203078303030310A0032
:10085000444553433A20712E6D2E6B2E206B6579E3
:10086000626F617264206669726D7761726520667D
:100870006F72205265646F782D770A000A092D2067
:1008800056657273696F6E202D0A000A092D204388
:100890006F6E736F6C65202D0A4553432F713A09B3
:1008A000717569740A6D3A096D6F7573656B657959
:1008B0000A000A092D204D61676963202D0A443A18
:1008C000094465627567204D6573736167652054DF
:1008D0006F67676C650A583A094D617472697820D0
:1008E0004465627567204D6F646520546F67676C5F
:1008F00065202D2053686F77206B65797072657362
:1009000073657320696E206D6174726978206772F7
:1009100069640A4B3A094B6579626F6172642044DD
:100920006562756720546F67676C65202D2053687A
:100930006F77206B65797072657373207265706F65
:1009400072740A4D3A094465627567204D6F75737C
:100950006520546F67676C650A563A09566572736D
:10096000696F6E0A533A095374617475730A433A96
:1009700009416374697661746520436F6E736F6CAF
:1009800065204D6F64650A46312D4631303A095372
:10099000776974636820746F204C617965722030C8
:1009A0002D392028463130203D204C30290A302D69
:1009B000393A0953776974636820746F204C617900
:1009C000657220302D390A47524156453A0953770E
:1009D0006974636820746F204C61796572203020DF
:1009E00028616C7465726E617465290A423A094A1D
:1009F000756D7020746F20426F6F746C6F616465E9
:100A0000720A4553433A094A756D7020746F20424B
:100A10006F6F746C6F616465722028616C746572AD
:100A20006E617465290A453A095072696E742045F1
:100A30004550524F4D2053657474696E67730A4276
:100A400053504143453A09436C6561722045455016
:100A5000524F4D0A4E3A094E4B524F20546F676722
:100A60006C650A000A002575002E6E6B726F3A20C5
:100A7000000A002575002E737761705F6261636BF9
:100A8000736C6173685F6261636B73706163653A15
:100A900020000A002575002E737761705F67726110
:100AA00076655F6573633A20000A002575002E6E37
:100AB0006F5F6775693A20000A002575002E73770D
:100AC00061705F72616C745F726775693A20000AC9
:100AD000002575002E737761705F6C616C745F6CBC
:100AE0006775693A20000A002575002E63617073EE
:100AF0006C6F636B5F746F5F636F6E74726F6C3A71
:100B000020000A002575002E737761705F636F6E99
:100B100074726F6C5F636170736C6F636B3A20000B
:100B20000A0025303258006B65796D61705F636F24
:100B30006E6669672E7261773A20000A002575009B
:100B40002E6D6F7573653A20000A002575002E6BB7
:100B50006579626F6172643A20000A002575002E83
:100B60006D61747269783A20000A002575002E655F
:100B70006E61626C653A20000A00253032580064CC
:100B8000656275675F636F6E6669672E7261773A3B
:100B900020000A0025750064656661756C745F6CE1
:100BA000617965723A20003F004E4B524F3A206FF8
:100BB00066660A004E4B524F3A206F6E0A000A6D6D
:100BC0006F7573653A206F66660A000A6D6F7573FC
:100BD000653A206F6E0A000A6B6579626F61726414
:100BE0003A206F66660A000A6B6579626F6172640B
:100BF0003A206F6E0A000A6D61747269783A206F4C
:100C000066660A000A6D61747269783A206F6E0A2E
:100C1000000A64656275673A206F66660A000A64B6
:100C2000656275673A206F6E0A000A0A4A756D7030
:100C3000696E6720746F20626F6F746C6F6164659A
:100C4000722E2E2E2000433E2000436C6561726997
:100C50006E6720454550524F4D0A006565636F6EC3
:100C60006669673A0A005B735D004B6579626F6184
:100C700072642073746172742E0A005B575D005BAE
:100C8000535D005B525D005B445D005B435D0004AF
:100C900003300000001E035200650064006F0078FE
:100CA000005F0077006900720065006C00650073EA
:100CB00000730000001E034D0061007400740069A1
:100CC0000061002000440061006C002000420065CB
:100CD000006E0000000403090409025B0003010028
:100CE000A0FA09040000010301010009211101001B
:100CF000012240000705810308000A0904010001E0
:100D00000300000009211101000122C00007058233
:100D10000320000A09040200020300000009211157
:100D200001000122220007058303200001070503BB
:100D3000032000011201100100000008EDFE6060B8
:100D40000100010203010631FF0974A101097515B3
:100D50000026FF009520750881020976150026FF00
:100D600000952075089102C005010902A1018502C4
:100D70000901A1000509190129051500250195059D
:100D80007501810295017503810105010930093161
:100D90001581257F95027508810609381581257F03
:100DA000950175088106050C0A38021581257F9585
:100DB0000175088106C0C005010980A101850316DF
:100DC00001002603001A81002A8300751095018115
:100DD00000C0050C0901A1018504160100269C0232
:100DE0001A01002A9C02751095018100C0050109B5
:100DF00006A1018505050719E029E71500250195DC
:100E000008750181020508190129059505750191EB
:100E1000029501750391010507190029EF150025B9
:100E20000195F075018102C005010906A1010507C0
:100E300019E029E715002501950875018102950142
:100E400075088101050819012905950575019102AB
:100E50009501750391010507190029FF150026FF6B
:100E600000950675088100C011241FBECFEFDAE09F
:100E7000DEBFCDBF04B603FE27C080913002909143
:100E80003102A0913202B09133028730904BA740DB
:100E9000B04BD1F410923002109231021092320213
:100EA0001092330214BE84B7877F84BF0FB6F894C4
:100EB000A895809160008861809360001092600026
:100EC0000FBEE0E0F8E3099511E0A0E0B1E0E6E54F
:100ED000F8E502C005900D92AC32B107D9F722E0D7
:100EE000ACE2B1E001C01D92A033B207E1F70E946D
:100EF0003D260C94292C0C940000FF93EF93E09175
:100F00002C01F0912D01309709F00995EF91FF9197
:100F10000895FC018591803011F0EFDFFBCF08953B
:100F2000FF27E0E230E247FF0CC0419597FF09C080
:100F3000EDE26095709580959095611D711D811D04
:100F4000911D27FF02C0219530E350E2AA27660FCA
:100F5000771F881F991FAA1FA41710F0A41B639561
:100F60005A95A9F7AA3008F0A95FA05DAF93F39551
:100F7000611571058105910541F7ED3211F4EF938B
:100F8000F395F21718F43F93F395FBCF8F91B5DFEC
:100F9000FA95E1F70895E991F9918591803021F072
:100FA000853219F0AADFF9CF089520E0E894559131
:100FB0005532C1F3503311F4689455915A3348F4C3
:100FC000505390F3220F022E220F220F200D250FD7
:100FD000F4CF0EF4219589919991533619F3533733
:100FE00029F1533559F1BC0188279927E8945C36DB
:100FF00021F48991999168945591543639F446EFCA
:101000007EF077FF0DC08FEF9FEF0AC055374AE0A3
:1010100039F0583540E121F0523642E009F00895A8
:10102000FF93EF937DDFEF91FF91B7CFFF93EF93A6
:10103000FC0181918030B9F360DFFBCFFF93EF9328
:1010400068DFF1CFDF93CF93CDB7DEB72596A3DF6F
:10105000CF91DF910895089508950C94FA08CF93E5
:10106000DF93CDB7DEB72B970FB6F894DEBF0FBE78
:10107000CDBF1092CC001092CD0088E18093C900C2
:1010800086E08093CA0083E78093CE00FE0131960C
:101090008BE0DF011D928A95E9F7DF0140E050E027
:1010A000BA018BE08E0F9091C80097FD0AC04F5F88
:1010B0005F4F6F4F7F4F413197E2590761057105CF
:1010C00090F39091CE009D938A13EDCF8B85803E57
:1010D00091F4AEE2B1E09E01255F3F4F818140E88F
:1010E000849FC00111244081842B8D939D9332965F
:1010F000E217F30799F70E94020981E02B960FB6D9
:10110000F894DEBF0FBECDBFDF91CF910895E82FD9
:10111000F0E0EE0FFF1FE25DFE4F808191810895A8
:10112000CF92DF92EF92FF920F931F93CF93DF93B3
:1011300088ED91E00E9489078EE2E82E81E0F82E8A
:10114000C0E0D0E093EDC92E91E0D92E0AEC11E079
:10115000DF93CF93DF92CF920E94220880ED91E03F
:101160000E948907F701819191917F010E94CD1919
:101170009F938F931F930F930E94220888EC91E016
:101180000E94890721968DB79EB708960FB6F894EE
:101190009EBF0FBE8DBFC530D105D1F6DF91CF9177
:1011A0001F910F91FF90EF90DF90CF9008951092D4
:1011B000CC001092CD0088E18093C90086E0809336
:1011C000CA000895519A599A80B3806380BB81B355
:1011D000806381BB08950E942B080E94D7080C945D
:1011E000E2080C942C08089581E0089581E00895A8
:1011F0000C94F6080E94E719811102C00E94611A3E
:101200000C94EB080C94F1080C94F30808950E94D8
:10121000D2120E9406092FEF84E39CE02150804007
:101220009040E1F700C0000087E797E7909301083E
:10123000809300080C94011CFF920F931F93CF938F
:10124000DF938C01FC01C081D1818091500181111B
:1012500013C08281882349F0CE010E940718F82E1E
:10126000682FCE010E94AC1704C0CE010E94DB178C
:10127000F82EBE018F2D04C0CE010E940718BE01BA
:101280000E94A10AEC01B8010E94F808882309F421
:101290004DC1C73DFCE5DF0709F4AFC0B0F4C5316F
:1012A000ECE5DE0768F4C230FCE5DF0708F053C068
:1012B000C1158CE5D80701F1C130DC4529F129C100
:1012C000C631DC4509F4FEC024C1CC3D8CE5D8070D
:1012D00091F150F4C83DFCE5DF0709F4B1C0C93D08
:1012E000DC4509F4D4C015C1CD3DECE5DE0751F174
:1012F000CE3DDC45C1F00DC1F8018281882309F49F
:1013000015C10E94070912C1F8018281882309F4DE
:101310000DC18091E70181608093E70187E093E050
:101320000E94890703C1F8018281882309F4FEC065
:101330000E94611AFBC0F8018281882309F4F6C07B
:1013400080E006C0F8018281882309F4EFC082E0C2
:101350000E94E526EBC0F8018281882309F4DEC0F3
:101360000E94E719811102C00E94611A0E94FA19B5
:1013700090E09093220280932102FE01E350FC450D
:10138000E231F10530F4EA5AFF4F809121020C94CA
:10139000CD2B80912102816027C0826025C08460AE
:1013A00023C0806121C080621FC080641DC080682E
:1013B0001BC08460886018C08E7F16C08D7F14C0EB
:1013C0008B7F12C08F7E10C08F7D0EC08F7B0CC0B4
:1013D0008F770AC08B7F877F07C087FB222720F982
:1013E00091E0922790FB87F980932102809121025E
:1013F0000E94FE190E94D21299C0F80182818823AE
:1014000051F010923D010E94991B90933A018093F4
:10141000390182E022C080913D0181110FC080918D
:10142000390190913A010E94B11B883C910530F43A
:1014300086E20E94F60E86E20E94DB0F82E024C064
:10144000F8018281882361F010923E010E94991B6D
:1014500090933C0180933B0180E20E940F1066C094
:1014600080913E0181110FC080913B0190913C0120
:101470000E94B11B883C910530F487E20E94F60E71
:1014800087E20E94DB0F80E20E9416104FC0F80135
:1014900082818111D9CF80913E018111F4CF809159
:1014A0003B0190913C010E94B11B883C910558F78B
:1014B00080E20E94161088E20E94F60E88E20E94E6
:1014C000DB0F34C00E94D518282FF801828140918B
:1014D000000150910101882379F02A7A91E009F402
:1014E00090E090933801911102C069E201C065E378
:1014F000CA010E94EA1A0AC080913801811102C013
:1015000069E201C065E3CA010E94F51A0E94301920
:101510000DC081E080933D0180933E01C801DF91C1
:10152000CF911F910F91FF900C94F40880E0DF9110
:10153000CF911F910F91FF90089580E090E0089562
:1015400008959EE0799FF001112496E4899FE00DB3
:10155000F11D1124E60FF11DEE0FFF1FE151FE4FAB
:10156000859194910895880F991FFC01E85EFC4FC6
:10157000859194910895CF93DF930E94A10A0E94D0
:10158000720CEC01811520E59207F0F5811530E42D
:10159000930708F024C1883E910500F5803E91052F
:1015A00008F09CC1883A910570F4853A910508F0DD
:1015B0009FC08130910509F491C108F442C104979C
:1015C00008F08CC13EC18F3B910508F49CC0803C63
:1015D000910508F436C1805C9109F4C0811540E2A0
:1015E000940758F4C11581E0D80708F077C1C03FCF
:1015F000D10508F426C1D06571C1811520E3920799
:1016000008F0E4C09F70DEC0811535E5930708F04F
:1016100044C0811544E5940708F0F8C0C11582E57F
:10162000D80708F5C11521E5D20708F0DBC08C2FDB
:10163000837021E030E002C0220F331F8A95E2F769
:101640003C68CE0174E0969587957A95E1F78370B2
:10165000382BCF70C695C69580E2C89FE001112453
:10166000C22BD32B3BC12C2F26952695CE01837000
:101670009927C115D34508F0BAC040E2249F9001D4
:101680001124C1E0D0E002C0CC0FDD1F8A95E2F743
:101690002C2B3D2BE901DC6821C1811549E594071C
:1016A000A0F4C11588E5D80708F0B5C0C11526E536
:1016B000D20708F0C6C08C2F0E94EF0C8F71C82F84
:1016C000D0E0DC2FCC27D06209C181153AE5930721
:1016D00008F4A6C090568115904208F0B2C08D2F34
:1016E0008F710E94EF0CDD27D0628F71D82BF6C06E
:1016F000853A910509F4A8C0863A910509F0A7C07A
:10170000C2E8D0E4EBC0883A910509F4A3C0893A55
:10171000910509F4A2C08A3A910509F4A1C08B3A57
:10172000910509F4A0C08C3A910509F49FC08B3B48
:10173000910509F49EC08C3B910509F49DC08D3A3A
:10174000910509F49CC0803B910509F49BC08E3A39
:10175000910509F49AC08F3A910509F499C0813B2B
:10176000910509F498C0823B910509F497C0833B29
:10177000910509F496C0843B910509F495C0853B19
:10178000910509F494C0863B910509F493C0873B09
:10179000910509F492C0883B910509F491C0893BF9
:1017A000910509F490C08D3B910509F48FC08E3BE3
:1017B000910509F48EC08A3B910509F48DC0C0E003
:1017C000D4E48CC00E94B30AEC0188C09927D3FFEF
:1017D00003C0EC01D86C82C0EC01D06C7FC0DF701C
:1017E000D06A7CC0DC2FCC27C16FD06A77C040E2C2
:1017F000249F90011124C1E0D0E002C0CC0FDD1F76
:101800008A95E2F7C22BD32BDA6868C0D82FCC2791
:10181000C46FD06A63C0DC2FCC27C06FD06A5EC0B3
:101820008F700E94EF0C94E0D695C7959A95E1F7DA
:10183000CF70D0E0DC2FCC27D06A8F70806EC82BA1
:101840004DC0C0E0D0E04AC0C1E8D0E447C0C3E822
:10185000D0E444C0C2EED4E441C0C9EED4E43EC0FA
:10186000CAEED4E43BC0C5EBD4E438C0C6EBD4E444
:1018700035C0C3EBD4E432C0C4EBD4E42FC0C7EB13
:10188000D4E42CC0CCECD4E429C0CDECD4E426C004
:10189000C3E8D5E423C0CAE8D5E420C0C2E9D5E452
:1018A0001DC0C4E9D5E41AC0C1E2D6E417C0C3E242
:1018B000D6E414C0C4E2D6E411C0C5E2D6E40EC03A
:1018C000C6E2D6E40BC0C7E2D6E408C0CFE6D4E453
:1018D00005C0C0E7D4E402C0CAE2D6E4CE01DF917D
:1018E000CF9108958238910549F1B0F48133910583
:1018F00009F458C048F48932910509F44EC08A327F
:10190000910509F454C008958533910509F440C048
:101910008933910599F00895833E910529F138F4B2
:10192000803E910591F0823E9105A1F00895863E9A
:101930009105F9F0873E910531F10895209121023A
:1019400020FD3AC021FD38C008958091210280FD1C
:1019500035C032C08091210282FF32C080912102C5
:1019600084FD30C083EE39C08091210282FD28C001
:10197000F5CF8091210283FF27C08091210284FD51
:1019800021C087EE2AC08091210283FD1DC0F5CFC2
:101990008091210285FD1AC01BC08091210285FD26
:1019A00017C014C08091210286FD14C015C080911B
:1019B000210286FD11C00EC080EE0FC089E30DC06C
:1019C00082EE0BC080E009C086EE07C089E205C048
:1019D00085E303C08AE201C081E390E0089590911D
:1019E000210292FF0DC0282F2871283019F4877F1B
:1019F000846006C0282F2471243011F48B7F886006
:101A000093FF0DC0282F2871283119F4877E846137
:101A100006C0282F2471243111F48B7E886194FD37
:101A2000877E089590934401809343010895E09147
:101A30004301F0914401309721F00190F081E02DB5
:101A4000099480E00895EF92FF921F93CF93DF9364
:101A5000FC01A0914301B0914401109709F442C0E8
:101A600080911201882341F08091210287FF04C0F8
:101A70008081818385E08083EF011296ED91FC9156
:101A80001397CE0109958091E70182FF2BC080FF5B
:101A900004C080E293E00E94890718E08AE1E82E02
:101AA00083E0F82E8091E70180FF0BC088811F92B0
:101AB0008F93FF92EF920E9422080F900F900F9049
:101AC0000F90115021961111EDCF8091E70180FF09
:101AD00009C088E193E0DF91CF911F91FF90EF90D3
:101AE0000C948907DF91CF911F91FF90EF9008959B
:101AF000E0914301F0914401309739F022E0DC019C
:101B00002C930480F581E02D0994089520914101E2
:101B1000309142018217930771F0909342018093B4
:101B20004101E0914301F0914401309721F006809A
:101B3000F781E02D0994089520913F0130914001F3
:101B40008217930771F09093400180933F01E091D9
:101B50004301F0914401309721F00084F185E02D9C
:101B60000994089585B7806885BF85B7806885BF6B
:101B70000895089508950C94BA0D08950C94BD0D20
:101B80000E94B20D0E94B90D0C94BB0D81E0089526
:101B90000E94901B0E942D080E94121C0C94BE0DE6
:101BA000CF93C82F8091E70182FF1EC080FF04C041
:101BB00089E393E00E9489078091E70180FF0CC0D0
:101BC0001F92CF9384E393E09F938F930E94220808
:101BD0000F900F900F900F908091E70180FF04C04D
:101BE00082E393E00E9489078C2FCF910C94040923
:101BF0004F925F927F928F929F92AF92BF92CF92BD
:101C0000DF92EF92FF920F931F93CF93DF93CDB7A5
:101C1000DEB72A970FB6F894DEBF0FBECDBF0E9485
:101C20002F080E94C60D811111C08FEF89838A830E
:101C30001B820E94991B8160782F9D838C83498130
:101C40005A816B818D810E94B60E57C096E4C92ED1
:101C500091E0D92E00E010E0AA24A394B12C702EBC
:101C6000802F0E9487084C01F601419051906F012E
:101C7000482659264114510431F40F5F1F4F053097
:101C8000110569F7D2CF8091E70181FD0E9490088C
:101C900020E030E07501022E02C0EE0CFF1C0A9419
:101CA000E2F7C70184219521892B09F12E837F82D8
:101CB0008E209F2091E0892809F490E098870E9467
:101CC000991B8160782F9A8789874E815F8168850B
:101CD0008A850E94B60E000F111FF801EA5BFE4FC5
:101CE00080819181E826F926F182E08206C02F5F8B
:101CF0003F4F2E30310571F6C0CF0E94271E109144
:101D000045010E94170D1817D9F00E94170D8093F6
:101D100045012A960FB6F894DEBF0FBECDBFDF9106
:101D2000CF911F910F91FF90EF90DF90CF90BF90D8
:101D3000AF909F908F907F905F904F900C94D00DBC
:101D40002A960FB6F894DEBF0FBECDBFDF91CF91BC
:101D50001F910F91FF90EF90DF90CF90BF90AF90C9
:101D60009F908F907F905F904F900895CF93DF93D7
:101D7000CDB7DEB72B970FB6F894DEBF0FBECDBF41
:101D80004F83588769877A878B87DE01119686E0B3
:101D9000FD0111928A95E9F785E0FE0137960190E1
:101DA0000D928A95E1F70E94A318882319F082E02A
:101DB0000E9499190E94761881110E942219498166
:101DC0005A816B817C818D819E810E947C152B962E
:101DD0000FB6F894DEBF0FBECDBFDF91CF9108954F
:101DE000FC01808191810E9448180895CF93DF9370
:101DF0001F92CDB7DEB7882309F4D9C0682F8CEFC6
:101E0000860F813A70F4862F69830E94742269815B
:101E10008111CDC080910001909101010E94EA1AC8
:101E20000CC080E2860F883068F4677081E001C0E2
:101E3000880F6A95EAF70E94D8180F90DF91CF912A
:101E40000C9430198BE5860F833088F4653A29F0BD
:101E5000663A31F083E890E005C081E890E002C086
:101E600082E890E00F90DF91CF910C94860D88E589
:101E7000860F873108F091C0683A09F445C0693A85
:101E800009F445C06A3A09F445C06B3A09F445C003
:101E90006C3A09F445C06B3B09F445C06C3B09F44E
:101EA00045C06D3A09F445C0603B09F445C06E3A3F
:101EB00009F445C06F3A09F445C0613B09F445C0D7
:101EC000623B09F445C0633B09F445C0643B09F437
:101ED00045C0653B09F445C0663B09F445C0673B16
:101EE00009F445C0683B09F445C0693B09F445C0A5
:101EF0006D3B09F445C06E3B09F445C06A3B09F4EB
:101F000045C080E090E044C082EE90E041C089EEA0
:101F100090E03EC08AEE90E03BC085EB90E038C098
:101F200086EB90E035C083EB90E032C084EB90E02C
:101F30002FC087EB90E02CC08CEC90E029C08DEC9A
:101F400090E026C083E891E023C08AE891E020C0B9
:101F500082E991E01DC084E991E01AC081E292E03B
:101F600017C083E292E014C084E292E011C085E2DF
:101F700092E00EC086E292E00BC087E292E008C0D9
:101F80008FE690E005C080E790E002C08AE292E030
:101F90000F90DF91CF910C949C0D603F40F0862F05
:101FA0000E94AD1C0F90DF91CF910C949A1D0F9061
:101FB000DF91CF910895882389F19CEF980F913A92
:101FC00040F4682F80910001909101010E94F51A60
:101FD0000DC090E2980F983058F4877091E001C0DE
:101FE000990F8A95EAF7892F0E94DE180C94301910
:101FF0009BE5980F933020F480E090E00C94860DE0
:1020000098E5980F973120F480E090E00C949C0DB7
:10201000803F20F00E94151D0C949A1D089588237E
:1020200021F00E94D8180C9430190895882321F0CB
:102030000E94DE180C94301908954F925F926F92AF
:102040007F92BF92CF92DF92EF92FF920F931F93F6
:10205000CF93DF937C01D62FC72FFC01058102951A
:102060000F70128111110E94F5180E94CE1888235A
:1020700079F0112369F080E28D0F883048F082E01A
:102080000E9499190E94CE1891E0B82EB92601C07D
:10209000B12CCC2EC2948FE0C822D12CF601E85985
:1020A000FF4F0C94CD2B8C2F807FCF70882311F0A5
:1020B000C295C07F112399F0CC2309F4CFC180E2EF
:1020C0008D0F883010F0D11104C08C2F0E94D818C9
:1020D00003C08C2F0E94E8180E943019BFC18D2FB9
:1020E0000E94DB0FCC2309F4DEC180E28D0F883023
:1020F00010F0D11104C08C2F0E94DE1803C08C2F69
:102100000E94EE180E943019CEC18C2F807FCF70B4
:10211000803211F0C295C07FDD2319F0D130C9F0B3
:1021200022C0112371F0002341F0013031F40E94EC
:1021300008198C2B0E940E19B6C10E9408198C2B0D
:1021400046C1002319F0013009F4ADC10E942219E3
:1021500018C0112321F0063008F0A5C10EC00530CB
:1021600008F0A1C10EC0112351F0002331F0F70196
:10217000858180FF73C18F7085838C2F28C10111E9
:102180007EC18C2F2AC18C2F86958695837090E016
:10219000009719F0019761F086C1112321F08D2F6E
:1021A0009C2F937002C080E090E00E94860D8BC14E
:1021B000112321F08D2F9C2F937002C080E090E0BE
:1021C0000E949C0D80C11123F9F0D53F51F0D63FFC
:1021D00071F0D43FA9F480911B0290911C028160A0
:1021E0000BC080911B0290911C02826005C08091FF
:1021F0001B0290911C02846090931C0280931B022E
:102200008D2F0E94AD1C1EC0D53F51F0D63F71F0FE
:10221000D43FA9F480911B0290911C028E7F0BC0C9
:1022200080911B0290911C028D7F05C080911B0242
:1022300090911C028B7F90931C0280931B028D2F28
:102240000E94151D0E949A1D3EC18C2F837009F0BB
:1022500050C0111134C18D2F829586958770880FDB
:10226000880F9D2F9F70492E512C612C712C082EA8
:1022700004C0440C551C661C771C0A94D2F7D4FF8A
:1022800014C00FE010E020E030E0B901A80104C064
:10229000440F551F661F771F8A95D2F7CB01BA01ED
:1022A000609570958095909503C060E070E0CB01DB
:1022B000C695C695C370D0E0C230D10561F0C33079
:1022C000D10581F06429752986299729219771F014
:1022D0000E94C116F4C064297529862997290E9495
:1022E000D316EDC00E94C116C301B2010E94AF1601
:1022F000E6C0112319F08C2F817001C086958823C8
:1023000009F4DDC08D2F829586958770880F880F20
:102310009D2F9F70492E512C612C712C082E04C0CA
:10232000440C551C661C771C0A94D2F7D4FF14C0C9
:102330000FE010E020E030E0B901A80104C0440F34
:10234000551F661F771F8A95D2F7CB01BA0160959A
:1023500070958095909503C060E070E0CB01C695C4
:10236000C695C3704C2F50E04230510569F04330A0
:10237000510589F06429752986299729413051052D
:1023800071F00E9487179BC06429752986299729B7
:102390000E94991794C00E948717C301B2010E943E
:1023A00075178DC08D2F90E0FC01E05EF109E531DD
:1023B000F10508F04FC0E858FF4F0C94CD2BDF70AB
:1023C0008C2F8F71112331F00E940E178D2F0E94D8
:1023D0000F1069C00E942F178D2F0E94161063C026
:1023E000112341F0053008F05EC08C2F8F710E94E0
:1023F000541759C0063008F056C0F7CF112339F0F2
:102400008C2F8F710E940E174EC01123C9F38C2F91
:102410008F710E942F1747C0112329F08C2F8F71C5
:102420000E94F91640C00E94F4163DC0112349F0E5
:10243000CF718C2F0E940E1763E08C2F0E947A19A7
:1024400032C081E00E949919023068F182E00E9456
:10245000991929C0112331F0002391F28D2F0E9488
:10246000F60E21C0002399F2D93349F45FEF67EEED
:1024700073E0515060407040E1F700C000008D2FC4
:102480000E94DB0F10C04C2F4F706D2FC7010E94B0
:102490009D0A0E94201617C04C2F4F706D2FC70148
:1024A0000E94A00A10C088E0C816D10441F05CF078
:1024B000EAE0CE1AD108F2E0CF16D10420F40E944F
:1024C000170D0E940409BB20F1F00E949F1880FDA7
:1024D0001AC0F70112820E9499180E940E17C701B4
:1024E0000E9491120E949918DF91CF911F910F9134
:1024F000FF90EF90DF90CF90BF907F906F905F90B4
:102500004F900C942F17DF91CF911F910F91FF9057
:10251000EF90DF90CF90BF907F906F905F904F9043
:1025200008950F931F93CF93DF93EC0188819981D6
:102530002B813C81232BB9F09F3F11F48F3F99F001
:10254000CE010E941C09882371F0688179818A81FB
:102550000E9453188C010E94AB170E94AC16B80160
:10256000CE010E941D10DF91CF911F910F91089510
:102570000E94F5180E9405190E9430190E94B51E8C
:102580000E949A1D80E090E00E94860D80E090E01D
:102590000C949C0D80910001909101010E94001B00
:1025A0000C94B8120E94E5180C94CA12E92FE29517
:1025B000EF70F0E03297EE30F105B0F4E357FF4FE3
:1025C0000C94CD2B803F91F018F4803E68F40EC03F
:1025D000843F51F40BC0803E48F0813F29F406C08F
:1025E00093FB882780F9089580E0089581E008959D
:1025F0000E9448180E94D6120895CF93DF9300D00E
:1026000000D01F92CDB7DEB70F900F900F900F90B4
:102610000F90DF91CF910895CF93DF9300D000D03A
:1026200000D0CDB7DEB726960FB6F894DEBF0FBE4A
:10263000CDBFDF91CF9108951F93CF93DF93C091CA
:10264000510116E080915201C81799F0D0E01C9F0B
:10265000F0011D9FF00D1124ED5AFE4F4081518174
:1026600062817381848195810E940C132196C770C9
:10267000E9CFDF91CF911F9108954091830150914F
:10268000840160918501709186018091870190910C
:1026900088010C940C138091880182958F7009F049
:1026A00054C080918501882309F44FC08091510165
:1026B000A091520160918301709184014091860143
:1026C00050918701B6E08A1709F43FC090E04115A8
:1026D0005105C1F17F3F11F46F3FA1F1B89FF001A7
:1026E000B99FF00D1124ED5AFE4F218172132AC0BB
:1026F0002081621327C02281211124C023813481CB
:102700002417350710F421503109241B350B283CC0
:102710003105C0F4209188012F7020612093880139
:1027200026E0289FF001299FF00D1124E85AFE4F62
:1027300080818F708061808383E891E00E94911294
:102740000C941C1301968770BECF0895CF92DF9230
:10275000EF92FF920F931F93CF93DF93CDB7DEB726
:1027600062970FB6F894DEBF0FBECDBF8C0185E037
:10277000F801DE011D9601900D928A95E1F7D801CE
:102780004C9111965C91119712966C911297139639
:10279000CD90DC90149730918301709184018091E9
:1027A000860190918701009709F46BC17F3F19F46E
:1027B0003F3F09F466C1E0908501EE2009F4C0C0F6
:1027C00020918801C816D90628F0F601E81BF90BFC
:1027D000CF0104C0809590958C0D9D1DFF24F3942E
:1027E000883C910578F0F12C207F09F0C6C07C2D43
:1027F000D98AC88A89890E94FD1283E891E00E94E3
:102800009112B1C0822F807F09F046C0751314C0A9
:10281000341312C0611110C02F7020612093880101
:102820000E943D1383E891E00E94911280918801FB
:10283000D80115968C932EC0CD2819F15F3F11F465
:102840004F3FF9F0F62E61111CC08091510120918B
:10285000520136E0821709F45AC090E0389FF00127
:10286000399FF00D1124ED5AFE4F7181571306C0A8
:102870007081471303C07281711103C00196877084
:10288000E9CFF62E662309F427C180918801816083
:1028900080938801F12C20C1751308C0341306C041
:1028A000611104C080918801D801C3C04D875E8743
:1028B0008D859E856A8B0E94F8126A898823E1F1D2
:1028C0006623D1F120918801822F82958F7090E04C
:1028D000029774F0809183019091840198878F838F
:1028E0001986DB86CA862C87CE0107960E94911234
:1028F00086E0F801A3E8B1E001900D928A95E1F736
:102900000E944B130E943D13FF24F394E5C04D87B2
:102910005E878D859E850E944818292F22952F70ED
:1029200030E0223031050CF0CBC09F7009F0C5C0FB
:10293000805E883008F4D0C0C8010E949112E4CFB4
:10294000C816D90608F453C0F601E81BF90BCF01ED
:10295000883C910508F450C0F12C7C2DD98AC88A96
:1029600089890E94FD12E3E8F1E086E0DF011D9213
:102970008A95E9F70E943D13AFC0751314C0341354
:1029800012C0611110C080918801F8018583C801CF
:102990000E94911286E0E3E8F1E0DF011D928A9542
:1029A000E9F7FE2C99C04D875E878D859E856A8BE1
:1029B0000E94F8126A89882309F4BECF662309F4BD
:1029C000BBCF20918801822F82958F7090E0029773
:1029D0000CF48ECF80918301909184019A83898336
:1029E0001B82DD82CC822E83CE0101967FCF809523
:1029F00090958C0D9D1DACCFF62E662309F49CCFCF
:102A000075132EC034132CC02091880120FD1FC0E7
:102A1000822F82958F70D9F0D80115962C93159737
:102A20008F3049F08F5F982F9295907F822F8F7013
:102A3000892B15968C93C8010E94911286E0F801AB
:102A4000A3E8B1E001900D928A95E1F793CF86E07B
:102A5000F801A3E8B1E001900D928A95E1F73CC03E
:102A60004D875E878D859E850E94F812811140CF2B
:102A700080918801816080938801C8010E94911231
:102A80002BC0662309F458CF4D875E878D859E85C0
:102A90000E94F812F82E882309F44ECF86E0F80140
:102AA000A3E8B1E001900D928A95E1F783E891E007
:102AB0000E94F00E0E944B135DCF811139CF0CC0E4
:102AC000243031050CF038CF9F7009F431CFF80174
:102AD0009581907F09F02CCF8F2D62960FB6F894D8
:102AE000DEBF0FBECDBFDF91CF911F910F91FF9041
:102AF000EF90DF90CF9008951F93CF93DF93CDB7E2
:102B0000DEB72C970FB6F894DEBF0FBECDBF4F8354
:102B1000588769877A878B879C87CE0107960E94A2
:102B2000A613882369F08F8198852A853B85232BFE
:102B3000F1F19F3F09F063C08F3F09F060C037C0DB
:102B400086E0FE013796DE01119601900D928A957E
:102B5000E1F76F817885EA85FB85309741F17F3F0A
:102B600011F46F3F21F12091520130E0C90101962B
:102B7000877099274091510150E08417950709F417
:102B800047C069837A83FD83EC8396E0929FD001EE
:102B9000939FB00D1124AD5ABE4FFE0131960190A6
:102BA0000D929A95E1F7809352010E941C1316E052
:102BB00080915101909152018917C1F1189FC00174
:102BC00011248D5A9E4F0E94A613882379F1E0911B
:102BD00051011E9FF0011124ED5AFE4F4081518199
:102BE00062817381848195810E940C1380915101CF
:102BF00090E001968770992780935101D9CF4F813A
:102C0000588569857A858B859C850E940C13CFCF6A
:102C10000E94D2121092520110925101E3E8F1E0A9
:102C200086E0DF011D928A95E9F7C1CF2C960FB699
:102C3000F894DEBF0FBECDBFDF91CF911F910895F5
:102C4000EF92FF920F931F93CF93DF938C01892B09
:102C500009F46CC0F12CEE24E394E8012196F8010C
:102C60008491843740F4843008F051C0813081F081
:102C7000823019F15BC0853709F444C0A8F19CE7A4
:102C8000980F903708F052C08F770E94DB0F41C039
:102C90000E5F1F4FFE01C49180E28C0F883048F414
:102CA000C7708E2D01C0880FCA95EAF70E94F818E8
:102CB00014C08C2F0E94F60E2DC00E5F1F4FFE0118
:102CC000C49180E28C0F883058F4C7708E2D01C0FB
:102CD000880FCA95EAF70E94FE180E9430191AC0A0
:102CE0008C2F0E94DB0F16C00E5F1F4FFE01C49198
:102CF000CC2381F08FE99FE00197F1F700C000003D
:102D0000C150F6CF0E5F1F4FFE01F49003C00E942A
:102D1000F60E8E018F2D882309F49FCFEFE9FFE097
:102D20003197F1F700C000008150F5CFDF91CF91CE
:102D30001F910F91FF90EF90089508950C949D16A8
:102D40000E949E166093BA017093BB018093BC01F0
:102D50009093BD010C94B81208950C94A0160F9393
:102D60001F930091BA011091BB012091BC013091D9
:102D7000BD01602B712B822B932B1F910F910C9413
:102D8000A0160F931F930091BA011091BB012091DF
:102D9000BC013091BD0160237123822393231F91D5
:102DA0000F910C94A0160F931F930091BA011091EC
:102DB000BB012091BC013091BD01602771278227A2
:102DC00093271F910F910C94A01608950C94E5166B
:102DD0000E94E6166093B6017093B7018093B80124
:102DE0009093B9010C94B81260E070E0CB010C94A0
:102DF000E8160F931F9341E050E060E070E08A0115
:102E00009B0104C0000F111F221F331F8A95D2F7A8
:102E1000C901B8011F910F910C94E8160F931F93ED
:102E200041E050E060E070E004C0440F551F661FB1
:102E3000771F8A95D2F78091B6019091B701A09142
:102E4000B801B091B9018A019B01082B192B2A2BDB
:102E50003B2BC901B8011F910F910C94E8160F93F9
:102E60001F9341E050E060E070E004C0440F551F44
:102E7000661F771F8A95D2F740955095609570959B
:102E80008091B6019091B701A091B801B091B901BC
:102E90008A019B01082319232A233B23C901B80176
:102EA0001F910F910C94E8160F931F9341E050E08F
:102EB00060E070E004C0440F551F661F771F8A95BD
:102EC000D2F78091B6019091B701A091B801B0916D
:102ED000B9018A019B01082719272A273B27C90125
:102EE000B8011F910F910C94E8160F931F93009156
:102EF000B6011091B7012091B8013091B901602B52
:102F0000712B822B932B1F910F910C94E8160F932A
:102F10001F930091B6011091B7012091B801309133
:102F2000B90160237123822393231F910F910C9485
:102F3000E8160F931F930091B6011091B7012091ED
:102F4000B8013091B90160277127822793271F911B
:102F50000F910C94E81608952EE0929F800D112495
:102F6000A82FA695A695A695877051E001C0550F8C
:102F70008A95EAF785E0A89FD001112420E030E08F
:102F800070E0F901EA0FFB1FE757FE4F4081CB01CC
:102F9000022E02C0969587950A94E2F781709927D0
:102FA000819584278523842780832F5F3F4F253099
:102FB000310539F708952EE0929F800D1124682F76
:102FC000669566956695982F977085E0689FB00125
:102FD000112440E050E080E0FA01E60FF71FE757C8
:102FE000FE4F208130E0092E02C0369527950A94C5
:102FF000E2F721703327042E01C0220F0A94EAF76A
:10300000822B4F5F5F4F4530510531F70895BF92D6
:10301000CF92DF92EF92FF920F931F93CF93DF93A4
:103020008C01C090BA01D090BB01E090BC01F0903F
:10303000BD018091B6019091B701A091B801B09106
:10304000B901C82AD92AEA2AFB2ACFE1D0E0D70160
:10305000C6010C2E04C0B695A795979587950A943E
:10306000D2F780FF07C0BC2EB8018C2F0E94BB0A8C
:10307000019719F4219758F7B12C8B2DDF91CF913F
:103080001F910F91FF90EF90DF90CF90BF90089528
:10309000CF93DF93EC010E940718BE010E94BB0A88
:1030A000DF91CF9108951F93CF93DF93EB01909120
:1030B0005001992321F0CB010E94481813C08823A6
:1030C00049F0CB010E940718182F682FCE010E94EB
:1030D000AC1704C0CB010E94DB17182FBE01812F53
:1030E0000E94BB0ADF91CF911F9108950E94991B06
:1030F0002091C1013091C2018217930750F00E94C4
:10310000991B2091C1013091C201821B930B9C013C
:103110000AC00E94991B2091C1013091C2012095E3
:103120003095280F391F81E0243F314008F480E0BA
:1031300008958091C0018595859585950895809124
:10314000C001877008950E94991B2091BE013091A3
:10315000BF0182179307A8F00E94991B2091BE011E
:103160003091BF01821B930B843F914010F480E0AB
:1031700013C08091C00182FB882780F991E08927E4
:103180000BC00E94991B2091BE013091BF01209578
:103190003095820F931FE8CF817008959091C00100
:1031A000977081E009F480E008958091E601089528
:1031B0009091E601892B8093E60108958095909186
:1031C000E60189238093E60108951092E6010895AF
:1031D0009091E501892B8093E50108958095909168
:1031E000E50189238093E50108951092E501089592
:1031F0009091E401892B8093E4010895809590914A
:10320000E40189238093E40108951092E401089574
:103210008091C301089508950C940B19CF93909158
:10322000C301981769F0C82F0E94991B9093C2019F
:103230008093C101C093C3018C2FCF910C940C19C2
:10324000CF9108958091C301882349F01092C30162
:103250001092C2011092C10180E00C940C190895E3
:10326000E0910001F09101018091E6018083E091FD
:103270000001F091010190818091E501892B80830B
:10328000E0910001F091010190818091E401892B8E
:1032900080838091C301882321F10E9476188823BE
:1032A00071F08091E70180FF08C08CE493E09F9368
:1032B0008F930E9422080F900F900E942219E09194
:1032C0000001F091010190818091C301892B8083DD
:1032D00080910001909101010E94631A81110E9466
:1032E000221980910001909101010C94230D089501
:1032F0000C94771998E0899F90011124262B209334
:10330000C0010E940E170E94991B9093BF018093E9
:10331000BE018091C0018595859585950C9478199D
:103320001092C0011092BF011092BE0180E00C9477
:1033300078192091C001809582238093C001982F35
:10334000977079F430E0482F082E000C550B2417A5
:10335000350739F08595859585950E942F170C9432
:103360009019089590932D0180932C0108958295D2
:10337000982F9C7C392F36953695282F237344E05F
:10338000249FC0011124932F982B292F2A7A269548
:10339000892F8575880F822B08951F93CF93DF9314
:1033A0001F92CDB7DEB799830E94B719182F998164
:1033B000892F0E94B719212F30E0322F2227A9012F
:1033C000482BCA010F90DF91CF911F91089580E0A3
:1033D00090E00E94EF2B21E08D3E9E4F09F020E00F
:1033E000822F089582E090E00C94E72B83E090E038
:1033F0000C94E72B84E090E00C94E72B682F84E09A
:1034000090E00C94F52BAB01BC018FE090E00C94A4
:10341000072CAB01BC0183E190E00C94072C60E029
:1034200070E0CB010C94091A60E070E0CB010E94BF
:10343000031A0C940F1A6DEE7EEF80E090E00E946C
:10344000132C60E082E090E00E94F52B60E083E0C6
:1034500090E00E94F52B1092BA011092BB011092DD
:10346000BC011092BD0160E084E090E00E94F52B69
:1034700060E085E090E00E94F52B60E086E090E05F
:103480000E94F52B6FEF87E090E00E94F52B40E063
:1034900050E0BA0188E090E00E94072C60E08DE0E7
:1034A00090E00E94F52B40E050E0BA0188E190E006
:1034B0000E94072C60E087E190E00E94F52B0C94BD
:1034C000141A0C941B1AFC01329680911201882365
:1034D00031F08091210287FF02C09EE101C096E099
:1034E00080E0915028F021912223D9F38F5FF9CF0A
:1034F00008959C01FC0132969FEF80E041914617B0
:1035000089F09F3F19F4411101C0982F8F5F8630D9
:10351000A9F79F3F39F0F901E90FF11D97FDFA95E1
:10352000628308950895FC0132960896208126133F
:1035300001C010823196E817F907C1F70895262FC8
:103540002695269526952E3170F4FC01E20FF11D8B
:10355000677021E030E001C0220F6A95EAF78281AE
:10356000282B228308958091E70180FF0CC01F92D1
:103570006F938CE793E09F938F930E9422080F90A4
:103580000F900F900F900895262F2695269526953B
:103590002E3178F4FC01E20FF11D677021E030E07C
:1035A00001C0220F6A95EAF72095828128232283A1
:1035B00008958091E70180FF0CC01F926F938EE504
:1035C00093E09F938F930E9422080F900F900F908B
:1035D0000F90089520911201222329F020912102B9
:1035E00027FD0C949F1A0C94791A20911201222322
:1035F00029F02091210227FD0C94C41A0C94931AEF
:1036000020911201FC013296222331F08091210297
:1036100087FF02C08EE101C086E0DF011D928A951E
:10362000E9F7089508950C94121B0E94131B8091D2
:103630002702843049F11092E80120E488E190E00B
:103640000FB6F894A895809360000FBE2093600099
:1036500080E00E9404090E94131B83B7817F84606D
:1036600083BF83B7816083BF7894889583B78E7F4B
:1036700083BF0FB6F894A89580916000886180930D
:103680006000109260000FBE089508950895CF93D2
:103690000E94451B0E942F080E94461BC0E08C2FF1
:1036A0000E948708892B29F4CF5FC530C1F780E0DD
:1036B00001C081E0CF91089508950C945C1B0E9495
:1036C000D2120E94170D0E9404090C945D1B1F92D8
:1036D0000F920FB60F9211248F939F93AF93BF93C6
:1036E0008091E801811113C080911D0290911E020A
:1036F000A0911F02B09120024196A11DB11D80939F
:103700001D0290931E02A0931F02B0932002BF914E
:10371000AF919F918F910F900FBE0F901F901895B2
:1037200082E084BD93E095BD9AEF97BD80936E00D3
:1037300008952FB7F89480911D0290911E02A091D8
:103740001F02B09120022FBF08952FB7F894609107
:103750001D0270911E0280911F02909120022FBFC6
:103760000895CF92DF92EF92FF920F931F932FB79E
:10377000F89440911D0250911E0260911F027091B9
:1037800020022FBF6A017B01EE24FF248C0120E080
:1037900030E0C016D106E206F30610F4415051099C
:1037A0009A01281B390BC9011F910F91FF90EF90CF
:1037B000DF90CF90089578941F920F920FB60F92DA
:1037C00011248F939F93AF93BF9380911D0290918B
:1037D0001E02A0911F02B09120020196A11DB11DF1
:1037E00080931D0290931E02A0931F02B0932002AB
:1037F000BF91AF919F918F910F900FBE0F901F902F
:10380000189587E797E790930108809300089AE05E
:1038100088E10FB6F894A895809360000FBE90934E
:103820006000FFCF0E94E719811102C00E94611A57
:103830000E94F2198093E7010E94FA1990E0909398
:103840002202809321020E94F619682F70E080E026
:1038500090E00C94AD168091EC0180FF0BC060915C
:10386000050185E0689FB0011124759567957595F0
:1038700067952BC081FF09C06091050185E0689FB5
:10388000B00111247595679520C082FF07C0609133
:10389000050185E0689FB001112417C09091EB01EC
:1038A0009923D1F060910401961788F720910501C2
:1038B00085E0289F90011124929FA001939F500DB5
:1038C000112470E0CA010E94B92B6038710540F4E0
:1038D0006115710539F002C065E070E0862F08952A
:1038E0008FE7089581E008958091EC0180FF08C082
:1038F0006091030170E0759567957595679521C096
:1039000081FF06C06091030170E07595679519C04D
:1039100082FF04C06091030170E010C09091EB0140
:103920009923C1F0609102019617A0F780910301DD
:10393000899FC001112470E00E94B92B6038710585
:1039400028F46115710521F0862F08958FE70895F9
:1039500081E0089561E070E0F4CF803F21F40E949F
:103960002B1C819504C0813F29F40E942B1C80935D
:10397000F0010895823F21F40E942B1C819504C020
:10398000833F29F40E942B1C8093EF010895893F07
:1039900019F40E94741C05C08A3F31F40E94741C03
:1039A00081958093F10108958B3F21F40E94741C4E
:1039B000819504C08C3F29F40E94741C8093F2010D
:1039C0000895843F21F48091EE01816017C0853F06
:1039D00021F48091EE01826011C0863F21F4809134
:1039E000EE0184600BC0873F21F48091EE01886076
:1039F00005C0883F31F48091EE0180618093EE0133
:103A000008958D3F21F48091EC0181600BC08E3FC1
:103A100021F48091EC01826005C08F3F29F48091F0
:103A2000EC0184608093EC010895803F39F480912B
:103A3000F00187FF6CC01092F00169C0813F29F44A
:103A40008091F0011816BCF362C09091EF01823FA3
:103A500029F497FF5CC01092EF0159C0833F19F41D
:103A60001916CCF354C0893F41F48091F101181626
:103A70000CF04DC01092F1014AC08A3F29F48091A8
:103A8000F10187FF44C0F6CF8B3F39F48091F201FA
:103A900087FF3DC01092F2013AC08C3F29F480911B
:103AA000F2011816BCF333C0843F21F48091EE017B
:103AB0008E7F17C0853F21F48091EE018D7F11C06C
:103AC000863F21F48091EE018B7F0BC0873F21F46C
:103AD0008091EE01877F05C0883F31F48091EE012F
:103AE0008F7E8093EE0113C08D3F21F48091EC0115
:103AF0008E7F0BC08E3F21F48091EC018D7F05C03D
:103B00008F3F29F48091EC018B7F8093EC018091B1
:103B1000EF0181110EC08091F00181110AC08091E6
:103B2000F101811106C08091F201811102C0109251
:103B3000EB0108958091E70183FF7EC081EC93E063
:103B40000E9489078091EE011F928F938CEB93E086
:103B50009F938F930E9422088AEB93E00E9489072B
:103B60008091EF01282F082E000C330B3F938F9389
:103B700087EB93E09F938F930E94220885EB93E05D
:103B80000E9489078091F001282F082E000C330B2A
:103B90003F938F9382EB93E09F938F930E94220831
:103BA00080EB93E00E9489078091F101282F082E75
:103BB000000C330B3F938F938DEA93E09F938F9389
:103BC0000E9422088BEA93E00E9489078091F2010B
:103BD000282F082E000C330B3F938F9388EA93E035
:103BE0009F938F930E94220885EA93E00E948907A1
:103BF0008091EB011F928F9382EA93E09F938F93C2
:103C00000E94220880EA93E00E9489078091EC01DB
:103C10001F928F938DE993E09F938F930E942208C8
:103C20008AE993E00E9489078DB79EB74C960FB63C
:103C3000F8949EBF0FBE8DBF8DEE91E00E94780D6F
:103C40000E94991B9093EA018093E90108951F93C4
:103C5000CF93DF938091E9019091EA010E94B11B1B
:103C6000AC019091EB01992321F02091060130E005
:103C700006C0209107018AE0289F90011124421775
:103C8000530708F46EC08091EF01C091F001D0910C
:103C9000F1011091F201811107C0C1115EC0D11173
:103CA0005CC011115AC05DC09F3F19F09F5F909397
:103CB000EB01181624F40E942B1C8093EF018091D5
:103CC000EF0187FF05C00E942B1C81958093EF01B7
:103CD0001C1624F40E942B1C8093F0018091F001AB
:103CE00087FF05C00E942B1C81958093F0014091B5
:103CF000EF01442379F03091F001332359F025EBA3
:103D00004203A00111245093EF013203C00111249A
:103D10009093F0011D1624F40E94741C8093F1010D
:103D20008091F10187FF05C00E94741C81958093EA
:103D3000F101111624F40E94741C8093F201809109
:103D4000F20187FF05C00E94741C81958093F201E7
:103D5000DF91CF911F910C949A1D9F3F09F0A6CF40
:103D6000AECFDF91CF911F910895EDEEF1E086E0A7
:103D7000DF011D928A95E9F71092EB011092EC0198
:103D8000089584EE95E00E9489071F9281E08F9349
:103D90001F9285E08F9386E995E09F938F930E9411
:103DA00022080F900F900F900F900F900F90089592
:103DB0008330E9F128F4813061F0823009F108950F
:103DC000853009F462C008F449C0863009F474C033
:103DD000089580910701262F30E0280F311D2F3FD5
:103DE000310524F4680F6093070103C08FEF8093BF
:103DF0000701809107011F928F938FEC94E072C0AE
:103E000080910601262F30E0280F311D2F3F31050C
:103E100024F4680F6093060103C08FEF80930601BE
:103E2000809106011F928F938DEB94E05BC080918F
:103E30000501262F30E0280F311D2F3F310524F4D6
:103E4000680F6093050103C08FEF80930501809197
:103E500005011F928F938AEA94E044C08091040187
:103E6000262F30E0280F311D2F3F310524F4680F35
:103E70006093040103C08FEF8093040180910401DB
:103E80001F928F9385E994E02DC080910301262F26
:103E900030E0280F311D2F3F310524F4680F609367
:103EA000030103C08FEF80930301809103011F92F0
:103EB0008F938CE794E016C080910201262F30E0AA
:103EC000280F311D2F3F310524F4680F6093020144
:103ED00003C08FEF80930201809102011F928F93A4
:103EE00081E694E09F938F930E9422080F900F9099
:103EF0000F900F900895833081F128F4813059F0AC
:103F00008230D1F00895853009F449C0B8F1863087
:103F100009F456C0089580910701681720F4861BA4
:103F20008093070102C010920701809107011F9240
:103F30008F9382E594E054C080910601681720F4C5
:103F4000861B8093060102C0109206018091060133
:103F50001F928F9380E494E043C08091050168171D
:103F600020F4861B8093050102C010920501809108
:103F700005011F928F938DE294E032C0809104017D
:103F8000681720F4861B8093040102C0109204017C
:103F9000809104011F928F9388E194E021C0809169
:103FA0000301681720F4861B8093030102C010925E
:103FB0000301809103011F928F938FEF93E010C054
:103FC00080910201681720F4861B8093020102C0D1
:103FD00010920201809102011F928F9384EE93E070
:103FE0009F938F930E9422080F900F900F900F9035
:103FF0000895CF93C82F1F928F9389EE96E09F93D9
:104000008F930E94220881E090E0A0E0B0E0BC0124
:10401000CD0104C0660F771F881F991FCA95D2F77C
:104020000E94AD160F900F900F900F90CF910C94AF
:10403000D212CF93482F50E0FA013597EF33F105B4
:1040400008F03BC2E556FF4F0C94CD2B8BE59CE06E
:104050000E94890787E99BE00E9489070E94F61960
:104060001F928F9384E99BE09F938F930E94220875
:1040700082E99BE00E9489070E94F219C82F8FE70E
:104080009BE00E9489071F92CF938AE79BE09F9352
:104090008F930E94220888E79BE00E9489078EE6A2
:1040A0009BE00E9489078C2F81701F928F938BE673
:1040B0009BE09F938F930E94220889E69BE00E94D9
:1040C00089078FE59BE00E948907C1FB882780F95B
:1040D0001F928F938CE59BE09F938F930E94220801
:1040E0008AE59BE00E9489078EE49BE00E94890795
:1040F000C2FB882780F91F928F938BE49BE09F93EC
:104100008F930E94220889E49BE00E94890780E443
:104110009BE00E948907C3FBCC27C0F91F92CF9375
:104120008DE39BE09F938F930E9422088BE39BE09B
:104130000E9489070E94FA19C82F87E29BE00E941B
:1041400089071F92CF9382E29BE09F938F930E94F7
:10415000220880E29BE00E94890787E09BE00E94A2
:1041600089078C2F81701F928F9384E09BE09F932F
:104170008F930E9422088DB79EB780960FB6F89451
:104180009EBF0FBE8DBF82E09BE00E9489078BEE31
:104190009AE00E948907C1FB882780F91F928F93BC
:1041A00088EE9AE09F938F930E94220886EE9AE011
:1041B0000E94890784ED9AE00E948907C2FB882744
:1041C00080F91F928F9381ED9AE09F938F930E94C5
:1041D00022088FEC9AE00E9489078DEB9AE00E94FA
:1041E0008907C3FB882780F91F928F938AEB9AE097
:1041F0009F938F930E94220888EB9AE00E94890780
:104200008EEA9AE00E948907C4FB882780F91F92F2
:104210008F938BEA9AE09F938F930E94220889EAFA
:104220009AE00E94890787E99AE00E948907C5FB06
:10423000882780F91F928F9384E99AE09F938F9348
:104240000E94220882E99AE00E94890786E79AE0A4
:104250000E948907C6FB882780F91F928F9383E706
:104260009AE09F938F930E94220881E79AE00E9430
:10427000890789E69AE00E948907C7FBCC27C0F925
:104280001F92CF9386E69AE09F938F930E94220815
:1042900084E69AE00E9489078DB79EB74C960FB6C8
:1042A000F8949EBF0FBE8DBF06C08AE49CE00E94BA
:1042B00089070E94611AC1E005C182EB98E07FC0C6
:1042C0008091E701817F8E7F8093E7018BE898E002
:1042D0000E94890786E49CE00E94890781E0809320
:1042E000F401E9CF0E94D2128AE29CE00E94890781
:1042F0009FEF23ED80E3915020408040E1F700C024
:1043000000000E94011CD7CF8091E701C82FC09503
:10431000C170C0FB80F98093E701CC2319F08EE1D6
:104320009CE0BDC081E19CE00E9489078091E7018B
:10433000897F877F8093E701BECF9091E70191FB52
:10434000CC27C0F981E0C827892FC0FB81F9809371
:10435000E701CC2319F084E09CE027C086EF9BE0C6
:104360002EC09091E70192FBCC27C0F981E0C827CD
:10437000892FC0FB82F98093E701CC2319F087EEE7
:104380009BE013C087ED9BE01AC09091E70193FB7F
:10439000CC27C0F981E0C827892FC0FB83F980931F
:1043A000E701CC2351F08BEC9BE00E9489078091C0
:1043B000E70181608093E70185C08EEB9BE00E945E
:1043C000890779CF8CE798E00E94890780E598E01B
:1043D0000E9489078BE098E00E94890788ED97E0AA
:1043E0000E9489078DE997E00E9489078FE697E090
:1043F000E6CF81E697E00E9489070E94170D1F9281
:104400008F9387E497E09F938F930E942208809177
:1044100012011F928F9380E397E09F938F930E94E6
:104420002208809119021F928F938DE197E09F934C
:104430008F930E9422088091210287FB882780F9B0
:104440001F928F9385E097E09F938F930E9422089D
:104450000E94A51B9F938F937F936F938EEE96E0A0
:104460009F938F930E9422088DB79EB746960FB6F2
:10447000F8949EBF0FBE8DBF1ECF0E94D2129091A6
:10448000210297FBCC27C0F981E0C827892FC0FB08
:1044900087F980932102CC2329F084EB9BE00E94D2
:1044A000890710C089EA9BE08ACF895303C08D51E8
:1044B00001C080E00E94F91FFECE87EA9BE00E94C7
:1044C0008907C0E08C2FCF91089580E0089580E0A7
:1044D00008958E518A3030F4E82FF0E0ED5EFE4F03
:1044E0008081089580E00895CF93C82F8091F401D2
:1044F000813059F020F0823009F445C039C10E9462
:10450000D518823209F036C104C00E94D518823213
:1045100061F48C2F0E946522811104C08C2F0E94AF
:1045200019202FC081E090E02CC08C2F0E946722C0
:10453000811126C0C431E1F070F4CB3081F0C0317C
:10454000D1F40E94C11E81EE96E00E94890782E0AC
:104550008093F40115C0C93259F0C83361F48BE877
:1045600098E00E94890785EE96E00E94890708C0BE
:104570001092F40101C18FED96E00E948907FCC002
:1045800081E08170FBC0C43228F5CE3108F0C1C093
:10459000CB30A1F1D0F4C73009F0D0C08EE18093C8
:1045A000070182E3809306018AE08093050184E19C
:1045B0008093040188E08093030188E280930201E4
:1045C00085E895E00E948907BCC0C33149F1C43138
:1045D000C1F0B4C0CB3409F4A6C028F4C93289F0C4
:1045E000C83361F0ABC0C13509F49BC0C23509F4D2
:1045F00096C0CE3409F0A2C06AE09BC00E94C11EE2
:10460000A0C08091F301882319F01092F30199C0A2
:1046100082E995E00E94890781E08093F401AEC0B1
:104620008CE695E00E9489078AE595E00E9489075B
:10463000809107011F928F9387E595E09F938F9359
:104640000E94220885E595E00E94890783E495E0B1
:104650000E948907809106011F928F9380E495E064
:104660009F938F930E9422088EE395E00E94890712
:104670008FE295E00E948907809105011F928F9338
:104680008CE295E09F938F930E9422088AE295E046
:104690000E94890789E195E00E94890780910401C1
:1046A0001F928F9386E195E09F938F930E9422083B
:1046B00084E195E00E9489078FEF94E00E948907CA
:1046C000809103011F928F938CEF94E09F938F93BF
:1046D0000E9422088AEF94E00E94890783EE94E00A
:1046E0000E948907809102011F928F9380EE94E0CF
:1046F0009F938F930E9422088EED94E00E94890779
:104700008DB79EB748960FB6F8949EBF0FBE8DBF6B
:1047100018C08C2F0E9469228093F30112C061E0BF
:1047200003C061E006C06AE08091F3010E94D81ED8
:1047300008C08091F3010E947B1F03C083E895E0CD
:1047400013C08091F301882369F01F928F938DE746
:1047500095E09F938F930E9422080F900F900F90E7
:104760000F9004C08AE795E00E94890781E006C0A7
:104770001092F40180E002C080E003CFCF91089551
:104780008091180208959FB7F8941092F7019FBF87
:1047900090912702943009F057C09091E9009F70E2
:1047A0003091EC00232F217030FD20E8922B23E084
:1047B0002093E9002091EB0020FF43C02091EE0000
:1047C00027FF3FC02091F501222321F02091E8002E
:1047D00025FF37C01092F50126E03091E80035FD45
:1047E00015C030912702343061F53091EB0035FD72
:1047F00028C0215021F481E08093F50122C0EFE927
:10480000FFE03197F1F700C00000E7CF8093F1009F
:104810008091E80085FD0AC08091E80080FFFCCF10
:104820008091E8008E778093E80006C08FB7F894F7
:1048300021E02093F7018FBF9F709093E90080E003
:1048400008959F709093E9008FEF08950F931F9341
:10485000CF93DF9300D01F92CDB7DEB78C010E94BB
:10486000F526823011F0843021F584E089831B83A2
:104870000A8382E08093E9008FEF9091E8008150F5
:1048800095FD06C095ED9A95F1F700008111F5CFE1
:104890008091E80085FF0DC040E050E063E070E0EB
:1048A000CE0101960E9412278091E8008E778093B6
:1048B000E8000F900F900F90DF91CF911F910F9113
:1048C0000895CF93DF9300D01F92CDB7DEB720912C
:1048D0002702243031F523E02983805891099B83F6
:1048E0008A8382E08093E9008FEF9091E800815005
:1048F00095FD06C095ED9A95F1F700008111F5CF71
:104900008091E80085FF0DC040E050E063E070E07A
:10491000CE0101960E9412278091E8008E77809345
:10492000E8000F900F900F90DF91CF910895CF93F3
:10493000DF93EC010E94F526823011F08430F9F407
:1049400082E08093E9009FEF8091E800915085FD1F
:1049500006C085ED8A95F1F700009111F5CF8091A1
:10496000E80085FF0CC040E050E066E070E0CE015A
:104970000E9412278091E8008E778093E800DF91F3
:10498000CF910895CF93DF93EC010E94F5268230FA
:1049900011F08430D9F580911201882339F080918B
:1049A000210287FF03C060E282E002C068E081E08C
:1049B0008093E9008FEF9091E800815095FD06C04B
:1049C00095ED9A95F1F700008111F5CF8091E800FF
:1049D00085FF1CC080911201811105C040E050E0AC
:1049E00068E070E003C070E040E050E0CE010E945B
:1049F00012278091E8008E778093E80080E2FE0124
:104A0000A8EFB1E001900D928A95E1F7DF91CF9187
:104A100008958BE89CE00E9489078091260281110D
:104A200009C00E94A7280E9404298091E2008460A6
:104A30008093E200089587E89CE00E948907109225
:104A40002602089583E89CE00C9489078FE79CE098
:104A50000C9489078BE79CE00E9489070C945F1BEC
:104A60002091F6012F5F822F62E30E94AD2B9923E4
:104A700019F02093F60108951092F6018091F70144
:104A8000882371F180912702843041F58091E900FB
:104A90008F702091EC00922F917020FD90E8892B6F
:104AA00093E09093E9009091EB0090FF14C09091F7
:104AB000EE0097FF10C09091E80095FF03C01092A0
:104AC000F100F9CF9091E80090FF05C09091E800C7
:104AD0009E779093E8008F708093E9001092F70121
:104AE000089542E061EC81E00E94212842E261ECFD
:104AF00082E00E94212842E261EC83E00C942128AC
:104B000080912902833009F460C030F4813071F063
:104B1000823009F499C008958A3009F485C08B3039
:104B200009F46BC0893009F0A7C020C08091280229
:104B3000813A09F0A1C08091E800877F8093E80066
:104B400080912C0290912D02892B21F460E288EF54
:104B500091E003C060E080E090E070E00E945D279B
:104B60008091E8008B778093E80008958091280277
:104B7000813209F081C080912C0290912D02029720
:104B800008F07AC08091E800877F8093E8008091E8
:104B9000E80082FD05C0809127028111F8CF6CC02A
:104BA0002091F3008091F20090E0922B029729F47B
:104BB0008091F1008B7F813021F48091F10080930E
:104BC00018028091E8008B7753C080912802813AC7
:104BD00009F052C080912C0290912D02892B09F08E
:104BE0004BC08091E800877F8093E8008091E800C7
:104BF00080FFFCCF8091120136C080912802813263
:104C0000D9F580912C0290912D02892BA9F58091E4
:104C1000E800877F8093E8000E94562880912A024E
:104C2000809312010C94D21280912802813221F5D6
:104C30008091E800877F8093E8000E945628809149
:104C40002B0280931902089580912802813AA1F4E1
:104C50008091E800877F8093E8008091E80080FFE2
:104C6000FCCF809119028093F1008091E8008E774B
:104C70008093E8000C945628089584B7877F84BFFA
:104C80000FB6F894A89580916000886180936000C9
:104C9000109260000FBE80E8809361001092610066
:104CA0000E94C00D0E94A7280E9404298091E20062
:104CB00084608093E20083EC93E20E94B2197894BE
:104CC0000E94922B0E94C80D88E091E00E94120D74
:104CD0008AE69CE00E94890780912702853089F44A
:104CE00086E69CE00E9489070E94151B80912502A0
:104CF000882391F30E94471B882371F30E94FC26AE
:104D0000EBCF0E94F80DE8CF0C948626292F33278D
:104D100023303105C9F064F42130310581F02230AF
:104D2000310509F049C08BE590E029ED3CE048C031
:104D30002132310521F12232310571F13DC082E18C
:104D400090E024E33DE03CC099278130910571F06B
:104D50002CF4892B89F5E5EDFCE00DC0823091053E
:104D600041F0039749F5EFE8FCE005C0E5EBFCE016
:104D700002C0E5E9FCE0849190E09F0121C063302E
:104D80007105D0F4660F771FFB01EA5DFE4F2081AD
:104D9000318189E090E014C06330710568F4FB0153
:104DA000EE0FFF1FE05EFE4F20813181FB01E35ECD
:104DB000FE4F808190E004C080E090E020E030E091
:104DC000FA013183208308950895CF93C82F0E945C
:104DD000E426C0931A02CF9108958091270284306F
:104DE00011F081E0089582E0089580911A02811106
:104DF00002C00C94ED26089580E189BD82E189BD51
:104E000009B400FEFDCF8091D8008F7D8093D8003B
:104E10008091E00082608093E0008091E00081FD5D
:104E2000FCCF0895CF92DF92EF92FF920F931F93E2
:104E3000CF93DF93EC018B016A010E9475288111E9
:104E400033C0C114D10439F0F60180819181081B6F
:104E5000190BC80FD91FE12CF12C0115110519F1FF
:104E60008091E80085FD16C08091E8008E778093E0
:104E7000E800C114D10449F0F60180819181E80E67
:104E8000F91EF182E08285E00FC00E947528882318
:104E900021F30AC089918093F10001501109FFEFBD
:104EA000EF1AFF0ADACF80E0DF91CF911F910F91C7
:104EB000FF90EF90DF90CF90089520912E023091D7
:104EC0002F022617370748F06115710539F4209134
:104ED000E8002E772093E80001C0B90140E0611599
:104EE0007105A9F120912702222309F443C025303E
:104EF00009F442C02091E80023FD40C02091E80061
:104F000022FD32C02091E80020FFE9CF4091F3005C
:104F10002091F20030E0342BFC01CF0161157105C6
:104F200059F02830310540F481918093F1006150AF
:104F300071092F5F3F4FF1CF41E02830310509F073
:104F400040E02091E8002E772093E800C8CF41117F
:104F5000C9CF0AC080912702882361F0853061F0B3
:104F60008091E80083FD0AC08091E80082FFF2CFC3
:104F700080E0089582E0089583E0089581E0089537
:104F800020912E0230912F022617370748F0611525
:104F9000710539F42091E8002E772093E80001C0D4
:104FA000B901FC0120E06115710591F180912702A2
:104FB000882309F440C0853009F43FC08091E8009F
:104FC00083FD3DC08091E80082FD2FC08091E80004
:104FD00080FFE9CF2091F3008091F20090E0922BC6
:104FE0006115710559F08830910540F424912093A2
:104FF000F1003196615071090196F2CF21E00897D6
:1050000009F020E08091E8008E778093E800CBCF14
:105010002111CCCF0AC080912702882361F085300E
:1050200061F08091E80083FD0AC08091E80082FF72
:10503000F2CF80E0089582E0089583E0089581E052
:105040000895982F973058F59093E900981739F004
:105050007091EC002091ED005091F00003C0242FDE
:10506000762F50E021FF19C03091EB003E7F309346
:10507000EB003091ED003D7F3093ED003091EB007F
:1050800031603093EB007093EC002093ED0050936F
:10509000F0002091EE0027FF07C09F5FD3CF8F70F5
:1050A0008093E90081E0089580E0089580912802CE
:1050B00087FF11C08091E80082FD05C08091270222
:1050C0008111F8CF11C08091E8008B770BC08091DF
:1050D0002702882349F08091E80080FFF8CF809173
:1050E000E8008E778093E80008952091E4003091E5
:1050F000E50095E64091EC00842F817040FF22C0CE
:105100008091E80080FD1CC080912702882391F0E7
:10511000853091F08091EB0085FD10C04091E40056
:105120005091E5004217530729F39A01915011F766
:1051300084E0089582E0089583E0089581E0089571
:1051400080E008954091E80042FFDECF08950E947C
:1051500015290E941D29E0EEF0E0808181608083A6
:10516000E8EDF0E080818F77808319BCA7EDB0E097
:105170008C918E7F8C9380818F7E8083109226020B
:1051800008950F931F93CF93DF930E9415290E94D8
:105190001D29C8EDD0E088818F7788838881806859
:1051A000888388818F7D888319BC10922702109292
:1051B0002302109225021092240200EE10E0F80162
:1051C00080818B7F808388818160888342E060E07A
:1051D00080E00E942128E1EEF0E080818E7F8083D4
:1051E000E2EEF0E08081816080838081886080834E
:1051F000F80180818E7F8083888180618883DF9140
:10520000CF911F910F910895E8EDF0E080818F7E9E
:105210008083E7EDF0E080818160808384E082BF5D
:1052200081E0809326020C94C128E8EDF0E08081B3
:105230008E7F80831092E20008951092DA0010921F
:10524000E10008951F920F920FB60F9211242F9331
:105250003F934F935F936F937F938F939F93AF93FE
:10526000BF93EF93FF938091E10082FF0BC0809189
:10527000E20082FF07C08091E1008B7F8093E10014
:105280000E9430258091DA0080FF1FC08091D800F5
:1052900080FF1BC08091DA008E7F8093DA008091BE
:1052A000D90080FF0DC080E189BD82E189BD09B4CC
:1052B00000FEFDCF81E0809327020E94092505C0F2
:1052C00019BC109227020E941B258091E10080FFEB
:1052D00019C08091E20080FF15C08091E2008E7FAE
:1052E0008093E2008091E20080618093E2008091EF
:1052F000D80080628093D80019BC85E08093270293
:105300000E9426258091E10084FF30C08091E20058
:1053100084FF2CC080E189BD82E189BD09B400FE13
:10532000FDCF8091D8008F7D8093D8008091E100DF
:105330008F7E8093E1008091E2008F7E8093E20077
:105340008091E20081608093E200809123028823B3
:1053500011F084E007C08091E30087FD02C081E086
:1053600001C083E0809327020E942A258091E100FA
:1053700083FF29C08091E20083FF25C08091E10076
:10538000877F8093E10082E08093270210922302BE
:105390008091E1008E7F8093E1008091E2008E7F1A
:1053A0008093E2008091E20080618093E20042E01D
:1053B00060E080E00E9421288091F0008860809366
:1053C000F0000E942225FF91EF91BF91AF919F9134
:1053D0008F917F916F915F914F913F912F910F909E
:1053E0000FBE0F901F9018951F920F920FB60F923D
:1053F00011242F933F934F935F936F937F938F93DA
:105400009F93AF93BF93CF93DF93EF93FF93C0919D
:10541000E900CF708091EC00D82FD17080FDD0E8EA
:105420001092E9008091F000877F8093F0007894DB
:105430000E94382A1092E9008091F00088608093E1
:10544000F000CD2BCF70C093E900FF91EF91DF9179
:10545000CF91BF91AF919F918F917F916F915F910C
:105460004F913F912F910F900FBE0F901F90189565
:105470001F93CF93DF93CDB7DEB7AA970FB6F894FB
:10548000DEBF0FBECDBFE8E2F2E088E08E0F909164
:10549000F10091938E13FBCF0E9480258091E8004C
:1054A00083FF28C18091280290912902492F50E062
:1054B0004A30510508F01EC1FA01E652FF4F0C9424
:1054C000CD2B803821F0823809F014C108C08091BA
:1054D000240290912502992389F082600FC0809167
:1054E0002C028F70873008F005C18093E90080910D
:1054F000EB0085FB882780F91092E9009091E80085
:10550000977F9093E8008093F1001092F100D0C053
:10551000282F2D7F09F0EEC0882319F0823061F02A
:10552000E9C080912A02813009F0E4C0933009F08B
:1055300080E0809325022EC080912A0281112AC02A
:1055400080912C028F702FEF280F263008F0D2C0E8
:105550008093E9002091EB0020FF1CC0933021F4E0
:105560008091EB00806214C09091EB009061909369
:10557000EB0021E030E0A90102C0440F551F8A95DD
:10558000E2F74093EA001092EA008091EB00886015
:105590008093EB001092E9008091E800877F809370
:1055A000E8000E945628A6C08111A4C010912A02CA
:1055B0001F778091E3008078812B8093E3008091B6
:1055C000E800877F8093E8000E9456288091E800D9
:1055D00080FFFCCF8091E30080688093E30011118D
:1055E00002C082E001C083E08093270283C080581C
:1055F000823008F07FC080912A0290912B028C3D6E
:1056000053E0950779F583E08A838AE289834FB76F
:10561000F894DE01139620E03EE051E2E32FF0E043
:1056200050935700E49120FF03C0E295EF703F5F75
:10563000EF708E2F90E0EA3010F0C79601C0C09650
:105640008D939D932F5F243149F74FBF8091E800E0
:10565000877F8093E8006AE270E0CE0101960E94A5
:105660005D2715C060912C0270912D02AE014F5F35
:105670005F4F0E948426BC01892BE1F19091E800E4
:10568000977F9093E80089819A810E94C02780913A
:10569000E8008B778093E8002DC0803859F5809121
:1056A000E800877F8093E800809123028093F100D7
:1056B0008091E8008E7773CF81111CC090912A02EF
:1056C0009230C0F48091E800877F8093E800909347
:1056D00023020E94562880912302811106C08091E6
:1056E000E30087FD02C081E001C084E080932702CF
:1056F0000E9471258091E80083FF0AC08091E80034
:10570000877F8093E8008091EB0080628093EB00BC
:10571000AA960FB6F894DEBF0FBECDBFDF91CF9132
:105720001F910895CF93809127028823A1F0C09103
:10573000E900CF709091EC00892F817090FD80E896
:10574000C82B1092E9008091E80083FD0E94382A5E
:10575000CF70C093E900CF910895991B79E004C000
:10576000991F961708F0961B881F7A95C9F78095A0
:10577000089597FB072E16F4009407D077FD09D003
:105780000E94D32B07FC05D03EF4909581959F4F46
:105790000895709561957F4F0895EE0FFF1F059056
:1057A000F491E02D0994AA1BBB1B51E107C0AA1F6D
:1057B000BB1FA617B70710F0A61BB70B881F991FB2
:1057C0005A95A9F780959095BC01CD010895F99956
:1057D000FECF92BD81BDF89A992780B50895A8E1C2
:1057E000B0E042E050E00C941B2C262FF999FECF3C
:1057F00092BD81BDF89A019700B4021639F01FBA24
:1058000020BD0FB6F894FA9AF99A0FBE0895039640
:10581000272F0E94F62B0E94F52B252F0E94F62B96
:10582000242F0C94F62B0196272F0E94F62B0C9414
:10583000F52BDC01CB01FC01F999FECF06C0F2BDCE
:10584000E1BDF89A319600B40D9241505040B8F73E
:065850000895F894FFCF5B
:10585600C4012808140A321EC023C22497246124D6
:105866002624010102030405060708090040C02298
:0C587600280E680D460DEB0C040D1D0DF6
:00000001FF
